:100000000C945D000C9485000C9485000C94850084
:100010000C9485000C9485000C9485000C9485004C
:100020000C9485000C9485000C9485000C9485003C
:100030000C9485000C9485000C9485000C9485002C
:100040000C94A1020C9485000C9411030C94EB0207
:100050000C9485000C9485000C9485000C9485000C
:100060000C9485000C94850000000008000201003B
:100070000003040700000000000000000000000072
:10008000250028002B0000000000240027002A0083
:10009000040404040404040402020202020203032E
:1000A0000303030301020408102040800102040836
:1000B0001020010204081020690411241FBECFEF94
:1000C000D8E0DEBFCDBF21E0A2E3B1E001C01D92C8
:1000D000AC3DB207E1F711E0A0E0B1E0E6E0FEE000
:1000E00002C005900D92A233B107D9F710E0CDE51B
:1000F000D0E004C02197FE010E940905CC35D1074C
:10010000C9F70E9443030C9401070C94000090E08F
:10011000FC01EC55FF4F249180579F4FFC018491C7
:10012000882399F090E0880F991FFC01EA57FF4F50
:10013000A591B491FC01E458FF4F859194918FB73C
:10014000F894EC91E22BEC938FBF089590E0FC01C2
:10015000E859FF4F2491FC01EC55FF4F3491FC010D
:10016000E057FF4FE491EE23C9F0222339F023300A
:1001700001F1A8F4213019F1223029F1F0E0EE0F5D
:10018000FF1FE458FF4FA591B4918FB7F894EC91FD
:10019000611126C030953E233C938FBF08952730D0
:1001A000A9F02830C9F0243049F7809180008F7D74
:1001B00003C0809180008F7780938000DFCF84B56B
:1001C0008F7784BDDBCF84B58F7DFBCF8091B0006E
:1001D0008F778093B000D2CF8091B0008F7DF9CF20
:1001E0003E2BDACF1F93CF93DF93EA01892B49F59A
:1001F00085E012E00E94A60064E6812F0E94A6001E
:1002000061E0812F0E94A600C230D10540F0CE01EE
:10021000880F991F880F991F05970197F1F760E0E4
:10022000812F0E94A600C230D10538F0CC0FDD1F0F
:10023000CC0FDD1F25972197F1F7DF91CF911F910B
:10024000089587E014E0D6CFAF92BF92CF92DF92AD
:10025000EF92FF920F931F93CF93DF936C017B017B
:100260008B01040F151FEB015E01AE18BF08C0170C
:10027000D10759F06991D601ED91FC910190F0817F
:10028000E02DC6010995892B79F7C501DF91CF9142
:100290001F910F91FF90EF90DF90CF90BF90AF90A4
:1002A0000895FC01538D448D252F30E0842F90E07C
:1002B000821B930B541710F0CF9608950197089561
:1002C000FC01918D828D981761F0A28DAE0FBF2F2A
:1002D000B11D5D968C91928D9F5F9F73928F90E080
:1002E00008958FEF9FEF08952FB7F894809137010D
:1002F00090913801A0913901B0913A012FBF8093BC
:10030000430190934401A0934501B09346018BE3D0
:1003100091E00E94600197FF26C02FB7F89480916A
:10032000370190913801A0913901B0913A012FBF66
:100330004091430150914401609145017091460103
:10034000841B950BA60BB70B40913F0150914001C8
:10035000609141017091420184179507A607B70784
:10036000B0F28FEF9FEF0895FC01918D828D981769
:1003700031F0828DE80FF11D858D90E008958FEFAB
:100380009FEF0895FC01918D228D892F90E0805C74
:100390009F4F821B91098F73992708958BE391E0FA
:1003A0000E94C20121E0892B09F420E0822F0895E8
:1003B00080E090E0892B29F00E94CE0181110C94FD
:1003C00000000895FC01A48DA80FB92FB11DA35AF8
:1003D000BF4F2C91848D90E001968F739927848F65
:1003E000A689B7892C93A089B1898C918370806488
:1003F0008C93938D848D981306C00288F389E02D29
:1004000080818F7D80830895EF92FF920F931F93D9
:10041000CF93DF93EC0181E0888F9B8D8C8D9813B7
:100420001AC0E889F989808185FF15C09FB7F894C3
:10043000EE89FF896083E889F9898081837080640F
:1004400080839FBF81E090E0DF91CF911F910F915A
:10045000FF90EF900895F62E0B8D10E00F5F1F4F69
:100460000F731127E02E8C8D8E110CC00FB607FC78
:10047000FACFE889F989808185FFF5CFCE010E9406
:10048000E201F1CFEB8DEC0FFD2FF11DE35AFF4F91
:10049000F0829FB7F8940B8FEA89FB898081806294
:1004A000CFCFCF93DF93EC01888D8823B9F0AA8951
:1004B000BB89E889F9898C9185FD03C0808186FD1F
:1004C0000DC00FB607FCF7CF8C9185FFF2CF80816E
:1004D00085FFEDCFCE010E94E201E9CFDF91CF9100
:1004E000089542E050E068E171E08BE391E00C9404
:1004F00024010F931F93CF93DF93EC01888199819F
:10050000009759F02A813B812617370730F081E0A8
:10051000DF91CF911F910F9108958B016F5F7F4FF6
:100520000E943406009759F0998388831B830A83BD
:100530002C813D81232B59F7FC011082E8CF80E00C
:10054000E7CF1F920F920FB60F9211242F933F9374
:100550008F939F93AF93BF93809137019091380110
:10056000A0913901B0913A013091360123E0230F77
:100570002D3758F50196A11DB11D209336018093AA
:10058000370190933801A0933901B0933A018091DB
:10059000320190913301A0913401B091350101965F
:1005A000A11DB11D8093320190933301A0933401BA
:1005B000B0933501BF91AF919F918F913F912F9152
:1005C0000F900FBE0F901F90189526E8230F0296EC
:1005D000A11DB11DD2CF1F920F920FB60F92112401
:1005E0002F933F934F935F936F937F938F939F933B
:1005F000AF93BF93EF93FF938BE391E00E94E201EF
:10060000FF91EF91BF91AF919F918F917F916F91EA
:100610005F914F913F912F910F900FBE0F901F90C0
:1006200018951F920F920FB60F9211242F938F934C
:100630009F93EF93FF93E0914B01F0914C018081E8
:10064000E0915101F091520182FD1BC09081809197
:1006500054018F5F8F7320915501821741F0E09113
:100660005401F0E0E55CFE4F958F80935401FF91BB
:10067000EF919F918F912F910F900FBE0F901F9030
:1006800018958081F4CFCF93DF93CDB7DEB728974D
:100690000FB6F894DEBF0FBECDBF789484B58260EC
:1006A00084BD84B5816084BD85B5826085BD85B516
:1006B000816085BD80916E00816080936E00109294
:1006C000810080918100826080938100809181000F
:1006D00081608093810080918000816080938000A0
:1006E0008091B10084608093B1008091B0008160FE
:1006F0008093B00080917A00846080937A0080912A
:100700007A00826080937A0080917A008160809381
:100710007A0080917A00806880937A001092C100FC
:1007200082E00E94870085E00E94870084E00E94AA
:10073000870087E00E948700E0914B01F0914C0117
:1007400082E08083E0914701F09148011082E091BE
:100750004901F0914A018FEC808310925301E0919E
:100760004F01F091500186E08083E0914D01F091BE
:100770004E01808180618083E0914D01F0914E01B6
:10078000808188608083E0914D01F0914E018081ED
:1007900080688083E0914D01F0914E0180818F7DD2
:1007A000808345E150E06BE171E08BE391E00E94D2
:1007B00024010E94710280E0E82E80E0F82E8BE395
:1007C00091E00E94C201181619060CF076C01A8238
:1007D00019821C821B821E821D8270E060E0CE01A5
:1007E00001960E94790229813A8181112BC021153D
:1007F000310519F0C9010E94AB051A8219821E82C7
:100800001D821C821B820E94740197FD23C08F836E
:1008100018860D811E810F5F1F4FB801CE01019612
:100820000E947902882379F329813A818D819E8102
:10083000BE01695F7F4F820F931F0E94FA061E83DD
:100840000D83E1CF1E821D826AE171E0C9010E9421
:10085000FA06D9CF89819A810097D9F00E9496042F
:100860008B0110161106CCF4680184E6C80ED11C69
:10087000A60170E060E090E080E00E94F200A60136
:1008800061E070E081E090E00E94F2000150110907
:10089000E8CF60E070E0CB01E3CF4D815E816981FC
:1008A0007A818BE391E00E9424010E947102898188
:1008B0009A81009711F00E94AB05E114F10409F44C
:1008C0007ECF0E94CE01882309F479CF0E940000D8
:1008D00076CFEBE3F1E01382128288EE93E0A0E0A2
:1008E000B0E084839583A683B7838AE091E0918307
:1008F000808385EC90E09587848784EC90E09787EF
:10090000868780EC90E0918B808B81EC90E0938BDC
:10091000828B82EC90E0958B848B86EC90E0978BB9
:10092000868B118E128E138E148E08951F93FC01E8
:1009300099278827BC01E89411911032E9F3193006
:1009400010F01E30C8F31B3251F01D3249F4689488
:1009500006C00E94BD04610F711D811D911D119182
:1009600010531A30B0F33EF49095809570956195D0
:100970007F4F8F4F9F4F1F910895592F482F372F2B
:10098000262F660F771F881F991F660F771F881FF6
:10099000991F620F731F841F951F660F771F881F93
:1009A000991F08952F923F924F925F926F927F927C
:1009B0008F929F92AF92BF92CF92DF92EF92FF926F
:1009C0000F931F93CF93DF93CDB7DEB7CA1BDB0B1B
:1009D0000FB6F894DEBF0FBECDBF09942A883988C0
:1009E00048885F846E847D848C849B84AA84B984C7
:1009F000C884DF80EE80FD800C811B81AA81B981D3
:100A0000CE0FD11D0FB6F894DEBF0FBECDBFED01E6
:100A10000895EE0FFF1F0590F491E02D09940F93B8
:100A20001F93CF93DF938230910510F482E090E022
:100A3000E091DA01F091DB0130E020E0B0E0A0E0ED
:100A4000309799F42115310509F44AC0281B390B58
:100A500024303105D8F58A819B816115710589F1B2
:100A6000FB0193838283FE0111C040815181028189
:100A7000138148175907E0F04817590799F4109760
:100A800061F012960C93129713961C933296CF0135
:100A9000DF91CF911F910F9108950093DA01109388
:100AA000DB01F4CF2115310551F04217530738F01F
:100AB000A901DB019A01BD01DF01F801C1CFEF01FE
:100AC000F9CF9093DB018093DA01CDCFFE01E20FE5
:100AD000F31F819391932250310939832883D7CF13
:100AE0002091D8013091D901232B41F420910201AA
:100AF000309103013093D9012093D8012091000156
:100B0000309101012115310541F42DB73EB74091D7
:100B1000040150910501241B350BE091D801F0919F
:100B2000D901E217F307A0F42E1B3F0B2817390752
:100B300078F0AC014E5F5F4F2417350748F04E0F39
:100B40005F1F5093D9014093D801819391939FCF18
:100B5000F0E0E0E09CCFCF93DF930097E9F0FC0159
:100B6000329713821282A091DA01B091DB01ED017C
:100B700030E020E01097A1F420813181820F931F93
:100B80002091D8013091D9012817390709F061C0A7
:100B9000F093D901E093D801DF91CF910895EA0154
:100BA000CE17DF07E8F54A815B819E0141155105AB
:100BB000B1F7E901FB83EA8349915991C40FD51F2D
:100BC000EC17FD0761F4808191810296840F951FD7
:100BD000E90199838883828193819B838A83F0E0F2
:100BE000E0E012968D919C9113970097B9F52D91A5
:100BF0003C911197CD010296820F931F2091D8014D
:100C00003091D9012817390739F6309751F51092EC
:100C1000DB011092DA01B093D901A093D801BCCFC7
:100C2000D383C28340815181840F951FC817D90790
:100C300061F44E5F5F4F88819981480F591F51833E
:100C400040838A819B81938382832115310509F03A
:100C5000B0CFF093DB01E093DA019ECFFD01DC0120
:100C6000C0CF13821282D7CFB0E0A0E0EAE3F6E073
:100C70000C94D4048C01009751F4CB010E940F0511
:100C80008C01C801CDB7DEB7E0E10C94F004FC01A3
:100C9000E60FF71F9C0122503109E217F30708F411
:100CA0009DC0D901CD91DC911197C617D70798F057
:100CB000C530D10530F3CE0104978617970708F3A6
:100CC000C61BD70B2297C193D1936D937C93CF0111
:100CD0000E94AB05D6CF5B01AC1ABD0A4C018C0E4D
:100CE0009D1EA091DA01B091DB01512C412CF12C19
:100CF000E12C109731F58091D8019091D901881598
:100D0000990509F05CC04616570608F058C0809156
:100D1000000190910101009741F48DB79EB7409179
:100D2000040150910501841B950BE817F90708F0A1
:100D300055C0F093D901E093D801F9017183608324
:100D4000A0CF8D919C91119712966C90129713964B
:100D50007C901397A815B90559F56C0142E0C40EB3
:100D6000D11CCA14DB0420F1AC014A195B09DA0179
:100D70001296159780F06282738251834083D90165
:100D80006D937C93E114F10471F0D7011396FC93F9
:100D9000EE93129776CF22968C0F9D1FF9019183C7
:100DA0008083F301EFCFF093DB01E093DA0169CFA9
:100DB0004816590608F42C017D01D3019ACFCB01C6
:100DC0000E940F057C01009749F0AE01B8010E9416
:100DD000F106C8010E94AB05870153CF10E000E087
:100DE00050CFFB01DC0102C001900D9241505040F8
:100DF000D8F70895FB01DC0101900D920020E1F786
:060E00000895F894FFCFF5
:100E06000000DC0180000000000004022401510102
:100E16005102C2016001B4010D0A002D2D2D2D7362
:100E26007465707065722074657374202D2D2D2D78
:020E36000000BA
:00000001FF
