:100000000C946F000C9497000C9497000C9497003C
:100010000C9497000C9497000C9497000C94970004
:100020000C9497000C9497000C9497000C94A408DF
:100030000C9497000C9497000C9497000C949700E4
:100040000C94E3060C9497000C9453070C942D0722
:100050000C9497000C9497000C9497000C949700C4
:100060000C9485070C949700084AD73B3BCE016E51
:1000700084BCBFFDC12F3D6C74319ABD56833DDAFF
:100080003D00C77F11BED9E4BB4C3E916BAAAABE0E
:10009000000000803F0000000000250028002B0029
:1000A000040404040404040402020202020203031E
:1000B0000303030301020408102040800102040826
:1000C00010200102040810200000000800020100B6
:1000D000000304070000000000000000F2081124E3
:1000E0001FBECFEFD8E0DEBFCDBF11E0A0E0B1E092
:1000F000EEEEF2E402C005900D92A238B107D9F7F6
:1001000023E0A2E8B1E001C01D92A33BB207E1F7F2
:1001100010E0CFE6D0E004C02197FE010E94331E1C
:10012000CE36D107C9F70E941D0A0C9475210C9494
:10013000000091E090934302809365021092440284
:1001400010926602089590911602809115022FEF89
:100150003FEF981748F4E92FF0E0EB50FE4F208175
:1001600030E09F5F90931602C901089590911602A6
:10017000809115022FEF3FEF981748F4E92FF0E038
:10018000EB50FE4F208130E09F5F90931602C90133
:1001900008958091150290911602891B990B08957C
:1001A00090E0FC01E853FF4F2491FC01EC54FF4F19
:1001B0003491FC01E056FF4FE491EE23C9F0222375
:1001C00039F0233001F1A8F4213019F1223029F15E
:1001D000F0E0EE0FFF1FEA56FF4FA591B4918FB7E5
:1001E000F894EC91611126C030953E233C938FBF6B
:1001F00008952730A9F02830C9F0243049F78091BC
:1002000080008F7D03C0809180008F778093800075
:10021000DFCF84B58F7784BDDBCF84B58F7DFBCFF7
:100220008091B0008F778093B000D2CF8091B000E2
:100230008F7DF9CF3E2BDACF3FB7F8948091F10153
:100240009091F201A091F301B091F40126B5A89B21
:1002500005C02F3F19F00196A11DB11D3FBFBA2F58
:10026000A92F982F8827BC01CD01620F711D811D18
:10027000911D42E0660F771F881F991F4A95D1F79D
:1002800008952FB7F8946091ED017091EE0180917F
:10029000EF019091F0012FBF089508950895AF9256
:1002A000BF92CF92DF92EF92FF920F931F93CF9363
:1002B000DF936C017B018B01040F151FEB015E01C5
:1002C000AE18BF08C017D10759F06991D601ED915A
:1002D000FC910190F081E02DC6010995892B79F7F9
:1002E000C501DF91CF911F910F91FF90EF90DF90AB
:1002F000CF90BF90AF900895FC01538D448D252F72
:1003000030E0842F90E0821B930B541710F0CF96AF
:10031000089501970895FC01918D828D981761F0E1
:10032000A28DAE0FBF2FB11D5D968C91928D9F5FF8
:100330009F73928F90E008958FEF9FEF0895FC01D7
:10034000918D828D981731F0828DE80FF11D858D8A
:1003500090E008958FEF9FEF0895FC01918D228D1D
:10036000892F90E0805C9F4F821B91098F739927A2
:10037000089587E692E00E94AD0121E0892B09F4FF
:1003800020E0822F089580E090E0892B29F00E94E0
:10039000B90181110C9400000895FC01A48DA80FEF
:1003A000B92FB11DA35ABF4F2C91848D90E00196B7
:1003B0008F739927848FA689B7892C93A089B189D7
:1003C0008C91837080648C93938D848D981306C078
:1003D0000288F389E02D80818F7D80830895EF92DC
:1003E000FF920F931F93CF93DF93EC0181E0888FEF
:1003F0009B8D8C8D98131AC0E889F989808185FFBF
:1004000015C09FB7F894EE89FF896083E889F98960
:1004100080818370806480839FBF81E090E0DF9162
:10042000CF911F910F91FF90EF900895F62E0B8DB5
:1004300010E00F5F1F4F0F731127E02E8C8D8E1170
:100440000CC00FB607FCFACFE889F989808185FFD7
:10045000F5CFCE010E94CD01F1CFEB8DEC0FFD2F3A
:10046000F11DE35AFF4FF0829FB7F8940B8FEA8992
:10047000FB8980818062CFCFCF93DF93EC01888DA1
:100480008823B9F0AA89BB89E889F9898C9185FD0F
:1004900003C0808186FD0DC00FB607FCF7CF8C919D
:1004A00085FFF2CF808185FFEDCFCE010E94CD0187
:1004B000E9CFDF91CF9108952091B901260F33271D
:1004C000331F21323105ECF420913D02FC0190E014
:1004D00080E0243069F082E00895A091B901219173
:1004E000AC0147565E4FA40FB52FB11D2C9301965A
:1004F000861798F38091B901680F6093B90180E085
:10050000089581E0089510923D0281E080933C02BD
:100510001092170261E082E10E94D00061E083E165
:100520000E94D000E9EBF0E080818E7F80838081A3
:100530008D7F808388E48093B80085E48093BC003D
:100540000895CF93DF9391E0909398018823B9F0B9
:10055000C091B800D091BA008091BC008A7B809392
:10056000BC0060E082E10E94D00060E083E10E9474
:10057000D0000E948302D093BA00C093B800DF91EC
:10058000CF910895CF92DF92EF92FF920F931F9336
:10059000CF93DF93D091660281E0D13208F09CC006
:1005A000C09165020E941C016B017C0180913D029B
:1005B00081116CC082E080933D0281E080933C0217
:1005C0008FEF80933B0210923A02D0933902A5E458
:1005D000B2E0E9E1F2E080E0D8138DC01092180299
:1005E00080911802CC0FC82BC0931802809117027B
:1005F000813009F084C0109217020E941C016B0127
:100600007C01809118028093BB0080913F02909101
:100610004002A0914102B0914202892B8A2B8B2B80
:10062000A1F00E941C0100913F0210914002209114
:100630004102309142026C197D098E099F0906170B
:1006400017072807390708F442C08091BC0083FDD2
:10065000D8CF85EC8093BC000E941C016B017C010B
:1006600080913D02823009F44CC080913B028F3F63
:1006700009F469C080913B02803209F466C0809120
:100680003B02803309F463C084E026C080913F02BE
:1006900090914002A0914102B0914202892B8A2B95
:1006A0008B2B09F483CF0E941C0100913F02109113
:1006B000400220914102309142026C197D098E095D
:1006C0009F09061717072807390708F06FCF809191
:1006D0003E020E94A10285E010924402109266023E
:1006E00010924302DF91CF911F910F91FF90EF90F5
:1006F000DF90CF9008959D9191938F5F6DCF85EEA0
:10070000A9CF80913F0290914002A0914102B09107
:100710004202892B8A2B8B2B09F4A2CF0E941C0149
:1007200000913F021091400220914102309142021B
:100730006C197D098E099F090617170728073907C5
:1007400008F08ECFC4CF80E0C7CF82E0C5CF83E072
:10075000C3CF0895E091160280911502E81730F496
:10076000F0E0EB50FE4F808190E008958FEF9FEF17
:100770000895CF92DF92EF92FF920F931F93CF9342
:10078000DF937C01CB018A0120914302222389F06F
:10079000EB016B01C40ED51ECC15DD0569F0699126
:1007A000D701ED91FC910190F081E02DC7010995F1
:1007B000F3CF642F0E945C02C801DF91CF911F919B
:1007C0000F91FF90EF90DF90CF900895CF93DF933C
:1007D0001F92CDB7DEB76983209143022223F9F03F
:1007E00020916602203258F021E030E0FC01338392
:1007F000228390E080E00F90DF91CF910895809167
:100800004402E82FF0E0EB5BFD4F998190838F5F0E
:10081000809344028093660281E090E0ECCF61E037
:10082000CE0101960E945C02F7CF0F931F93CF93E6
:10083000DF93082F162FC0E1D3E089A50E9499000D
:10084000602F84E093E00E94E603612F84E093E050
:100850000E94E6030E94C2028DA3DF91CF911F91F7
:100860000F9108950F931F93CF93DF93082F162FA7
:10087000C0E1D3E088A50E949900602F84E093E056
:100880000E94E603612F84E093E00E94E6030E9449
:10089000C2028DA3DF91CF911F910F9108950F9305
:1008A0001F93CF93DF93082F162FC0E1D3E08985E4
:1008B0000E949900602F84E093E00E94E603612F7C
:1008C00084E093E00E94E6030E94C2028E83DF91DF
:1008D000CF911F910F91089590E080E00895CF92FD
:1008E000DF92EF92FF920F931F93CF93DF93D82F56
:1008F000C62F0E941C016B017C0180913D02811179
:1009000065C081E080933D0280933C029FEF90930D
:100910003B0210923A029C0F909339028093180286
:1009200080911802DD0FD82BD09318028091170206
:10093000813009F07FC0109217020E941C016B01E8
:100940007C01809118028093BB0080913F029091BE
:100950004002A0914102B0914202892B8A2B8B2B3D
:10096000A1F00E941C0100913F02109140022091D1
:100970004102309142026C197D098E099F090617C8
:1009800017072807390708F442C08091BC0083FD8F
:10099000D8CF85EC8093BC000E941C016B017C01C8
:1009A00080913D02813009F447C080913A028C1752
:1009B00010F4C0913A02A9E1B2E0E5EFF1E080E085
:1009C0008C1751F19D9191938F5FFACF80913F02E7
:1009D00090914002A0914102B0914202892B8A2B52
:1009E0008B2B09F48ACF0E941C0100913F021091C9
:1009F000400220914102309142026C197D098E091A
:100A00009F09061717072807390708F076CF809146
:100A10003E020E94A102C0E010921602C09315028D
:100A20008C2FDF91CF911F910F91FF90EF90DF906E
:100A3000CF90089585EEAECF80913F029091400215
:100A4000A0914102B0914202892B8A2B8B2B09F491
:100A5000A7CF0E941C0100913F02109140022091FB
:100A60004102309142026C197D098E099F090617D7
:100A700017072807390708F093CFC9CFCF93DF9323
:100A8000C82FD62F0E9499006D2F84E093E00E941A
:100A9000E6030E94C20281110EC061E08C2F0E9409
:100AA0006F049091150280911602981721F0DF9142
:100AB000CF910C94B6008FEF9FEFDF91CF91089507
:100AC000CF93C82F0E9499006FE084E093E00E94CA
:100AD000E6030E94C20281110DC061E08C2F0E94CA
:100AE0006F049091150280911602981719F0CF911A
:100AF0000C94B6008FEF9FEFCF910895FC01019009
:100B00000020E9F73197AF01481B590BBC0187E67C
:100B100092E00C944F018F929F92AF92BF920F93ED
:100B20001F93CF93DF93CDB7DEB7A1970FB6F8949D
:100B3000DEBF0FBECDBF19A2423008F44AE08E01DD
:100B40000F5D1F4F842E912CB12CA12CA501940177
:100B50000E94111EE62FB901CA01EA30F4F4E05DEB
:100B6000D801EE938D01232B242B252B79F790E0D0
:100B700080E0109719F0CD010E947E05A1960FB676
:100B8000F894DEBF0FBECDBFDF91CF911F910F91C3
:100B9000BF90AF909F908F900895E95CE1CF4F9206
:100BA0005F926F927F928F929F92AF92BF92CF92FD
:100BB000DF92EF92FF920F931F93CF936B017C0113
:100BC000742EAC019B010E945B21882399F08CE379
:100BD00091E0CF911F910F91FF90EF90DF90CF9018
:100BE000BF90AF909F908F907F906F905F904F904D
:100BF0000C947E0546015701E894B7F82FEF3FEFBC
:100C00004FE75FE7C501B4010E945B2181110DC070
:100C10002FEF3FEF4FE75FE7C501B4010E94181FB8
:100C200018161CF480E491E0D4CF2FEF3FEF4FE78C
:100C30005FE4C701B6010E94972018161CF484E4F3
:100C400091E0C7CF2FEF3FEF4FE75FECC701B60151
:100C50000E94181F87FDF3CF20E030E0A901C701F3
:100C6000B6010E94181F10E000E087FF0AC06DE285
:100C700087E692E00E94EF018C01F7FAF094F7F812
:100C8000F094C0E060E070E080E09FE37C1641F00B
:100C900020E030E040E251E40E941D1FCF5FF6CF1C
:100CA000A70196010E943A1E2B013C010E948F1F52
:100CB0004B015C014AE00E948B057C01E00EF11EB5
:100CC000CC23C1F1C501B4010E94BE1F9B01AC0140
:100CD000C301B2010E94391E4B015C016EE287E63E
:100CE00092E00E94EF01E80EF91EC15018F120E0D9
:100CF00030E040E251E4C501B4010E94A4202B0180
:100D00003C010E948F1F4B01B12CA12C4AE0C50170
:100D1000B4010E948B05E80EF91EC501B4010E94C2
:100D2000BE1F9B01AC01C301B2010E94391E4B01E1
:100D30005C01DBCFC701CF911F910F91FF90EF9026
:100D4000DF90CF90BF90AF909F908F907F906F90EB
:100D50005F904F90089585ED8093BC0080913F0295
:100D600090914002A0914102B09142020796A11DCC
:100D7000B11D23E0B695A795979587952A95D1F74C
:100D80002091BC0024FD03C010923D0208954091C3
:100D90003F02509140026091410270914202452B06
:100DA000462B472B69F30097A105B10541F025E3D8
:100DB0002A95F1F700000197A109B109E1CF8091CF
:100DC0003E020C94A1021F920F920FB60F921124B3
:100DD0002F933F938F939F93AF93BF938091ED0198
:100DE0009091EE01A091EF01B091F0013091EC01F2
:100DF00023E0230F2D3758F50196A11DB11D209337
:100E0000EC018093ED019093EE01A093EF01B0937C
:100E1000F0018091F1019091F201A091F301B09164
:100E2000F4010196A11DB11D8093F1019093F2018F
:100E3000A093F301B093F401BF91AF919F918F9173
:100E40003F912F910F900FBE0F901F90189526E89D
:100E5000230F0296A11DB11DD2CF1F920F920FB684
:100E60000F9211242F933F934F935F936F937F9330
:100E70008F939F93AF93BF93EF93FF9387E692E097
:100E80000E94CD01FF91EF91BF91AF919F918F9102
:100E90007F916F915F914F913F912F910F900FBE76
:100EA0000F901F9018951F920F920FB60F9211245A
:100EB0002F938F939F93EF93FF93E0917702F0919D
:100EC00078028081E0917D02F0917E0282FD1BC05C
:100ED0009081809180028F5F8F73209181028217B1
:100EE00041F0E0918002F0E0E959FD4F958F809349
:100EF0008002FF91EF919F918F912F910F900FBEE4
:100F00000F901F9018958081F4CF1F920F920FB60B
:100F10000F9211242F933F934F935F936F937F937F
:100F20008F939F93AF93BF93EF93FF938091B900FB
:100F3000887F803609F44AC0F0F5883209F4A7C0EA
:100F400018F5803109F49BC0B8F4882309F4F9C07E
:100F5000883009F494C0FF91EF91BF91AF919F91B8
:100F60008F917F916F915F914F913F912F910F9052
:100F70000FBE0F901F901895883109F488C08032F9
:100F800051F780933B0214C0803409F49DC040F4B3
:100F90008033B9F38833F9F680933B0285ECB0C017
:100FA000803509F485C0883509F496C0883499F6EF
:100FB0000E94AB06D0CF883909F48CC038F5883749
:100FC00029F050F4883611F0803729F683E08093B9
:100FD0003D021092DB0157C0883809F47BC080398C
:100FE00019F0803809F0B7CF8091DB01803208F02A
:100FF00071C0E091DB0181E08E0F8093DB01809175
:10100000BB00F0E0E554FE4F80833DC0803B39F0EB
:10101000E0F4803A09F479C0883A09F09CCF84E082
:1010200080933D021092BA011092B901E091DE0165
:10103000F091DF0109958091B90181110FC081E024
:101040008093B9011092990109C0803C09F4A6CFA0
:10105000883C09F4A3CF883B09F07DCFE091BA0129
:1010600081E08E0F8093BA01F0E0E756FE4F808159
:101070008093BB009091BA018091B90129C0809101
:1010800018028093BB0085EC8093BC0064CF9091E4
:101090003A0280913902981758F5E0913A0281E0BE
:1010A0008E0F80933A02F0E0E75EFD4F8081E9CF3A
:1010B000E0913A0281E08E0F80933A028091BB006A
:1010C000F0E0E75EFD4F808390913A028091390213
:1010D0009817C8F285E8D8CFE0913A0281E08E0FE8
:1010E00080933A028091BB00F0E0E75EFD4F808381
:1010F00080913C0281115CCF81E08093170284EAE9
:101100008093BC0010923D0226CF85EC8093BC00FA
:1011100010923D028091DB01803230F4E091DB01DE
:10112000F0E0E554FE4F10826091DB0170E0E09149
:10113000DC01F091DD018BEB91E009951092DB0170
:101140000ACF10923B0234CF1F920F920FB60F922C
:1011500011244F935F936F937F938F939F93AF93DC
:10116000BF934C9B38C05C984A9B37C05A9880917B
:101170009601909197010196909397018093960123
:1011800080FD1CC04F992BC081E090E0092E000C1F
:10119000AA0BBB0B40919201509193016091940175
:1011A00070919501840F951FA61FB71F8093920120
:1011B00090939301A0939401B0939501BF91AF9147
:1011C0009F918F917F916F915F914F910F900FBE83
:1011D0000F901F9018955C9AC7CF5A9AC8CF8FEF7F
:1011E0009FEFD4CFCF93DF93E7E6F2E01382128232
:1011F00088EE93E0A0E0B0E084839583A683B78374
:101200002CE131E03183208325EC30E035872487E1
:1012100024EC30E03787268720EC30E0318B208BC0
:1012200021EC30E0338B228B22EC30E0358B248BA9
:1012300026EC30E0378B268B118E128E138E148E97
:10124000E4E0F3E01382128284839583A683B7835C
:101250008EE291E091838083C0E1D3E083E090E06F
:1012600098878F831B861A861C8686E0ECE0F1E067
:10127000AFE2B3E001900D928A95E1F786E0E2E1FA
:10128000F1E0A9E2B3E001900D928A95E1F784E0E4
:1012900090E09FA38EA319AE18AE1AAE1BAE1CAE83
:1012A0001DAE1EAE10924F031092500310925103C8
:1012B000109252031092530310925403109255034C
:1012C000109256031092570310925803109259032C
:1012D00010925A0310925B0310925C0310925D030C
:1012E00010925E0310925F031092600310926103EC
:1012F00010926203109263031092640310926503CC
:1013000010926603109267031092680310926903AB
:1013100010926A0310926B0310926C0310926D038B
:1013200010926E0310926F0310927003109271036B
:10133000109272031092730310927403109275034B
:10134000109276031092770310927803109279032B
:1013500010927A0310927B0310927C0310927D030B
:1013600010927E0310927F031092800310928103EB
:1013700010928203109283031092840310928503CB
:1013800010928603109287031092880310928903AB
:1013900010928A0310928B0310928C0310928D038B
:1013A00010928E0310928F0310929003109291036B
:1013B000109292031092930310929403109295034B
:1013C000109296031092970310929803109299032B
:1013D00010929A0310929B0310929C0310929D030B
:1013E00010929E0310929F031092A0031092A103EB
:1013F0001092A2031092A3031092A4031092A503CB
:101400001092A6031092A7031092A8031092A903AA
:101410001092AA031092AB031092AC031092AD038A
:101420001092AE031092AF031092B0031092B1036A
:101430001092B203DF91CF910895CF93DF93CDB790
:10144000DEB7CE59D1090FB6F894DEBF0FBECDBFBF
:10145000789484B5826084BD84B5816084BD85B58F
:10146000826085BD85B5816085BD80916E0081609B
:1014700080936E0010928100809181008260809341
:101480008100809181008160809381008091800043
:101490008160809380008091B10084608093B1006E
:1014A0008091B00081608093B00080917A00846068
:1014B00080937A0080917A00826080937A00809194
:1014C0007A00816080937A0080917A0080688093AE
:1014D0007A001092C10010928000109281008FEF6C
:1014E00090E0909389008093880080916F008260E3
:1014F00080936F00809181008860809381008AB121
:10150000846B8AB9E0917702F091780282E080835F
:10151000E0917302F09174021082E0917502F091F3
:10152000760280E1808310927F02E0917B02F0914D
:101530007C0286E08083E0917902F0917A028081DA
:1015400080618083E0917902F0917A0280818860E5
:101550008083E0917902F0917A02808180688083B3
:10156000E0917902F0917A0280818F7D80831092E0
:1015700016021092150210924402109266020E9406
:1015800083028DE491E09093DF018093DE018EE48D
:1015900091E09093DD018093DC018CE08093B800B2
:1015A0008BE60E9460058F3F980711F40C94EB1BAB
:1015B000873D910511F40C94FB1B81E090E021E044
:1015C00030E090931803809317030197029710F06F
:1015D0000C94061C8BE62130310509F08AE68093D5
:1015E00019036FE070E08DE10E943E05893491059A
:1015F00011F40C94081E6FE070E08EE10E943E052D
:101600008934910511F00C94AE1D83E090E0909325
:101610003703809336038EE1809339038093380338
:1016200088E090E090933F0380933E0389E090E050
:1016300090933D0380933C038AE090E090934303B2
:10164000809342038BE090E09093410380934003AA
:101650008CE090E090934703809346038DE090E008
:1016600090934503809344036FE080E20E944F040F
:1016700060E183E20E944F0460E183E20E94320451
:1016800067E580E20E94320468E980E00E94150468
:1016900060EA81E00E94150460E082E00E94150487
:1016A00011E0809119030E94990068EA84E093E0B8
:1016B0000E94E6030E94C20266E0809119030E9424
:1016C0006F040E9441017B018091150290911602E6
:1016D000891B990B20911A0330911B0386309105C9
:1016E00014F00C944C1C21153105C1F30E944101EA
:1016F0006E197F0980911A0390911B038617970733
:1017000018F710931C03809139030E94990080916F
:1017100036039091370360913C0370913D0303972A
:1017200029F460913E0370913F03606884E093E088
:101730000E94E6030E94C2028093350366E0809116
:1017400039030E946F040E9441017B0180911502C0
:1017500090911602891B990B2091480330914903FF
:101760008630910514F00C948C1C21153105C1F3C1
:101770000E9441016E197F098091480390914903AD
:101780008617970718F710934A03809138030E9431
:10179000990068EA84E093E00E94E6030E94C20296
:1017A0008093350366E0809138030E946F040E94A5
:1017B00041017B018091150290911602891B990BC2
:1017C00020914803309149038630910514F00C9420
:1017D000DD1C21153105C1F30E9441016E197F09FD
:1017E00080914803909149038617970718F7109343
:1017F0004A036091100370911103072E000C880BAF
:10180000990B0E94C01F69837A838B839C836093AA
:101810005703709358038093590390935A03609130
:10182000120370911303072E000C880B990B0E9472
:10183000C01F69877A878B879C8760935B0370934F
:101840005C0380935D0390935E0360911403709139
:101850001503072E000C880B990B0E94C01F2B014B
:101860003C0140925F03509260036092610370926A
:10187000620360911D0370911E03072E000C880BFC
:10188000990B0E94C01F6D877E878F87988B60930E
:101890004B0370934C0380934D0390934E036091E0
:1018A0001F0370912003072E000C880B990B0E94D8
:1018B000C01F6D837E838F83988760934F037093DF
:1018C00050038093510390935203609121037091D0
:1018D0002203072E000C880B990B0E94C01F698BF6
:1018E0007A8B8B8B9C8B6093530370935403809300
:1018F0005503909356036091230370912403072EA0
:10190000000C880B990B0E94C01F6D8B7E8B8F8BF8
:10191000988F60936303709364038093650390933F
:1019200066036091250370912603072E000C880B37
:10193000990B0E94C01F6D8F7E8F8F8F98A360932D
:101940006703709368038093690390936A036091BF
:10195000270370912803072E000C880B990B0E9417
:10196000C01F69A37AA38BA39CA360936B0370939E
:101970006C0380936D0390936E03CD84DE84EF84BB
:10198000F888C0926F03D0927003E0927103F092D6
:101990007203CD80DE80EF80F884C0927303D09212
:1019A0007403E0927503F0927603C988DA88EB88B5
:1019B000FC88C0927703D0927803E0927903F0928A
:1019C0007A03C980DA80EB80FC80C0927B03D092DE
:1019D0007C03E0927D03F0927E03C984DA84EB8479
:1019E000FC84C0927F03D0928003E0928103F09246
:1019F0008203409283035092840360928503709225
:101A00008603CD88DE88EF88F88CC0928703D09259
:101A10008803E0928903F0928A03CD8CDE8CEF8CF0
:101A2000F8A0C0928B03D0928C03E0928D03F092C9
:101A30008E036B017C01C0928F03D0929003E092E1
:101A40009103F09292036091E8017091E901809115
:101A5000EA019091EB01C090E401D090E501E090A3
:101A6000E601F090E701C98EDA8EEB8EFC8EC09015
:101A7000E001D090E101E090E201F090E3019058A4
:101A800029813A814B815C810E94A4204B015C0139
:101A900029853A854B855C85698D7A8D8B8D9C8DEA
:101AA0000E94A4209B01AC01C501B4010E94391E13
:101AB0004B015C01A3019201C701B6010E94A42061
:101AC0009B01AC01C501B4010E94391E20E030E049
:101AD00040E05FE30E94A42069966CAF7DAF8EAFBB
:101AE0009FAF6997609108017091090180910A0187
:101AF00090910B01C090E401D090E501E090E601E7
:101B0000F090E701C98EDA8EEB8EFC8EC090E0017A
:101B1000D090E101E090E201F090E30129813A8167
:101B20004B815C810E94A4204B015C01A3019201C6
:101B3000698D7A8D8B8D9C8D0E94A4209B01AC01B8
:101B4000C501B4010E943A1E4B015C0129853A850A
:101B50004B855C85C701B6010E94A4209B01AC01A6
:101B6000C501B4010E94391E20E030E040E05FE38F
:101B70000E94A4206D966CAF7DAF8EAF9FAF6D9726
:101B8000609108017091090180910A0190910B0107
:101B9000C090E801D090E901E090EA01F090EB01FB
:101BA000C98EDA8EEB8EFC8EC090E001D090E10100
:101BB000E090E201F090E30129853A854B855C8550
:101BC0000E94A4204B015C01A3019201698D7A8DD2
:101BD0008B8D9C8D0E94A4209B01AC01C501B4019A
:101BE0000E94391E4B015C0129813A814B815C8145
:101BF000C701B6010E94A4209B01AC01C501B4013C
:101C00000E943A1E20E030E040E05FE30E94A42002
:101C1000A1966CAF7DAF8EAF9FAFA1976091080189
:101C20007091090180910A0190910B018090E80167
:101C30009090E901A090EA01B090EB01C090E4011E
:101C4000D090E501E090E601F090E701A301920158
:101C50000E94A4202B013C0129853A854B855C8597
:101C6000C501B4010E94A4209B01AC01C301B201D3
:101C70000E943A1E4B015C0129813A814B815C81B3
:101C8000C701B6010E94A4209B01AC01C501B401AB
:101C90000E94391E20E030E040E05FE30E94A42073
:101CA000A5966CAF7DAF8EAF9FAFA59720E030E0DB
:101CB000A9016D857E858F8598890E94181F8111E5
:101CC00018C020E030E0A9016D817E818F81988568
:101CD0000E94181F81110DC020E030E0A901698920
:101CE0007A898B899C890E94181F882311F40C948F
:101CF0008C192D853E854F855889CA01B9010E94EE
:101D0000A4206B017C012D813E814F815885CA0141
:101D1000B9010E94A4209B01AC01C701B6010E9439
:101D20003A1E6B017C0129893A894B895C89CA0179
:101D3000B9010E94A4209B01AC01C701B6010E9419
:101D40003A1E6B017C01F594E794D794C7942FED6C
:101D500039E547E35FE52C193D094E095F09690143
:101D60007A0120E030E040E05FE30E94A420A70178
:101D700096010E94A420A70196010E94A4209B0125
:101D8000AC0160E070E080EC9FE30E94391EA70187
:101D900096010E94A4206B017C01AC019B016D8522
:101DA0007E858F8598890E94A4206DA77EA78FA726
:101DB00098AB60936F03709370038093710390935B
:101DC0007203A70196016D817E818F8198850E94A3
:101DD000A4206DAB7EAB8FAB98AF60937303709311
:101DE00074038093750390937603A7019601698924
:101DF0007A898B899C890E94A4202D966CAF7DAF37
:101E00008EAF9FAF2D976093770370937803809385
:101E1000790390937A032D893E894F89588DCA01A1
:101E2000B9010E94A4206B017C012D8D3E8D4F8D48
:101E300058A1CA01B9010E94A4209B01AC01C701AD
:101E4000B6010E943A1E6B017C0129A13AA14BA167
:101E50005CA1CA01B9010E94A4209B01AC01C70189
:101E6000B6010E943A1E6B017C01F594E794D79469
:101E7000C7942FED39E547E35FE52C193D094E097D
:101E80005F0969017A0120E030E040E05FE30E94F1
:101E9000A420A70196010E94A420A70196010E94F8
:101EA000A4209B01AC0160E070E080EC9FE30E9405
:101EB000391EA70196010E94A4206B017C01AC0190
:101EC0009B016D897E898F89988D0E94A4206D83E6
:101ED0007E838F83988760938703709388038093B2
:101EE000890390938A03A70196016D8D7E8D8F8D56
:101EF00098A10E94A42069877A878B879C8760932A
:101F00008B0370938C0380938D0390938E03A701B2
:101F1000960169A17AA18BA19CA10E94A4206D8742
:101F20007E878F87988B60938F0370939003809345
:101F3000910390939203609108017091090180913F
:101F40000A0190910B019B01AC010E943A1E2D8168
:101F50003E814F8158850E94A42025966CAF7DAFAD
:101F60008EAF9FAF25976091080170910901809114
:101F70000A0190910B019B01AC010E943A1E298538
:101F80003A854B855C850E94A42061966CAF7DAF3D
:101F90008EAF9FAF619760910801709109018091A8
:101FA0000A0190910B019B01AC010E943A1E2D8504
:101FB0003E854F8558890E94A42069837A838B834C
:101FC0009C836091E8017091E9018091EA01909110
:101FD000EB019B01AC010E943A1E2D813E814F8195
:101FE00058850E94A42065966CAF7DAF8EAF9FAFE1
:101FF0006597609108017091090180910A019091A3
:102000000B019B01AC010E943A1EE5966CAF7DAFBF
:102010008EAF9FAFE5976091E8017091E9018091E3
:10202000EA019091EB019B01AC010E943A1E6D8F79
:102030007E8F8F8F98A36091E4017091E50180916C
:10204000E6019091E7019B01AC010E943A1E69A351
:102050007AA38BA39CA36091E0017091E101809130
:10206000E2019091E3019B01AC010E943A1EE996C6
:102070006CAF7DAF8EAF9FAFE997C0900801D09055
:102080000901E0900A01F0900B012196CCAEDDAE83
:10209000EEAEFFAE2197C090E401D090E501E09054
:1020A000E601F090E701C358DF4FC882D982EA8287
:1020B000FB82CD57D040C090E401D090E501E09084
:1020C000E601F090E701C9A6DAA6EBA6FCA6C0904F
:1020D000E001D090E101E090E201F090E301CF5700
:1020E000DF4FC882D982EA82FB82C158D04060911A
:1020F00008017091090180910A0190910B012091D2
:1021000008013091090140910A0150910B010E9490
:10211000A42069AB7AAB8BAB9CAB6091080170914A
:10212000090180910A0190910B012091E801309101
:10213000E9014091EA015091EB010E94A4206DA3B6
:102140007EA38FA398A760910801709109018091E7
:102150000A0190910B012091E4013091E501409139
:10216000E6015091E7010E94A420ED966CAF7DAF8F
:102170008EAF9FAFED97C0900801D0900901E0901D
:102180000A01F0900B01CB57DF4FC882D982EA8257
:10219000FB82C558D040C090E001D090E101E090B2
:1021A000E201F090E301C757DF4FC882D982EA828B
:1021B000FB82C958D0406091E8017091E90180919B
:1021C000EA019091EB012091E8013091E901409101
:1021D000EA015091EB010E94A4206D8B7E8B8F8BC6
:1021E000988FC090E801D090E901E090EA01F0906A
:1021F000EB01C357DF4FC882D982EA82FB82CD58F8
:10220000D040C090E401D090E501E090E601F0906C
:10221000E701CF56DF4FC882D982EA82FB82C159DB
:10222000D0406091E8017091E9018091EA019091BC
:10223000EB012091E0013091E1014091E2015091E8
:10224000E3010E94A420698F7A8F8B8F9C8F60910D
:10225000E4017091E5018091E6019091E701209100
:10226000E4013091E5014091E6015091E7010E94BF
:10227000A420698B7A8B8B8B9C8BC090E401D090CF
:10228000E501E090E601F090E701CB56DF4FC88210
:10229000D982EA82FB82C559D040C090E001D0903B
:1022A000E101E090E201F090E301C756DF4FC88200
:1022B000D982EA82FB82C959D0406091E0017091D5
:1022C000E1018091E2019091E3012091E0013091E0
:1022D000E1014091E2015091E3010E94A42069AF25
:1022E0007AAF8BAF9CAF4090E0015090E1016090DD
:1022F000E2017090E301C090E401D090E501E0902C
:10230000E601F090E7012091E4013091E501409170
:10231000E6015091E70129962CAF3DAF4EAF5FAF7C
:1023200029978091E0019091E101A091E201B091A3
:10233000E301A9968CAF9DAFAEAFBFAFA99729A916
:102340003AA94BA95CA96D817E818F8198850E94F5
:10235000A4204B015C01A301920161966CAD7DAD9F
:102360008EAD9FAD61970E94A4209B01AC01C50179
:10237000B4010E94391E4B015C01A70196016981DD
:102380007A818B819C810E94A4209B01AC01C501B4
:10239000B4010E943A1E6B017C012D893E894F8950
:1023A000588D6D817E818F8198850E94A4209B012C
:1023B000AC01C701B6010E943A1E6B017C012D8D54
:1023C0003E8D4F8D58A169857A858B859C850E94AD
:1023D000A42029962CAD3DAD4EAD5FAD29970E944E
:1023E000A4209B01AC01C701B6010E943A1E6B01FB
:1023F0007C012D8D3E8D4F8D58A16D857E858F85FD
:1024000098890E94A420A9962CAD3DAD4EAD5FAD3C
:10241000A9970E94A4209B01AC01C701B6010E94AC
:102420003A1E6B017C0129893A894B895C896D814F
:102430007E818F8198850E94A4209B01AC01C701F9
:10244000B6010E94391E6B017C0129AD3AAD4BAD3E
:102450005CAD6D817E818F8198850E94A4209B0157
:10246000AC01C701B6010E94391E2B013C0120912D
:10247000E0013091E1014091E2015091E301C0900F
:10248000E801D090E901E090EA01F090EB01299693
:10249000CCAEDDAEEEAEFFAE2997C090E401D09099
:1024A000E501E090E601F090E7018091E001909174
:1024B000E101A091E201B091E301A9968CAF9DAF3B
:1024C000AEAFBFAFA99725966CAD7DAD8EAD9FAD7C
:1024D00025970E94A4204B015C0129A93AA94BA988
:1024E0005CA969857A858B859C850E94A4209B01C7
:1024F000AC01C501B4010E943A1E4B015C01299652
:102500002CAD3DAD4EAD5FAD299769817A818B8150
:102510009C810E94A4209B01AC01C501B4010E94D2
:10252000391E4B015C01A701960165966CAD7DAD2E
:102530008EAD9FAD65970E94A4209B01AC01C501A3
:10254000B4010E943A1E6B017C012D893E894F899E
:10255000588D69857A858B859C850E94A4209B0176
:10256000AC01C701B6010E94391E6B017C012989AB
:102570003A894B895C8969857A858B859C850E941F
:10258000A4209B01AC01C701B6010E943A1E6B0159
:102590007C0129A13AA14BA15CA16D857E858F8527
:1025A00098890E94A420A9962CAD3DAD4EAD5FAD9B
:1025B000A9970E94A4209B01AC01C701B6010E940B
:1025C0003A1E6B017C0129AD3AAD4BAD5CAD69851E
:1025D0007A858B859C850E94A4209B01AC01C70154
:1025E000B6010E94391E6B017C01A3019201C30157
:1025F000B2010E94A4204B015C01A7019601C70112
:10260000B6010E94A4209B01AC01C501B4010E9447
:102610003A1E0E94172169837A838B839C832091C1
:10262000E4013091E5014091E6015091E701C0904D
:10263000E801D090E901E090EA01F090EB012996E1
:10264000CCAEDDAEEEAEFFAE2997C090E001D090EB
:10265000E101E090E201F090E3014090E001509050
:10266000E1016090E2017090E30125966CAD7DADD3
:102670008EAD9FAD259790580E94A4204B015C0120
:1026800029962CAD3DAD4EAD5FAD299761966CADF1
:102690007DAD8EAD9FAD61970E94A4209B01AC01E2
:1026A000C501B4010E943A1E4B015C0129A93AA957
:1026B0004BA95CA96D857E858F8598890E94A42091
:1026C0009B01AC01C501B4010E943A1E4B015C01A3
:1026D000A701960165966CAD7DAD8EAD9FAD6597FA
:1026E0000E94A4209B01AC01C501B4010E943A1EC6
:1026F0006B017C012D893E894F89588D6D857E85C2
:102700008F8598890E94A4209B01AC01C701B60166
:102710000E94391E6B017C0129A13AA14BA15CA149
:1027200069857A858B859C850E94A420A3019201EE
:102730000E94A4209B01AC01C701B6010E943A1E71
:102740006B017C0129893A894B895C896D857E857D
:102750008F8598890E94A4209B01AC01C701B60116
:102760000E94391E6B017C0129AD3AAD4BAD5CADC9
:102770006D857E858F8598890E94A4209B01AC0180
:10278000C701B6010E943A1E2B013C01AC019B011E
:102790000E943A1E25966CAF7DAF8EAF9FAF2597F6
:1027A000298D3A8D4B8D5C8DCA01B9010E943A1E6C
:1027B0006B017C0121962CAD3DAD4EAD5FAD2197F7
:1027C000CA01B9010E943A1EC358DF4F28813981DE
:1027D0004A815B81CD57D0400E94A4209B01AC016F
:1027E000C701B6010E94391E2DA53EA54FA558A9C7
:1027F0000E94391E69AB7AAB8BAB9CAB29A53AA57D
:102800004BA55CA5CA01B9010E943A1ECF57DF4F04
:10281000288139814A815B81C158D0400E94A4201F
:102820006B017C012DA13EA14FA158A5CA01B901A0
:102830000E943A1E9B01AC01C701B6010E943A1EDC
:102840002DA93EA94FA958AD0E94391E21966CAF03
:102850007DAF8EAF9FAF2197C090E401D090E5018E
:10286000E090E601F090E701C9A6DAA6EBA6FCA687
:1028700029893A894B895C8960E070E080E09FE3B8
:102880000E94391E29AD3AAD4BAD5CAD0E94391E98
:1028900029813A814B815C810E94A4206B017C01DB
:1028A000ED962CAD3DAD4EAD5FADED97698D7A8D5A
:1028B0008B8D9C8D0E94391EA30192010E94A42041
:1028C0009B01AC01C701B6010E943A1E2D813E81D9
:1028D0004F8158850E94391E6D837E838F83988730
:1028E00029813A814B815C81505829AF3AAF4BAF77
:1028F0005CAF8090E0019090E101A090E201B09087
:10290000E301C090E801D090E901E090EA01F09085
:10291000EB01CDA6DEA6EFA6F8AACF56DF4F2881A1
:1029200039814A815B81C159D040C357DF4F6881EB
:1029300079818A819B81CD58D0400E94A4206B016F
:102940007C01C757DF4F288139814A815B81C95893
:10295000D040CB57DF4F688179818A819B81C558F0
:10296000D0400E94A4209B01AC01C701B6010E9487
:10297000391E29813A814B815C810E94A4206B0120
:102980007C01C756DF4F288139814A815B81C95953
:10299000D040CB56DF4F688179818A819B81C559B0
:1029A000D0400E94A4202DA13EA14FA158A50E9475
:1029B0003A1EA30192010E94A4209B01AC01C70111
:1029C000B6010E943A1E29853A854B855C850E9496
:1029D000391E69877A878B879C87C090E401D090E5
:1029E000E501E090E601F090E701CDA2DEA2EFA2C2
:1029F000F8A62D893E894F89588D60E070E080E00F
:102A00009FE30E94391E29893A894B895C890E947B
:102A1000391EA30192010E94A4206B017C01298D23
:102A20003A8D4B8D5C8DED966CAD7DAD8EAD9FADD1
:102A3000ED970E943A1E29813A814B815C810E9468
:102A4000A4209B01AC01C701B6010E943A1E2D854E
:102A50003E854F8558890E94391E6D877E878F87F6
:102A6000988B69A17AA18BA19CA1905829A93AA918
:102A70004BA95CA90E94A4206B017C0121962CAD7E
:102A80003DAD4EAD5FAD21976D8D7E8D8F8D98A143
:102A90000E94A4209B01AC01C701B6010E943A1E0E
:102AA0006B017C0129A53AA54BA55CA5C301B20128
:102AB0000E94A4202D813E814F8158850E94A42030
:102AC0009B01AC01C701B6010E94391E6B017C015C
:102AD000A501940169AD7AAD8BAD9CAD0E94A42097
:102AE0004B015C012DA53EA54FA558A9C301B2011C
:102AF0000E94A4209B01AC01C501B4010E943A1EB2
:102B000029853A854B855C850E94A4209B01AC01F8
:102B1000C701B6010E943A1E6B017C012DA13EA1A6
:102B20004FA158A569817A818B819C810E94A42044
:102B30002D853E854F8558890E94A4209B01AC01BC
:102B4000C701B6010E943A1E698F7A8F8B8F9C8FC6
:102B5000C090E801D090E901E090EA01F090EB012B
:102B6000CDA2DEA2EFA2F8A62D893E894F89588D0D
:102B7000CA01B9010E943A1E9B01AC0160E070E0FD
:102B800080E89FE30E94391E6B017C0129893A8904
:102B90004B895C89CA01B9010E943A1E9B01AC01B4
:102BA000C701B6010E94391E2D962CAD3DAD4EAD2C
:102BB0005FAD2D970E94391E6D8B7E8B8F8B988F0A
:102BC000C090E001D090E101E090E201F090E301DB
:102BD0002091E4013091E5014091E6015091E70137
:102BE000298B3A8B4B8B5C8B80910801909109016A
:102BF000A0910A01B0910B0189A79AA7ABA7BCA726
:102C00002091E0013091E1014091E2015091E30116
:102C10002DA73EA74FA758AB8091E8019091E901FD
:102C2000A091EA01B091EB018DAB9EABAFABB8AF19
:102C300029A93AA94BA95CA9E9966CAD7DAD8EADE9
:102C40009FADE9970E94A4204B015C0121962CAD19
:102C50003DAD4EAD5FAD2197E5966CAD7DAD8EADD2
:102C60009FADE5970E94A4209B01AC01C501B40172
:102C70000E943A1E4B015C0120E030E040E850E445
:102C80006DA17EA18FA198A50E94A4202D893E89C7
:102C90004F89588D0E94A4209B01AC01C501B4014D
:102CA0000E94391E4B015C01A7019601C301B201CC
:102CB0000E94A4202D813E814F8158850E94A4202E
:102CC0009B01AC01C501B4010E943A1E6B017C015D
:102CD00029893A894B895C8969817A818B819C81B8
:102CE0000E94A4204B015C0129A53AA54BA55CA537
:102CF000C301B2010E94A4209B01AC01C501B40133
:102D00000E943A1E29853A854B855C850E94A42045
:102D10009B01AC01C701B6010E943A1E6B017C0108
:102D20002DA53EA54FA558A969817A818B819C81EB
:102D30000E94A4204B015C012DA93EA94FA958ADCA
:102D400025966CAD7DAD8EAD9FAD25970E94A420DC
:102D50009B01AC01C501B4010E94391E2D853E8541
:102D60004F8558890E94A4209B01AC01C701B60180
:102D70000E943A1E698B7A8B8B8B9C8BC090E401EE
:102D8000D090E501E090E601F090E701C9A6DAA64F
:102D9000EBA6FCA629813A814B815C81CA01B9016D
:102DA0000E943A1E9B01AC0150582DA33EA34FA395
:102DB00058A7C090E401D090E501E090E601F090C2
:102DC000E7018091080190910901A0910A01B09159
:102DD0000B018DA79EA7AFA7B8AB2091E80130915A
:102DE000E9014091EA015091EB012DAB3EAB4FABB5
:102DF00058AF8091E0019091E101A091E201B09182
:102E0000E3012D968CAF9DAFAEAFBFAF2D97209154
:102E100008013091090140910A0150910B0161961E
:102E20002CAF3DAF4EAF5FAF61978091E4019091C1
:102E3000E501A091E601B091E70165968CAF9DAFE9
:102E4000AEAFBFAF6597E5966CAD7DAD8EAD9FAD76
:102E5000E597905829A93AA94BA95CA90E94A420FA
:102E60004B015C0121962CAD3DAD4EAD5FAD219780
:102E7000E9966CAD7DAD8EAD9FADE9970E94A42023
:102E80009B01AC01C501B4010E943A1E4B015C01DB
:102E900020E030E040E850E469A57AA58BA59CA528
:102EA0000E94A4202D893E894F89588D0E94A4201C
:102EB0009B01AC01C501B4010E94391E4B015C01AC
:102EC000A70196016DA17EA18FA198A50E94A420C3
:102ED0006B017C012DA53EA54FA558A9C301B201E8
:102EE0000E94A4209B01AC01C701B6010E94391EBB
:102EF0002D813E814F8158850E94A4209B01AC0109
:102F0000C501B4010E943A1E6B017C012DA93EA9A6
:102F10004FA958AD69817A818B819C810E94A42040
:102F20004B015C012D962CAD3DAD4EAD5FAD2D97A7
:102F3000C301B2010E94A4209B01AC01C501B401F0
:102F40000E943A1E29853A854B855C850E94A42003
:102F50009B01AC01C701B6010E943A1E6B017C01C6
:102F600061962CAD3DAD4EAD5FAD619769817A81C3
:102F70008B819C810E94A4204B015C0165962CAD45
:102F80003DAD4EAD5FAD659725966CAD7DAD8EAD1B
:102F90009FAD25970E94A4209B01AC01C501B401FF
:102FA0000E94391E2D853E854F8558890E94A42098
:102FB0009B01AC01C701B6010E943A1E6D8B7E8B4E
:102FC0008F8B988F2091E0013091E1014091E201D7
:102FD0005091E301C090E801D090E901E090EA014E
:102FE000F090EB01C9A6DAA6EBA6FCA6C0900801FA
:102FF000D0900901E0900A01F0900B018091E4016A
:103000009091E501A091E601B091E7018DA79EA7FF
:10301000AFA7B8AB8091E8019091E901A091EA01D6
:10302000B091EB018DAB9EABAFABB8AF6DA17EA104
:103030008FA198A50E94A4204B015C0129A53AA567
:103040004BA55CA5C301B2010E94A4209B01AC0169
:10305000C501B4010E943A1E2D813E814F815885E1
:103060000E94A4204B015C0129A93AA94BA95CA9A3
:103070006D8D7E8D8F8D98A10E94A4206D837E839F
:103080008F83988721962CAD3DAD4EAD5FAD2197D6
:1030900069A17AA18BA19CA10E94A4209B01AC01F3
:1030A0006D817E818F8198850E943A1E9B01AC01C3
:1030B000C501B4010E943A1E4B015C01A7019601B3
:1030C00069AD7AAD8BAD9CAD0E94A4206B017C01F3
:1030D0002DA53EA54FA558A9C301B2010E94A42069
:1030E0009B01AC01C701B6010E943A1E29853A85B1
:1030F0004B855C850E94A4209B01AC01C501B401F5
:103100000E943A1E6B017C012DA93EA94FA958AD22
:1031100069817A818B819C810E94A4202D853E85C6
:103120004F8558890E94A4209B01AC01C701B601BC
:103130000E943A1E4B015C01298D3A8D4B8D5C8DAE
:10314000CA01B9010E94A4206B017C0129893A8936
:103150004B895C89CA01B9010E94A4209B01AC0182
:10316000C701B6010E943A1E6B017C012D893E8980
:103170004F89588DCA01B9010E94A4209B01AC015E
:10318000C701B6010E943A1E6B017C01A5019401A2
:10319000C501B4010E94A4209B01AC01C701B60186
:1031A0000E943A1E6B017C01F594E794D794C79472
:1031B0002FED39E547E35FE52C193D094E095F091D
:1031C00069017A0120E030E040E05FE30E94A42042
:1031D000A70196010E94A420A70196010E94A420A5
:1031E0009B01AC0160E070E080EC9FE30E94391E1F
:1031F000A70196010E94A4206B017C01409004016C
:10320000509005016090060170900701AC019B0190
:10321000698D7A8D8B8D9C8D0E94A420A3019201D3
:103220000E94A4209B01AC0169966CAD7DAD8EAD72
:103230009FAD69970E94391E69966CAF7DAF8EAFC6
:103240009FAF69974090040150900501609006017E
:1032500070900701A701960169897A898B899C89F9
:103260000E94A420A30192010E94A4209B01AC0112
:103270006D966CAD7DAD8EAD9FAD6D970E94391E84
:103280006D966CAF7DAF8EAF9FAF6D974090040190
:10329000509005016090060170900701A70196010A
:1032A0006D897E898F89988D0E94A420A301920147
:1032B0000E94A4209B01AC01A1966CAD7DAD8EADAA
:1032C0009FADA1970E94391EA1966CAF7DAF8EAFC6
:1032D0009FAFA197409004015090050160900601B6
:1032E00070900701A7019601C501B4010E94A420B6
:1032F000A30192010E94A4209B01AC01A5966CAD94
:103300007DAD8EAD9FADA5970E94391EA5966CAF81
:103310007DAF8EAF9FAFA597C0900801D0900901F7
:10332000E0900A01F0900B0120E030E040E05BE328
:1033300069966CAD7DAD8EAD9FAD69970E94A4205E
:10334000A70196010E943A1E60930801709309013B
:1033500080930A0190930B01C090E801D090E9019D
:10336000E090EA01F090EB0120E030E040E05BE328
:103370006D966CAD7DAD8EAD9FAD6D970E94A42016
:10338000A70196010E943A1E6093E8017093E9013B
:103390008093EA019093EB01C090E401D090E501A5
:1033A000E090E601F090E70120E030E040E05BE3F0
:1033B000A1966CAD7DAD8EAD9FADA1970E94A4206E
:1033C000A70196010E943A1E6093E4017093E50103
:1033D0008093E6019093E701C090E001D090E10175
:1033E000E090E201F090E30120E030E040E05BE3B8
:1033F000A5966CAD7DAD8EAD9FADA5970E94A42026
:10340000A70196010E943A1E6093E0017093E101CA
:103410008093E2019093E3016091080170910901AA
:1034200080910A0190910B012091080130910901CE
:1034300040910A0150910B018090E8019090E901C0
:10344000A090EA01B090EB014090E8015090E901B2
:103450006090EA017090EB01C090E401D090E5012A
:10346000E090E601F090E701C982DA82EB82FC820B
:10347000C090E401D090E501E090E601F090E70112
:10348000C986DA86EB86FC86C090E001D090E10127
:10349000E090E201F090E301CD86DE86EF86F88AC7
:1034A000C090E001D090E101E090E201F090E301F2
:1034B000CD82DE82EF82F8860E94A4206B017C011F
:1034C000A3019201C501B4010E94A4209B01AC019B
:1034D000C701B6010E943A1E6B017C0129853A851D
:1034E0004B855C8569817A818B819C810E94A420B7
:1034F0009B01AC01C701B6010E943A1E6B017C0121
:103500002D813E814F8158856D857E858F85988977
:103510000E94A4209B01AC01C701B6010E943A1E83
:103520006B017C01F594E794D794C7942FED39E5AE
:1035300047E35FE52C193D094E095F0969017A01EE
:1035400020E030E040E05FE30E94A420A701960164
:103550000E94A420A70196010E94A4209B01AC0117
:1035600060E070E080EC9FE30E94391EA7019601A5
:103570000E94A4206B017C016091080170910901F7
:1035800080910A0190910B01A70196010E94A4204D
:10359000609308017093090180930A0190930B01D5
:1035A0006091E8017091E9018091EA019091EB014D
:1035B000A70196010E94A4206093E8017093E9019D
:1035C0008093EA019093EB016091E4017091E50131
:1035D0008091E6019091E701A70196010E94A42045
:1035E0006093E4017093E5018093E6019093E70115
:1035F0006091E0017091E1018091E2019091E3011D
:10360000A70196010E94A4206093E0017093E1015C
:103610008093E2019093E301C0906F03D090700318
:10362000E0907103F09072038090730390907403A4
:10363000A0907503B0907603609177037091780342
:103640008091790390917A039B01AC010E94A420A0
:103650002B013C01A5019401C501B4010E94A420E5
:10366000A30192010E943A1E0E9417219B01AC0106
:10367000C701B6010E941D1F0E94E91E69837A835B
:103680008B839C836093A3037093A4038093A5030F
:103690009093A603A7019601C701B6010E94A4203A
:1036A000A30192010E943A1E0E9417219B01AC01C6
:1036B000C501B4010E941D1F0E94E91E60939F0373
:1036C0007093A0038093A1039093A20320E030E0C5
:1036D00044E353E40E94A4202BED3FE049E450E48E
:1036E0000E941D1F6093A7037093A8038093A903F2
:1036F0009093AA0320E030E044E353E469817A81A7
:103700008B819C810E94A4202BED3FE049E450E492
:103710000E941D1F90586093AB037093AC0380937D
:10372000AD039093AE0380908B0390908C03A09098
:103730008D03B0908E03C0908703D0908803E090F3
:103740008903F0908A0320E030E0A901C501B401AB
:103750000E94181F811174C120E030E0A901C70147
:10376000B6010E94181F87FF67C180E090E0A4E3C4
:10377000B3E48093AF039093B003A093B103B093ED
:10378000B20325E63FEF4BE75EE36091AF03709134
:10379000B0038091B1039091B2030E94391E6B0176
:1037A0007C012BED3FE049E450E40E94972018167D
:1037B0000CF055C12BED3FE049EC50E4C701B601D8
:1037C0000E94391E6093AF037093B0038093B103DE
:1037D0009093B20368C18AE60E9460058F3F980704
:1037E00009F4AAC1873D910551F482E090E030E0F0
:1037F00020E00C94E10A82E090E00C94DF0A81E082
:1038000090E0F5CF90E080E00C94DF0A89E621306B
:10381000310511F40C94EF0A88E60C94EF0A6FE07E
:1038200070E08EE10E943E05CC9709F0ECC121E0EA
:1038300030E082E090E0B1C188E12130310509F447
:1038400089E1809338038EE18093390383E090E02F
:1038500090933D0380933C0384E090E090933F037A
:1038600080933E0387E090E0909341038093400370
:1038700088E090E0909343038093420385E090E0DA
:10388000909345038093440386E090E09093470330
:10389000809346030C94340B0E94B600C82E0E94FD
:1038A000B600B82E0E94B600E82E0E94B600D82EB0
:1038B0000E94B600F82E0E94B600AB96BFAEAB9742
:1038C000AA961FAEAA97AB962EAD3FADAB972C290B
:1038D0003093110320931003AD96DFAEAD97AC96F5
:1038E0001FAEAC97AD962EAD3FADAD972E29309360
:1038F000130320931203AF968FAFAF97AE961FAE10
:10390000AE97AF968EAD9FADAF978F29909315036D
:10391000809314030C94830B8091360390913703AA
:10392000039729F50E94B600D82E0E94B600A82E53
:103930000E94B600B82E0E94B600E82E0E94B60083
:10394000C82E0E94B600F82E9A2D8D2D9093240338
:10395000809323039E2D8B2D909326038093250324
:10396000DF2CD0922803C09227030C94C50B0E9431
:10397000B600A82E0E94B600D82E809136039091F2
:103980003703892B69F40E94B600E82E0E94B60026
:10399000B82E0E94B600F82E0E94B600C82ED4CFD2
:1039A0000E94B600F82E0E94B600C82E0E94B600F3
:1039B000E82E0E94B600B82EC7CF0E94B600C82ECF
:1039C0000E94B600B82E0E94B600E82E0E94B600F3
:1039D000D82E0E94B600F82E0E94B600E196BFAE27
:1039E000E197E0961FAEE097E1962EAD3FADE197EF
:1039F0002C2930931E0320931D033D2C212C910173
:103A00002E293093200320931F03C256DF4F888353
:103A1000CE59D040C356DF4F1882CD59D040C3563F
:103A2000DF4F88819981CD59D0408F29909322030F
:103A3000809321030C94F90B80E090E0DC0199CE97
:103A4000A5019401C701B6010E94B91E6093AF039E
:103A50007093B0038093B1039093B20392CE2BED99
:103A60003FE049E450ECC701B6010E94181F87FFF0
:103A700009C02BED3FE049EC50E4C701B6010E94BC
:103A80003A1EA0CE20E030E0A901C701B6010E9495
:103A9000181F87FDEECFC092AF03D092B003E09223
:103AA000B103F092B20320EE3EE245E652E46091AB
:103AB000AF037091B0038091B1039091B2030E9463
:103AC000A4206093AF037093B0038093B1039093ED
:103AD000B20388E491E00E947E056091AF0370918B
:103AE000B0038091B1039091B20342E00E94CF05F0
:103AF0008CE591E00E947E056091A7037091A80378
:103B00008091A9039091AA0342E00E94CF058EE61E
:103B100091E00E947E056091AB037091AC038091AF
:103B2000AD039091AE0342E00E94CF058FE791E094
:103B30000E947E050C94510B89E60E946005833D2E
:103B4000910509F45FCE88E60E946005833D9105EA
:103B500011F00C94F10A90E080E049CE60E270E050
:103B600089E10E943E05019609F059CE60E270E0BD
:103B700088E10E943E05019611F40C94340B6FE02D
:103B800070E08EE10E943E0531E020E0CC9709F024
:103B900030E0832F922F30E020E090933703809322
:103BA00036038130910509F447CE029709F448CED7
:103BB00089E12130310509F088E1809338038EE1F5
:103BC0008093390383E090E090933D0380933C031E
:103BD00084E090E090933F0380933E0385E090E083
:103BE000909341038093400386E090E090934303D9
:103BF0008093420387E090E09093450380934403D1
:103C000088E090E043CE21E030E090E080E0C5CF56
:103C100083E090E090933703809336038DE10C941A
:103C20000C0BA1E21A2EAA1BBB1BFD010DC0AA1F83
:103C3000BB1FEE1FFF1FA217B307E407F50720F015
:103C4000A21BB30BE40BF50B661F771F881F991F90
:103C50001A9469F760957095809590959B01AC01D9
:103C6000BD01CF010895EE0FFF1F0590F491E02DE7
:103C700009945058BB27AA270E94511E0C945D201E
:103C80000E944F2038F00E94562020F039F49F3FC8
:103C900019F426F40C9425200EF4E095E7FB0C941F
:103CA0001F20E92F0E946E2058F3BA17620773078E
:103CB0008407950720F079F4A6F50C9490200EF473
:103CC000E0950B2EBA2FA02D0B01B90190010C012C
:103CD000CA01A0011124FF27591B99F0593F50F444
:103CE000503E68F11A16F040A22F232F342F44279C
:103CF000585FF3CF469537952795A795F040539594
:103D0000C9F77EF41F16BA0B620B730B840BBAF063
:103D10009150A1F0FF0FBB1F661F771F881FC2F7CE
:103D20000EC0BA0F621F731F841F48F487957795E2
:103D30006795B795F7959E3F08F0B0CF9395880F9C
:103D400008F09927EE0F9795879508950E944F20C8
:103D500060F080E891E009F49EEF0E94562028F080
:103D600040E851E071F45EEF0CC00C9425200C94F7
:103D70009020E92FE0780E946E2040F3092E052A5A
:103D8000B1F3261737074807590738F00E2E07F802
:103D9000E02569F0E025E0640AC0EF6307F80094CD
:103DA00007FADB01B9019D01DC01CA01AD01EF9306
:103DB0000E94341F0E945D200E94E91E5F915523DE
:103DC00039F02BED3FE049E450FD49EC0C943A1EEC
:103DD0000895DF93DD27B92FBF7740E85FE316161C
:103DE000170648075B0718F4D92F0E949C209F9361
:103DF0008F937F936F930E945721E8E6F0E00E9433
:103E000028200E945D202F913F914F915F910E9449
:103E1000B720DD2351F09058A2EA2AED3FE049ECAB
:103E20005FE3D0785D270E94511EDF910C945D20E6
:103E30000E94FB1F08F481E008950E94311F0C943A
:103E40005D200E94562058F00E944F2040F029F437
:103E50005F3F29F00C941F2051110C9491200C9479
:103E600025200E946E2068F39923B1F3552391F326
:103E7000951B550BBB27AA2762177307840738F0D9
:103E80009F5F5F4F220F331F441FAA1FA9F335D036
:103E90000E2E3AF0E0E832D091505040E695001CEA
:103EA000CAF72BD0FE2F29D0660F771F881FBB1FA4
:103EB000261737074807AB07B0E809F0BB0B802D82
:103EC000BF01FF2793585F4F3AF09E3F510578F0AE
:103ED0000C941F200C9491205F3FE4F3983ED4F3A0
:103EE000869577956795B795F7959F5FC9F7880F82
:103EF000911D9695879597F90895E1E0660F771FD4
:103F0000881FBB1F621773078407BA0720F0621B64
:103F1000730B840BBA0BEE1F88F7E09508950E948F
:103F2000762088F09F5798F0B92F9927B751B0F0B5
:103F3000E1F0660F771F881F991F1AF0BA95C9F72D
:103F400014C0B13091F00E949020B1E008950C941B
:103F50009020672F782F8827B85F39F0B93FCCF3CE
:103F6000869577956795B395D9F73EF490958095AA
:103F7000709561957F4F8F4F9F4F0895E89409C0CA
:103F800097FB3EF490958095709561957F4F8F4F8C
:103F90009F4F9923A9F0F92F96E9BB279395F695A2
:103FA000879577956795B795F111F8CFFAF4BB0F20
:103FB00011F460FF1BC06F5F7F4F8F4F9F4F16C084
:103FC000882311F096E911C0772321F09EE8872F0E
:103FD000762F05C0662371F096E8862F70E060E0CA
:103FE0002AF09A95660F771F881FDAF7880F969543
:103FF000879597F90895990F0008550FAA0BE0E8E7
:10400000FEEF16161706E807F907C0F0121613069A
:10401000E407F50798F0621B730B840B950B39F4DA
:104020000A2661F0232B242B252B21F408950A2640
:1040300009F4A140A6958FEF811D811D089597F980
:104040009F6780E870E060E008959FEF80EC08953E
:10405000DF93CF931F930F93FF92EF92DF927B0139
:104060008C01689406C0DA2EEF010E94B720FE0191
:10407000E894A5912591359145915591A6F3EF01CD
:104080000E94511EFE019701A801DA9469F7DF90A2
:10409000EF90FF900F911F91CF91DF910895002431
:1040A0000A941616170618060906089500240A949D
:1040B00012161306140605060895092E0394000C23
:1040C00011F4882352F0BB0F40F4BF2B11F460FFB2
:1040D00004C06F5F7F4F8F4F9F4F089557FD9058DB
:1040E000440F551F59F05F3F71F04795880F97FBBC
:1040F000991F61F09F3F79F0879508951216130676
:104100001406551FF2CF4695F1DF08C016161706A4
:104110001806991FF1CF86957105610508940895D9
:10412000E894BB2766277727CB0197F908950E946B
:10413000FB1F08F48FEF08959B01AC0160E070E075
:1041400080E89FE30C941D1F0E94B7200C945D2013
:104150000E944F2038F00E94562020F0952311F045
:104160000C941F200C94252011240C9491200E9463
:104170006E2070F3959FC1F3950F50E0551F629F1D
:10418000F001729FBB27F00DB11D639FAA27F00DB0
:10419000B11DAA1F649F6627B00DA11D661F829FD7
:1041A0002227B00DA11D621F739FB00DA11D621FBC
:1041B000839FA00D611D221F749F3327A00D611DD9
:1041C000231F849F600D211D822F762F6A2F1124BB
:1041D0009F5750409AF0F1F088234AF0EE0FFF1FEE
:1041E000BB1F661F771F881F91505040A9F79E3F45
:1041F000510580F00C941F200C9491205F3FE4F354
:10420000983ED4F3869577956795B795F795E7959A
:104210009F5FC1F7FE2B880F911D9695879597F9A3
:10422000089519F416F40C9425200C9460210E9432
:104230007620B8F39923C9F3B6F39F57550B87FF40
:104240000E946E210024A0E640EA90018058569515
:10425000979528F4805C660F771F881F20F026173B
:104260003707480730F4621B730B840B2029312970
:104270004A2BA69517940794202531254A2758F7ED
:10428000660F771F881F20F026173707480730F47E
:10429000620B730B840B200D311D411DA09581F71E
:1042A000B901842F9158880F9695879508959B01A1
:1042B000AC010C94A4200E94FB1F880B990B08955D
:1042C0009F3F31F0915020F4879577956795B7958A
:1042D000880F911D9695879597F9089591505040B4
:0E42E000660F771F881FD2F70895F894FFCF5E
:1042EE000000803FCDCCCC3D0000803F018001809E
:1042FE000180FF7FFF7FFF7F00000000EF014F0175
:10430E007C013C02AD018B019F0100000000E60321
:10431E00B9036C04A903C900A300AA036E616E0061
:10432E00696E66006F7666002D2D2D2D2046696C08
:10433E007465726564205961773A20002046696C75
:10434E0074657265642050697463683A2000204673
:10435E00696C746572656420526F6C6C3A20000D46
:02436E000A0043
:00000001FF
