:100000000C945D000C9485000C9485000C94850084
:100010000C9485000C9485000C9485000C9485004C
:100020000C9485000C9485000C9485000C9485003C
:100030000C9485000C9485000C9485000C9485002C
:100040000C9452040C9485000C94C2040C949C04EF
:100050000C9485000C9485000C9485000C9485000C
:100060000C9437030C948500000000080002010086
:100070000003040700000000000000000000000072
:10008000250028002B0000000000240027002A0083
:10009000040404040404040402020202020203032E
:1000A0000303030301020408102040800102040836
:1000B0001020010204081020F40411241FBECFEF09
:1000C000D8E0DEBFCDBF22E0A4E2B1E001C01D92C6
:1000D000A035B207E1F711E0A0E0B1E0ECE1FDE00E
:1000E00002C005900D92A432B107D9F710E0CDE51A
:1000F000D0E004C02197FE010E948606CC35D107CE
:10010000C9F70E943D050C948C060C94000090E009
:10011000FC01EC55FF4F249180579F4FFC018491C7
:10012000882399F090E0880F991FFC01EA57FF4F50
:10013000A591B491FC01E458FF4F859194918FB73C
:10014000F894EC91E22BEC938FBF08952091540129
:10015000260F3327331F21323105ECF4209178012B
:10016000FC0190E080E0243069F082E00895A091E5
:1001700054012191AC014C5C5E4FA40FB52FB11D11
:100180002C930196861798F380915401680F609321
:10019000540180E0089581E0089508958FEF9FEF66
:1001A00008958FEF9FEF089580912D0190E0919534
:1001B000819591090895CF93DF93CB01EA01642FD4
:1001C0000E94A600CE01DF91CF910895CF93DF93D7
:1001D0001F92CDB7DEB7698361E0CE0101960E9420
:1001E000A60081E090E00F90DF91CF91089590E01C
:1001F000FC01E859FF4F2491FC01EC55FF4F34916D
:10020000FC01E057FF4FE491EE23C9F0222339F0BF
:10021000233001F1A8F4213019F1223029F1F0E066
:10022000EE0FFF1FE458FF4FA591B4918FB7F894DC
:10023000EC91611126C030953E233C938FBF089509
:100240002730A9F02830C9F0243049F78091800088
:100250008F7D03C0809180008F7780938000DFCFF7
:1002600084B58F7784BDDBCF84B58F7DFBCF809144
:10027000B0008F778093B000D2CF8091B0008F7D97
:10028000F9CF3E2BDACFAF92BF92CF92DF92EF92AF
:10029000FF920F931F93CF93DF936C017B018B0130
:1002A000040F151FEB015E01AE18BF08C017D10780
:1002B00059F06991D601ED91FC910190F081E02D0A
:1002C000C6010995892B79F7C501DF91CF911F915F
:1002D0000F91FF90EF90DF90CF90BF90AF90089577
:1002E00090E080E00895FC01538D448D252F30E08F
:1002F000842F90E0821B930B541710F0CF96089533
:1003000001970895FC01918D828D981761F0A28D5F
:10031000AE0FBF2FB11D5D968C91928D9F5F9F7325
:10032000928F90E008958FEF9FEF0895FC01918DDB
:10033000828D981731F0828DE80FF11D858D90E048
:1003400008958FEF9FEF0895FC01918D228D892FE5
:1003500090E0805C9F4F821B91098F7399270895CD
:100360008EE991E00E94A40121E0892B09F420E0AC
:10037000822F089580E090E0892B29F00E94B0013F
:1003800081110C9400000895FC01A48DA80FB92FD1
:10039000B11DA35ABF4F2C91848D90E001968F73AD
:1003A0009927848FA689B7892C93A089B1898C91CC
:1003B000837080648C93938D848D981306C002881B
:1003C000F389E02D80818F7D80830895EF92FF92E5
:1003D0000F931F93CF93DF93EC0181E0888F9B8D68
:1003E0008C8D98131AC0E889F989808185FF15C022
:1003F0009FB7F894EE89FF896083E889F989808145
:100400008370806480839FBF81E090E0DF91CF9113
:100410001F910F91FF90EF900895F62E0B8D10E035
:100420000F5F1F4F0F731127E02E8C8D8E110CC0A4
:100430000FB607FCFACFE889F989808185FFF5CFEF
:10044000CE010E94C401F1CFEB8DEC0FFD2FF11D09
:10045000E35AFF4FF0829FB7F8940B8FEA89FB892C
:1004600080818062CFCFCF93DF93EC01888D88238A
:10047000B9F0AA89BB89E889F9898C9185FD03C007
:10048000808186FD0DC00FB607FCF7CF8C9185FFEC
:10049000F2CF808185FFEDCFCE010E94C401E9CF6C
:1004A000DF91CF9108958F929F92AF92BF920F9359
:1004B0001F93CF93DF93CDB7DEB7A1970FB6F89414
:1004C000DEBF0FBECDBF19A2423008F44AE08E0154
:1004D0000F5D1F4F842E912CB12CA12CA5019401EE
:1004E0000E946406E62FB901CA01EA3044F5E05DD6
:1004F000D801EE938D01232B242B252B79F790E047
:1005000080E0109769F0FD0101900020E9F7319734
:10051000AF014A1B5B0BBD018EE991E00E944301D4
:10052000A1960FB6F894DEBF0FBECDBFDF91CF917D
:100530001F910F91BF90AF909F908F900895E95CAD
:10054000D7CFCF92DF92EF92FF92CF93DF936B01E1
:100550007C016DE28EE991E00E94E601EC016627E4
:100560007727CB016C197D098E099F094AE00E940B
:1005700053028C0F9D1FDF91CF91FF90EF90DF9082
:10058000CF9008951F93CF93DF9385ED8093BC00A8
:100590008091300190913101A0913201B0913301ED
:1005A0000796A11DB11D23E0B695A7959795879550
:1005B0002A95D1F72091BC0024FD03C01092780148
:1005C00052C04091300150913101609132017091DF
:1005D0003301452B462B472B69F30097A105B10545
:1005E00041F025E32A95F1F700000197A109B1092F
:1005F000E1CF80912F01C1E0C0932E01882399F1B2
:10060000D091B8001091BA008091BC008A7B809391
:10061000BC0060E082E10E94F70060E083E10E949C
:10062000F70010927801C0937A011092790161E08D
:1006300082E10E94F70061E083E10E94F70080916F
:10064000B9008E7F8093B9008091B9008D7F80932F
:10065000B90088E48093B80085E48093BC001093CF
:10066000BA00D093B800DF91CF911F9108951F92E7
:100670000F920FB60F9211242F933F934F935F93D6
:100680006F937F938F939F93AF93BF93EF93FF935A
:100690008091B900887F803609F44AC0F0F588322D
:1006A00009F4A5C018F5803109F499C0B8F488237D
:1006B00009F4F5C0883009F492C0FF91EF91BF9121
:1006C000AF919F918F917F916F915F914F913F91EA
:1006D0002F910F900FBE0F901F901895883109F43D
:1006E00086C0803251F78093770114C0803409F4BA
:1006F0009BC040F48033B9F38833F9F680937701D7
:1007000085ECAEC0803509F483C0883509F494C007
:10071000883499F60E94C202D0CF883909F48AC081
:1007200038F5883729F050F4883611F0803729F6EB
:1007300083E0809378011092760155C0883809F4DF
:1007400079C0803919F0803809F0B7CF80917601EF
:10075000803208F06FC0E091760181E08E0F8093C7
:1007600076018091BB00F0E0EA5AFE4F80833BC0E7
:10077000803B39F0D0F4803A09F477C0883A09F028
:100780009CCF84E08093780110925501109254011F
:10079000F0E0E0E009958091540181110FC081E003
:1007A000809354011092340109C0803C09F4A8CF11
:1007B000883C09F4A5CF883B09F07FCFE091550133
:1007C00081E08E0F80935501F0E0EC5CFE4F80815C
:1007D0008093BB00909155018091540129C0809174
:1007E0009D018093BB0085EC8093BC0066CF909107
:1007F0009C0180919B01981758F5E0919C0181E044
:100800008E0F80939C01F0E0E558FE4F8081E9CF88
:10081000E0919C0181E08E0F80939C018091BB0050
:10082000F0E0E558FE4F808390919C0180919B0100
:100830009817C8F285E8D8CFE0919C0181E08E0F2F
:1008400080939C018091BB00F0E0E558FE4F8083CF
:1008500080917A0181115ECF81E08093790184EAF1
:100860008093BC001092780128CF85EC8093BC0067
:100870001092780180917601803230F4E091760117
:10088000F0E0EA5AFE4F10826091760170E086E552
:1008900091E0F0E0E0E00995109276010ECF109221
:1008A000770138CF1F920F920FB60F9211242F931A
:1008B0003F938F939F93AF93BF9380912901909122
:1008C0002A01A0912B01B0912C013091280123E045
:1008D000230F2D3758F50196A11DB11D2093280136
:1008E0008093290190932A01A0932B01B0932C01AE
:1008F0008091240190912501A0912601B0912701BA
:100900000196A11DB11D8093240190932501A09310
:100910002601B0932701BF91AF919F918F913F9195
:100920002F910F900FBE0F901F90189526E8230F60
:100930000296A11DB11DD2CF1F920F920FB60F923A
:1009400011242F933F934F935F936F937F938F93D4
:100950009F93AF93BF93EF93FF938EE991E00E9433
:10096000C401FF91EF91BF91AF919F918F917F91C2
:100970006F915F914F913F912F910F900FBE0F900C
:100980001F9018951F920F920FB60F9211242F935C
:100990008F939F93EF93FF93E091AE01F091AF019E
:1009A0008081E091B401F091B50182FD1BC090817E
:1009B0008091B7018F5F8F732091B801821741F04A
:1009C000E091B701F0E0E256FE4F958F8093B701BA
:1009D000FF91EF919F918F912F910F900FBE0F90EC
:1009E0001F9018958081F4CFABE3B2E013961C9270
:1009F0001E92129748EE53E060E070E014964D931B
:100A00005D936D937C93179784E091E011969C938E
:100A10008E93EEE9F1E0138212824483558366835C
:100A2000778386E191E09183808385EC90E09587E0
:100A3000848784EC90E09787868780EC90E0918BA8
:100A4000808B81EC90E0938B828B82EC90E0958B95
:100A5000848B86EC90E0978B868B118E128E138E92
:100A6000148EE7E4F2E0B283A18389E283831482E7
:100A700015821782168210860895CF93DF9300D0D7
:100A800000D01F92CDB7DEB7789484B5826084BD64
:100A900084B5816084BD85B5826085BD85B5816082
:100AA00085BD80916E00816080936E001092810000
:100AB00080918100826080938100809181008160BB
:100AC000809381008091800081608093800080917C
:100AD000B10084608093B1008091B0008160809308
:100AE000B00080917A00846080937A0080917A00CF
:100AF000826080937A0080917A00816080937A008E
:100B000080917A00806880937A001092C10082E020
:100B10000E94870085E00E94870084E00E94870091
:100B200087E00E948700E091AE01F091AF0182E082
:100B30008083E091AA01F091AB011082E091AC01B9
:100B4000F091AD018FEC80831092B601E091B2017B
:100B5000F091B30186E08083E091B001F091B101A2
:100B6000808180618083E091B001F091B10180814A
:100B700088608083E091B001F091B101808180684C
:100B80008083E091B001F091B10180818F7D8083FD
:100B90008EE991E00E9482018630D1F766E08EE90D
:100BA00091E00E94E6015E0186E0A80EB11C80E0A3
:100BB000C82E80E0D82E8EE991E00E94A40118167C
:100BC00019060CF06BC08EE991E00E948201813021
:100BD00009F064C08EE991E00E9482018EE991E003
:100BE0000E9482018E010F5F1F4F78012FB7F8948A
:100BF0008091290190912A01A0912B01B0912C01A3
:100C00002FBF8093A6019093A701A093A801B09352
:100C1000A9018EE991E00E94820197FF4BC02FB796
:100C2000F8948091290190912A01A0912B01B09113
:100C30002C012FBF4091A6015091A7016091A801FE
:100C40007091A901841B950BA60BB70B4091A201D3
:100C50005091A3016091A4017091A501841795079B
:100C6000A607B707B0F24AE061E070E080E090E0EC
:100C70000E9453027801F6E0EF0EF11CF801619139
:100C80008F018EE991E00E94E6010E151F05B1F774
:100C90004AE060E070E0CB010E945302C114D1042D
:100CA00009F489CF0E94B001882309F484CF0E94FF
:100CB000000081CF0097B9F2F70181937F01AE1652
:100CC000BF0609F093CFCFCFA1E21A2EAA1BBB1B00
:100CD000FD010DC0AA1FBB1FEE1FFF1FA217B30708
:100CE000E407F50720F0A21BB30BE40BF50B661F1E
:100CF000771F881F991F1A9469F7609570958095E2
:100D000090959B01AC01BD01CF010895EE0FFF1F2F
:0C0D10000590F491E02D0994F894FFCFB9
:100D1C0000000000E600DB007001CD00D400D10023
:100D2C00CE0000000000E601430173013302A40170
:040D3C008201960199
:00000001FF
