:100000000C945D000C9485000C9485000C94850084
:100010000C9485000C9485000C9485000C9485004C
:100020000C9485000C9485000C9485000C94E507D5
:100030000C9485000C9485000C9485000C9485002C
:100040000C9443070C9485000C94B3070C948D0713
:100050000C9485000C9485000C9485000C9485000C
:100060000C9428060C948500000000080002010092
:100070000003040700000000000000000000000072
:10008000250028002B0000000000240027002A0083
:10009000040404040404040402020202020203032E
:1000A0000303030301020408102040800102040836
:1000B00010200102040810203F0811241FBECFEFBA
:1000C000D8E0DEBFCDBF11E0A0E0B1E0E2EDFFE19E
:1000D00002C005900D92A03FB107D9F724E0A0EF30
:1000E000B1E001C01D92A532B207E1F710E0CDE505
:1000F000D0E004C02197FE010E949E0DCC35D107AF
:10010000C9F70E94CE080C94E70F0C94000090E011
:10011000FC01EC55FF4F249180579F4FFC018491C7
:10012000882399F090E0880F991FFC01EA57FF4F50
:10013000A591B491FC01E458FF4F859194918FB73C
:10014000F894EC91E22BEC938FBF089590E0FC01C2
:10015000E859FF4F2491FC01EC55FF4F3491FC010D
:10016000E057FF4FE491EE23C9F0222339F023300A
:1001700001F1A8F4213019F1223029F1F0E0EE0F5D
:10018000FF1FE458FF4FA591B4918FB7F894EC91FD
:10019000611126C030953E233C938FBF08952730D0
:1001A000A9F02830C9F0243049F7809180008F7D74
:1001B00003C0809180008F7780938000DFCF84B56B
:1001C0008F7784BDDBCF84B58F7DFBCF8091B0006E
:1001D0008F778093B000D2CF8091B0008F7DF9CF20
:1001E0003E2BDACF8EBD00000DB407FEFDCF8EB5DD
:1001F00008950F931F93CF93C82F8B0160E00E9447
:10020000A6008FE80E94F20080E00E94F200F80150
:10021000808361E08C2F0E94A60081E0CF911F9126
:100220000F9108951F93CF93DF93C1E0C09306020F
:10023000882399F1D091B8001091BA008091BC0048
:100240008A7B8093BC0060E082E10E94A60060E0AF
:1002500083E10E94A60010929202C0939102109234
:100260006C0261E082E10E94A60061E083E10E94ED
:10027000A6008091B9008E7F8093B9008091B9006B
:100280008D7F8093B90088E48093B80085E48093E3
:10029000BC001093BA00D093B800DF91CF911F91AA
:1002A000089520912702260F3327331F213231056D
:1002B000ECF420919202FC0190E080E0243069F09F
:1002C00082E00895A09127022191AC01495F5D4F22
:1002D000A40FB52FB11D2C930196861798F380912A
:1002E0002702680F6093270280E0089581E0089557
:1002F0000895E0914B0280914A02E81730F4F0E053
:10030000E45BFD4F808190E008958FEF9FEF0895AB
:1003100090914B0280914A022FEF3FEF981748F4DB
:10032000E92FF0E0E45BFD4F208130E09F5F909388
:100330004B02C901089580914A0290914B02891B9A
:10034000990B0895CF92DF92EF92FF920F931F9334
:10035000CF93DF937C01CB018A0120919802222365
:1003600089F0EB016B01C40ED51ECC15DD0569F0DB
:100370006991D701ED91FC910190F081E02DC701C9
:100380000995F3CF642F0E945101C801DF91CF91ED
:100390001F910F91FF90EF90DF90CF900895CF9332
:1003A000DF931F92CDB7DEB7698320919802222395
:1003B000F9F02091BB02203258F021E030E0FC013E
:1003C0003383228390E080E00F90DF91CF910895F6
:1003D00080919902E82FF0E0E656FD4F99819083D5
:1003E0008F5F809399028093BB0281E090E0ECCF15
:1003F00061E0CE0101960E945101F7CF3FB7F8941A
:100400008091020290910302A0910402B091050232
:1004100026B5A89B05C02F3F19F00196A11DB11D5F
:100420003FBFBA2FA92F982F8827BC01CD01620F9B
:10043000711D811D911D42E0660F771F881F991F56
:100440004A95D1F708958F929F92AF92BF92CF9223
:10045000DF92EF92FF920F931F93CF93DF93D09190
:10046000BB02D13208F0D7C0182FC091BA020E9447
:10047000FE016B017C018091920281116BC082E0D0
:1004800080939202109391028FEF809390021092CA
:100490008F02D0938E02AAE9B2E0EEE6F2E080E0AD
:1004A000D81391C010926D0280916D02CC0FC82BB1
:1004B000C0936D0280916C02813009F088C0109267
:1004C0006C020E94FE016B017C0180916D028093A1
:1004D000BB008091940290919502A0919602B091F8
:1004E0009702892B8A2B8B2BA1F00E94FE01009191
:1004F00094021091950220919602309197026C1906
:100500007D098E099F09061717072807390708F480
:1005100042C08091BC0083FDD8CF85EC8093BC00A5
:100520000E94FE016B017C0180919202823009F4ED
:1005300050C0809190028F3F09F46FC0809190026B
:10054000803209F46CC080919002803309F469C054
:1005500084E026C08091940290919502A091960229
:10056000B0919702892B8A2B8B2B09F484CF0E94A0
:10057000FE018090940290909502A0909602B09017
:1005800097026C197D098E099F0986169706A806A1
:10059000B90608F070CF809193020E94120185E0A5
:1005A000109299021092BB0210929802DF91CF91A3
:1005B0001F910F91FF90EF90DF90CF90BF90AF9081
:1005C0009F908F9008959D9191938F5F69CF85EE55
:1005D000A5CF8091940290919502A0919602B0913E
:1005E0009702892B8A2B8B2B09F49ECF0E94FE0148
:1005F00000919402109195022091960230919702F9
:100600006C197D098E099F090617170728073907F6
:1006100008F08ACFC0CF81E0C3CF80E0C1CF82E0B5
:10062000BFCF83E0BDCF1F93CF93DF93142FC9E5D6
:10063000D3E0AB81BC8191E0909398028093BA02A1
:10064000109299021092BB02ED91FC9111970190CA
:10065000F081E02DCD0109958B819C81DC01ED912C
:10066000FC910190F081E02D612F099581E0DF91EF
:10067000CF911F910C9423021F93CF93DF93462FAA
:1006800090915903913041F4682F8091CB03DF9111
:10069000CF911F910C941303911115C0C62FD82F21
:1006A0001091CB0360E0812F0E94A6008D2F0E9445
:1006B000F2008C2F0E94F20061E0812FDF91CF9138
:1006C0001F910C94A600DF91CF911F9108951F9365
:1006D000CF93DF93462F90915903913041F4682FC7
:1006E0008091CA03DF91CF911F910C941303911154
:1006F00015C0C62FD82F1091CA0360E0812F0E9429
:10070000A6008D2F0E94F2008C2F0E94F20061E063
:10071000812FDF91CF911F910C94A600DF91CF9193
:100720001F910895AF92BF92CF92DF92EF92FF9206
:100730000F931F93CF93DF936C017B018B01040F09
:10074000151FEB015E01AE18BF08C017D10759F0A5
:100750006991D601ED91FC910190F081E02DC601E7
:100760000995892B79F7C501DF91CF911F910F91E1
:10077000FF90EF90DF90CF90BF90AF90089590E002
:1007800080E00895FC01538D448D252F30E0842FA7
:1007900090E0821B930B541710F0CF9608950197A9
:1007A0000895FC01918D828D981761F0A28DAE0F96
:1007B000BF2FB11D5D968C91928D9F5F9F73928F1D
:1007C00090E008958FEF9FEF0895FC01918D828D49
:1007D000981731F0828DE80FF11D858D90E0089516
:1007E0008FEF9FEF0895FC01918D228D892F90E06E
:1007F000805C9F4F821B91098F73992708958CEB22
:1008000092E00E94F30321E0892B09F420E0822F7B
:10081000089580E090E0892B29F00E94FF03811168
:100820000C9400000895FC01A48DA80FB92FB11DF0
:10083000A35ABF4F2C91848D90E001968F73992716
:10084000848FA689B7892C93A089B1898C918370F4
:1008500080648C93938D848D981306C00288F389ED
:10086000E02D80818F7D80830895EF92FF920F931A
:100870001F93CF93DF93EC0181E0888F9B8D8C8D4C
:1008800098131AC0E889F989808185FF15C09FB740
:10089000F894EE89FF896083E889F9898081837003
:1008A000806480839FBF81E090E0DF91CF911F91B2
:1008B0000F91FF90EF900895F62E0B8D10E00F5FD3
:1008C0001F4F0F731127E02E8C8D8E110CC00FB6A9
:1008D00007FCFACFE889F989808185FFF5CFCE0141
:1008E0000E941304F1CFEB8DEC0FFD2FF11DE35AA5
:1008F000FF4FF0829FB7F8940B8FEA89FB898081C4
:100900008062CFCFCF93DF93EC01888D8823B9F03D
:10091000AA89BB89E889F9898C9185FD03C080810A
:1009200086FD0DC00FB607FCF7CF8C9185FFF2CF87
:10093000808185FFEDCFCE010E941304E9CFDF91C6
:10094000CF910895FC0101900020E9F73197AF01A4
:10095000481B590BBC018CEB92E00C9492038F92D4
:100960009F92AF92BF920F931F93CF93DF93CDB718
:10097000DEB7A1970FB6F894DEBF0FBECDBF19A2A8
:10098000423008F44AE08E010F5D1F4F842E912CF7
:10099000B12CA12CA50194010E94540DE62FB901A0
:1009A000CA01EA30F4F4E05DD801EE938D01232B07
:1009B000242B252B79F790E080E0109719F0CD01DA
:1009C0000E94A204A1960FB6F894DEBF0FBECDBF61
:1009D000DF91CF911F910F91BF90AF909F908F901B
:1009E0000895E95CE1CFCF93DF930E94A204EC016C
:1009F00080E291E00E94A2048C0F9D1FDF91CF91B5
:100A00000895CF92DF92EF92FF920F931F93CF93AF
:100A1000C82F80915C0390915D0321E020939802A0
:100A2000C093BA02109299021092BB02DC01ED91C0
:100A3000FC910190F081E02D6FE0099580E00E942B
:100A400023020E94FE016B017C01809192028111C0
:100A500064C081E080939202809391029FEF909313
:100A6000900210928F0210928E0280936D028091FC
:100A70006D02CC0FC82BC0936D0280916C02813047
:100A800009F088C010926C020E94FE016B017C018B
:100A900080916D028093BB008091940290919502A9
:100AA000A0919602B0919702892B8A2B8B2BA1F0F3
:100AB0000E94FE01009194021091950220919602ED
:100AC000309197026C197D098E099F090617170747
:100AD0002807390708F442C08091BC0083FDD8CFB5
:100AE00085EC8093BC000E94FE016B017C0180912B
:100AF0009202813009F450C080918F0281116EC042
:100B000080918F02EEE6F2E0ACE4B2E090E098175C
:100B100051F121912D939F5FFACF80919402909192
:100B20009502A0919602B0919702892B8A2B8B2B6C
:100B300009F48BCF0E94FE0100919402109195025E
:100B400020919602309197026C197D098E099F09B8
:100B5000061717072807390708F077CF8091930207
:100B60000E94120180E010924B0280934A02809111
:100B70005C0390915D03DC01ED91FC910284F385AF
:100B8000E02D0995CF911F910F91FF90EF90DF908D
:100B9000CF90089585EEA5CF809194029091950213
:100BA000A0919602B0919702892B8A2B8B2B09F486
:100BB0009ECF0E94FE010091940210919502209117
:100BC0009602309197026C197D098E099F090617CC
:100BD00017072807390708F08ACFC0CF81E092CFE6
:100BE00085ED8093BC008091940290919502A09134
:100BF0009602B09197020796A11DB11D23E0B6950C
:100C0000A795979587952A95D1F72091BC0024FD4B
:100C100003C010929202089540919402509195025F
:100C20006091960270919702452B462B472B69F3F2
:100C30000097A105B10541F025E32A95F1F70000E1
:100C40000197A109B109E1CF809193020C9412019F
:100C50001F920F920FB60F9211242F933F934F9331
:100C60005F936F937F938F939F93AF93BF93EF9314
:100C7000FF938091B900887F803609F44AC0F0F56F
:100C8000883209F4A5C018F5803109F499C0B8F488
:100C9000882309F4F5C0883009F492C0FF91EF91E0
:100CA000BF91AF919F918F917F916F915F914F9184
:100CB0003F912F910F900FBE0F901F901895883184
:100CC00009F486C0803251F78093900214C08034BA
:100CD00009F49BC040F48033B9F38833F9F680936C
:100CE000900285ECAEC0803509F483C0883509F4E4
:100CF00094C0883499F60E94F005D0CF883909F461
:100D00008AC038F5883729F050F4883611F08037DA
:100D100029F683E0809392021092490255C08838E8
:100D200009F479C0803919F0803809F0B7CF809183
:100D30004902803208F06FC0E091490281E08E0FD5
:100D4000809349028091BB00F0E0E75DFD4F808316
:100D50003BC0803B39F0D0F4803A09F477C0883A40
:100D600009F09CCF84E080939202109228021092A6
:100D70002702F0E0E0E009958091270281110FC081
:100D800081E0809327021092070209C0803C09F499
:100D9000A8CF883C09F4A5CF883B09F07FCFE0912C
:100DA000280281E08E0F80932802F0E0E95FFD4F7A
:100DB00080818093BB00909128028091270229C0F6
:100DC00080916D028093BB0085EC8093BC0066CF60
:100DD00090918F0280918E02981758F5E0918F02C2
:100DE00081E08E0F80938F02F0E0E259FD4F808109
:100DF000E9CFE0918F0281E08E0F80938F02809186
:100E0000BB00F0E0E259FD4F808390918F0280910A
:100E10008E029817C8F285E8D8CFE0918F0281E062
:100E20008E0F80938F028091BB00F0E0E259FD4F5E
:100E300080838091910281115ECF81E080936C026A
:100E400084EA8093BC001092920228CF85EC8093B4
:100E5000BC001092920280914902803230F4E091FD
:100E60004902F0E0E75DFD4F10826091490270E0B9
:100E700089E292E0F0E0E0E00995109249020ECF9D
:100E80001092900238CF1F920F920FB60F9211243A
:100E90002F933F938F939F93AF93BF938091FE01C6
:100EA0009091FF01A0910002B09101023091FD01EB
:100EB00023E0230F2D3758F50196A11DB11D209376
:100EC000FD018093FE019093FF01A0930002B09377
:100ED00001028091020290910302A0910402B0915C
:100EE00005020196A11DB11D809302029093030299
:100EF000A0930402B0930502BF91AF919F918F918F
:100F00003F912F910F900FBE0F901F90189526E8DC
:100F1000230F0296A11DB11DD2CF1F920F920FB6C3
:100F20000F9211242F933F934F935F936F937F936F
:100F30008F939F93AF93BF93EF93FF938CEB92E0CC
:100F40000E941304FF91EF91BF91AF919F918F91F8
:100F50007F916F915F914F913F912F910F900FBEB5
:100F60000F901F9018951F920F920FB60F92112499
:100F70002F938F939F93EF93FF93E091CC02F09187
:100F8000CD028081E091D202F091D30282FD1BC09C
:100F900090818091D5028F5F8F732091D602821746
:100FA00041F0E091D502F0E0E454FD4F958F80933D
:100FB000D502FF91EF919F918F912F910F900FBECE
:100FC0000F901F9018958081F4CF1F920F920FB64B
:100FD0000F9211244F935F936F937F938F939F93FF
:100FE000AF93BF938091F9019091FA01892B19F485
:100FF0004C9B3EC05C988091F7019091F801892B41
:1010000019F44A9B37C05A988091F4019091F501E8
:1010100001969093F5018093F40180FD1CC04F99D7
:101020002BC081E090E0092E000CAA0BBB0B409175
:10103000F0015091F1016091F2017091F301840F80
:10104000951FA61FB71F8093F0019093F101A09305
:10105000F201B093F301BF91AF919F918F917F9176
:101060006F915F914F910F900FBE0F901F90189549
:101070005C9AC1CF5A9AC8CF8FEF9FEFD4CFECEBD9
:10108000F2E01382128288EE93E0A0E0B0E0848365
:101090009583A683B78382E191E09183808385EC79
:1010A00090E09587848784EC90E09787868780EC32
:1010B00090E0918B808B81EC90E0938B828B82EC23
:1010C00090E0958B848B86EC90E0978B868B118ECD
:1010D000128E138E148EE9EDF3E0118210821382CA
:1010E0001282158214821782168211861086138648
:1010F00012861586148617861686118A108A138A18
:10110000128A158A148A178A168A118E108E138EE7
:10111000128E158E148E178E168E11A210A213A287
:1011200012A214A215A216A217A210A611A612A608
:1011300013A614A615A616A617A610AA11AA12AAD7
:1011400013AA14AA15AA16AA17AA11AE10AE13AEA6
:1011500012AE15AE14AE17AE16AE8DEC9CECACE430
:10116000BEE38093190490931A04A0931B04B093D8
:101170001C0480931D0490931E04A0931F04B0933D
:1011800020048AE999E9A9E9BEE3809321049093B8
:101190002204A0932304B09324040895CF93DF93F3
:1011A0001F92CDB7DEB7789484B5826084BD84B5D4
:1011B000816084BD85B5826085BD85B5816085BD52
:1011C00080916E00816080936E001092810080910A
:1011D0008100826080938100809181008160809392
:1011E0008100809180008160809380008091B100B7
:1011F00084608093B1008091B00081608093B000E2
:1012000080917A00846080937A0080917A00826075
:1012100080937A0080917A00816080937A00809137
:101220007A00806880937A001092C100109280004A
:10123000109281008FEF90E0909389008093880056
:1012400080916F00826080936F0080918100886040
:10125000809381008AB1846B8AB9E091CC02F091CD
:10126000CD0282E08083E091C802F091C902108231
:10127000E091CA02F091CB028FEC80831092D402ED
:10128000E091D002F091D10286E08083E091CE021D
:10129000F091CF02808180618083E091CE02F09155
:1012A000CF02808188608083E091CE02F091CF02EE
:1012B000808180688083E091CE02F091CF028081AE
:1012C0008F7D80830E94FE012B013C013AE0C32EFA
:1012D000D12CE12CF12C0E94FE01641975098609BC
:1012E0009709683E734081059105A8F321E0C21A71
:1012F000D108E108F10838EE430E33E0531E611CBB
:10130000711CC114D104E104F10429F710925903AE
:1013100099E090935A038AE080935B039093CB0308
:101320008093CA0381E080935E0380936A03809375
:101330006B0380936C0325EF30E0309360032093C0
:101340005F0396E09093610310926203109263032F
:101350001092640310926503109266031092670363
:10136000109268031092690380936D0380936E035B
:1013700080937103809372038093730322E0209320
:101380006F03909370039FEF909374031092750313
:10139000109276038093770394E09093780397E01C
:1013A0009093790310927A0393E090937B03909348
:1013B0007C0310927D0310927E0380937F03E4E907
:1013C000F3E0A8EBB3E01192119211921192108602
:1013D000118612861386148A158A168A178A1D9218
:1013E0001D9215961C921E9214971B961C921E928B
:1013F0001A9733E0E03AF30731F71092D80389E205
:101400009CE5AFE0BCE38093CC039093CD03A09325
:10141000CE03B093CF0387EF9CECA2E1B9E38093B6
:10142000D4039093D503A093D603B093D70380E45D
:101430009AEDAFE7B8E38093D0039093D103A093E4
:10144000D203B093D30389E00E94870061E08091CA
:10145000CB030E94A6008091CA030E94870061E02E
:101460008091CA030E94A6001FB7F8948091F601EC
:10147000811124C0EAE9F0E08491EEEAF0E0949171
:10148000E82FF0E0EE0FFF1FEA57FF4FA591B49150
:10149000EC91E92321F461E08AE00E94A6008AE051
:1014A0000E9487008CB580618CBD8CB580648CBD3A
:1014B0008DE00E9487008BE00E9487008091F601FA
:1014C0008F5F8093F6011FBF80E58CBD1DBC8091AE
:1014D00059038130F9F48091CA030E940105182F45
:1014E00080915903813011F58091CB030E94010551
:1014F000982F812F8D33984631F183E291E00E943D
:10150000F30487E491E00E94F3048CE591E00E94EB
:10151000F304FFCF1FEF8111E3CFBE016F5F7F4F59
:101520008091CA030E94F9001981DACF811109C0A4
:10153000BE016F5F7F4F8091CB030E94F9008981CC
:10154000D7CF8FEFD5CF60915E03662329F06091EE
:1015500061036295660F607E80915F0390916003E6
:10156000843F31E0930709F4E6C1803D974009F4D8
:10157000E4C1809162038370682B80E10E943C0388
:1015800060E081E10E943C0360916303611160E8C7
:1015900080916403882329F0809165038F708064B3
:1015A000682B82E10E943C0360916C03611160E250
:1015B00080916B038111606180916A038111686081
:1015C00080916D03811162608EE10E943C03609105
:1015D0006603611160E2809167038111606180910F
:1015E00068038111686083E10E943C03609173038A
:1015F000611160E2809172038111606180917103D9
:10160000811168608FE10E943C0360916E03662344
:1016100029F0609170036295660F607E80916F0380
:10162000883009F48CC1803109F48BC1843009F40D
:1016300060618091740387FD03C083706460682BD0
:1016400080E20E943C0360917503662341F0609143
:10165000760330E2639FB00111246076606881E216
:101660000E943C0320917A03211120E880917B03A2
:1016700030E2839FC001112480769091790334E099
:10168000939FB00111246C71682B622B80E20E9441
:101690006703E0917803E85060E0E93020F4F0E07F
:1016A000EB5FFE4F608181E20E94670380917D03C2
:1016B000811180E260917E036370682B82E20E9458
:1016C000670360917C0384E0689FB00111246C7013
:1016D00083E20E94670360E084E20E94670394E66D
:1016E000A92EB12C00E010E0992493942FB7F89420
:1016F0008091FE019091FF01A0910002B091010242
:101700002FBF4091FB015091FC01052E000C660B90
:10171000770B841B950BA60BB70B0B97A105B10597
:1017200008F4F6C0C0900101D0900201E0900301DE
:10173000F090040120E030E04AEF53E4C701B60125
:101740000E94110E1816ECF0809100018823C9F058
:1017500020E030E040E85FE3C701B6010E94A50D3C
:10176000609301017093020180930301909304013F
:1017700020E030E04AEF53E40E94700F87FF1092A0
:101780000001C0900101D0900201E0900301F090AF
:10179000040120E030E0A901C701B6010E94700FEA
:1017A00087FD1DC080910001811119C020E030E04B
:1017B00040E85FE3C701B6010E94A40D60930101F8
:1017C00070930201809303019093040120E030E0C4
:1017D000A9010E94110E181614F090920001C090F9
:1017E0000101D0900201E0900301F0900401C701D3
:1017F000B6010E94880E9B0161707727672B09F064
:10180000A2C01092FA011092F9011092F801109200
:10181000F7012FE632E143E85CE3C701B6010E941D
:10182000110E87FF0BC02FE632E143E85CEBC701E6
:10183000B6010E94700F18160CF495C0A70196010E
:1018400060E070E08AE794E40E94160E6B017C0170
:10185000E894F7F820E030E040E85FE3C701B60124
:101860000E94110E87FD2CC080918100887F80939B
:10187000810020E030E040E851E4C701B6010E9459
:10188000750F0E948F0E70938900609388002091DD
:1018900084003091850080918800909189002817FC
:1018A000390708F069C08091840090918500909379
:1018B0008500809384008091810083608093810003
:1018C000C0900101D0900201E0900301F09004016A
:1018D000A7019601C701B6010E94E20F882309F40F
:1018E0004EC084EE91E00E94A20480E291E00E944A
:1018F000A2042FB7F8948091FE019091FF01A0916E
:101900000002B09101022FBF9093FC018093FB0174
:1019100080910001882309F4C4C05D985F9A011585
:10192000110509F4E3CE0E94FF03882309F4DECEFB
:101930000E940000DBCE68601CCE68611ACE686130
:1019400078CE686076CEC901B5010E94760D892BEC
:1019500009F057CF1092F8011092F7011092FA0196
:101960001092F90156CFCC24CA9483E2D82E84E792
:10197000E82E87E4F82E78CF90E080E098CF26011B
:101980003701E89477F82FEF3FEF4FE75FE7C301A8
:10199000B2010E94E20F81110DC02FEF3FEF4FE720
:1019A0005FE7C301B2010E94110E18161CF488EE05
:1019B00091E099CF2FEF3FEF4FE75FE4C701B6010A
:1019C0000E94700F18161CF48CEE91E08CCF2FEF54
:1019D0003FEF4FE75FECC701B6010E94110E87FD94
:1019E000F3CF20E030E0A901C701B6010E94110E3B
:1019F00087FF09C06DE28CEB92E00E943504F7FA94
:101A0000F094F7F8F0942AE037ED43EA5BE3C7017E
:101A1000B6010E94A50D2B013C010E948F0E6B01A7
:101A20007C010E94BE0E9B01AC01C301B2010E9469
:101A3000A40D2B013C014AE0C701B6010E94AF048E
:101A40006EE28CEB92E00E94350420E030E040E250
:101A500051E4C301B2010E94750F2B013C010E94A9
:101A60008F0E6B01F12CE12C4AE0C701B6010E94F8
:101A7000AF04C701B6010E94BE0E9B01AC01C301B9
:101A8000B2010E94A40D20E030E040E251E40E9447
:101A9000750F0E948F0E90E080E04AE00E94AF0434
:101AA00024CF5D9A5F983BCFA1E21A2EAA1BBB1BE5
:101AB000FD010DC0AA1FBB1FEE1FFF1FA217B3071A
:101AC000E407F50720F0A21BB30BE40BF50B661F30
:101AD000771F881F991F1A9469F7609570958095F4
:101AE00090959B01AC01BD01CF01089597FB072E96
:101AF00016F4009407D077FD09D00E948A0D07FCE8
:101B000005D03EF4909581959F4F0895709561950D
:101B10007F4F0895AA1BBB1B51E107C0AA1FBB1F23
:101B2000A617B70710F0A61BB70B881F991F5A9569
:101B3000A9F780959095BC01CD010895EE0FFF1F88
:101B40000590F491E02D09945058BB27AA270E94D4
:101B5000BC0D0C94360F0E94280F38F00E942F0FF6
:101B600020F039F49F3F19F426F40C94250F0EF45D
:101B7000E095E7FB0C941F0FE92F0E94470F58F3E5
:101B8000BA17620773078407950720F079F4A6F562
:101B90000C94690F0EF4E0950B2EBA2FA02D0B01BB
:101BA000B90190010C01CA01A0011124FF27591BA2
:101BB00099F0593F50F4503E68F11A16F040A22FA8
:101BC000232F342F4427585FF3CF46953795279519
:101BD000A795F0405395C9F77EF41F16BA0B620B18
:101BE000730B840BBAF09150A1F0FF0FBB1F661F5F
:101BF000771F881FC2F70EC0BA0F621F731F841FA2
:101C000048F4879577956795B795F7959E3F08F0C7
:101C1000B0CF9395880F08F09927EE0F9795879589
:101C200008950E94FB0E08F481E008950E942A0E98
:101C30000C94360F0E942F0F58F00E94280F40F08E
:101C400029F45F3F29F00C941F0F51110C946A0F77
:101C50000C94250F0E94470F68F39923B1F3552385
:101C600091F3951B550BBB27AA27621773078407AF
:101C700038F09F5F5F4F220F331F441FAA1FA9F345
:101C800035D00E2E3AF0E0E832D091505040E69533
:101C9000001CCAF72BD0FE2F29D0660F771F881F94
:101CA000BB1F261737074807AB07B0E809F0BB0B87
:101CB000802DBF01FF2793585F4F3AF09E3F51059B
:101CC00078F00C941F0F0C946A0F5F3FE4F3983E7A
:101CD000D4F3869577956795B795F7959F5FC9F784
:101CE000880F911D9695879597F90895E1E0660F05
:101CF000771F881FBB1F621773078407BA0720F07E
:101D0000621B730B840BBA0BEE1F88F7E0950895E6
:101D10000E948F0E6894B1110C946A0F08950E946E
:101D20004F0F88F09F5798F0B92F9927B751B0F00F
:101D3000E1F0660F771F881F991F1AF0BA95C9F74F
:101D400014C0B13091F00E94690FB1E008950C9475
:101D5000690F672F782F8827B85F39F0B93FCCF328
:101D6000869577956795B395D9F73EF490958095CC
:101D7000709561957F4F8F4F9F4F0895E89409C0EC
:101D800097FB3EF490958095709561957F4F8F4FAE
:101D90009F4F9923A9F0F92F96E9BB279395F695C4
:101DA000879577956795B795F111F8CFFAF4BB0F42
:101DB00011F460FF1BC06F5F7F4F8F4F9F4F16C0A6
:101DC000882311F096E911C0772321F09EE8872F30
:101DD000762F05C0662371F096E8862F70E060E0EC
:101DE0002AF09A95660F771F881FDAF7880F969565
:101DF000879597F90895990F0008550FAA0BE0E809
:101E0000FEEF16161706E807F907C0F012161306BC
:101E1000E407F50798F0621B730B840B950B39F4FC
:101E20000A2661F0232B242B252B21F408950A2662
:101E300009F4A140A6958FEF811D811D089597F9A2
:101E40009F6780E870E060E008959FEF80EC089560
:101E500000240A9416161706180609060895002489
:101E60000A9412161306140605060895092E039403
:101E7000000C11F4882352F0BB0F40F4BF2B11F477
:101E800060FF04C06F5F7F4F8F4F9F4F089557FDD6
:101E90009058440F551F59F05F3F71F04795880FD8
:101EA00097FB991F61F09F3F79F08795089512166F
:101EB00013061406551FF2CF4695F1DF08C016161B
:101EC00017061806991FF1CF8695710561050894CC
:101ED0000895E894BB2766277727CB0197F90895E3
:101EE0000E94FB0E08F48FEF08950E94880F0C9457
:101EF000360F0E94280F38F00E942F0F20F09523F4
:101F000011F00C941F0F0C94250F11240C946A0FE0
:101F10000E94470F70F3959FC1F3950F50E0551F36
:101F2000629FF001729FBB27F00DB11D639FAA272E
:101F3000F00DB11DAA1F649F6627B00DA11D661F7D
:101F4000829F2227B00DA11D621F739FB00DA11D9E
:101F5000621F839FA00D611D221F749F3327A00D58
:101F6000611D231F849F600D211D822F762F6A2FF4
:101F700011249F5750409AF0F1F088234AF0EE0F59
:101F8000FF1FBB1F661F771F881F91505040A9F786
:101F90009E3F510580F00C941F0F0C946A0F5F3F19
:101FA000E4F3983ED4F3869577956795B795F795C2
:101FB000E7959F5FC1F7FE2B880F911D969587953A
:101FC00097F908950E94FB0E880B990B0895F894D9
:021FD000FFCF41
:101FD20001000040402000000040000000600000BE
:101FE200000035049203C2038204F303D103E50324
:101FF2000D0A004661696C656420746F20636F6D21
:102002006D756E69636174652077697468204C53DD
:102012004D394453312E00446F75626C652D6368EF
:1020220065636B20776972696E672E00446566612D
:10203200756C742073657474696E677320696E20A1
:102042007468697320736B657463682077696C6C5C
:1020520020776F726B20666F7220616E206F7574CD
:10206200206F662074686520626F78204C534D396A
:1020720044533120427265616B6F75742C20627516
:1020820074206D6179206E65656420746F206265CD
:10209200206D6F646966696564206966207468658D
:1020A20020626F617264206A756D7065727320615F
:1020B20072652E006E616E00696E66006F76660054
:00000001FF
