:100000000C9453000C947B000C947B000C947B00AC
:100010000C947B000C947B000C947B000C947B0074
:100020000C947B000C947B000C947B000C947B0064
:100030000C947B000C947B000C947B000C947B0054
:100040000C948C030C947B000C941D040C94F7030B
:100050000C947B000C947B000C947B000C947B0034
:100060000C947B000C947B0000000000250028000D
:100070002B0000000000240027002A0004040404D0
:100080000404040402020202020203030303030342
:10009000010204081020408001020408102001021F
:1000A00004081020F00311241FBECFEFD8E0DEBFFC
:1000B000CDBF21E0A2E1B1E001C01D92A83BB20793
:1000C000E1F711E0A0E0B1E0EEEFF8E002C005904A
:1000D0000D92A231B107D9F710E0C3E5D0E004C01A
:1000E0002197FE010E947704C235D107C9F70E940B
:1000F000E7030C947D040C940000CF93DF9390E011
:10010000FC01E057FF4F249184589F4FFC018491DC
:10011000882319F190E0880F991FFC01EE58FF4FDA
:10012000A591B491FC01E859FF4FC591D491662384
:1001300049F06230A9F08FB7F894EC91E22BEC9380
:100140008FBF0BC09FB7F8948C91E22FE0958E2360
:100150008C938881E823E8839FBFDF91CF91089536
:100160009FB7F8943C91822F809583238C93E881EC
:10017000E22BE8839FBFF1CF789484B5826084BD81
:1001800084B5816084BD85B5826085BD85B581609B
:1001900085BDEEE6F0E0808181608083E1E8F0E0FB
:1001A0001082808182608083808181608083E0E82A
:1001B000F0E0808181608083E1EBF0E08081846009
:1001C0008083E0EBF0E0808181608083EAE7F0E00B
:1001D000808184608083808182608083808181606F
:1001E00080838081806880831092C10008952FB73A
:1001F000F8946091B4017091B5018091B60190912D
:10020000B7012FBF089508950F931F93CF93DF93E6
:10021000EC010E94F700688779878A879B87E881CD
:10022000F9810284F385E02DCE0109959923ACF480
:100230000E94F700088519852A853B85601B710B94
:10024000820B930B0C811D812E813F8160177107FA
:100250008207930720F38FEF9FEFDF91CF911F91DC
:100260000F910895BF92CF92DF92EF92FF920F937A
:100270001F93CF93DF936C01B62E8A017901D0E0F2
:10028000C0E0CE15DF0590F4C6010E940401992359
:100290006CF02B2D0B2C000C330B2817390731F089
:1002A000F801808321960F5F1F4FEBCFCE01DF91C6
:1002B000CF911F910F91FF90EF90DF90CF90BF9063
:1002C0000895DC01ED91FC910190F081E02D0995FC
:1002D0000895CF92DF92EF92FF920F931F93CF93E7
:1002E000DF938C01DB01D0E0C0E07A0181E0E81A05
:1002F000F108452BA1F0F80180819181FC0120815A
:1003000031816D01FFEFCF1ADF0A6C91C801F9014D
:100310000995892B21F02196A701D601E6CFCE01C0
:10032000DF91CF911F910F91FF90EF90DF90CF90D1
:100330000895019709F008956F3F7F4FE1F7E2E1DB
:10034000F1E01382128288EE93E0A0E0B0E08483B3
:100350009583A683B78384E091E09183808385ECC5
:1003600090E09587848784EC90E09787868780EC7F
:1003700090E0918B808B81EC90E0938B828B82EC70
:1003800090E0958B848B86EC90E0978B868B118E1A
:10039000128E138E148ECFCFFC01938D848D9817FF
:1003A00020F4891B990B019708952FE330E0291B56
:1003B0003109820F932F911D0895FC01918D828D3B
:1003C000981761F0A28DAE0FBF2FB11D5D968C9175
:1003D000928D9F5F9F73928F90E008958FEF9FEFB4
:1003E0000895FC01918D828D981731F0828DE80F70
:1003F000F11D858D90E008958FEF9FEF0895FC012A
:10040000218D30E0205C3F4F828DA901481B5109AE
:10041000CA018F739927089582E191E00E94FF013C
:1004200021E0892B09F420E0822F0895CF92DF92FA
:10043000EF92FF921F93CF93DF93EC016A017B0150
:10044000122F60E079E08DE390E0A70196010E9411
:100450005504215031094109510956954795379561
:100460002795E889F98982E08083C11481EED80656
:10047000E104F10421F0211580E1380798F0E889C2
:10048000F989108260E874E88EE190E0A701960196
:100490000E9455042150310941095109569547954B
:1004A00037952795EC85FD853083EE85FF85208384
:1004B000188EEC89FD891083EA89FB89808180612F
:1004C0008083EA89FB89808188608083EA89FB894F
:1004D000808180688083EA89FB8980818F7D808329
:1004E000DF91CF911F91FF90EF90DF90CF90089513
:1004F000FC01A48DA80FB92FB11DA35ABF4F2C9199
:10050000848D90E001968F739078848FA689B78947
:100510002C93A089B1898C91837080648C93938D86
:10052000848D981308950288F389E02D80818F7D52
:100530008083F8CF0F931F93CF93DF93EC0181E07B
:10054000888F9B8D8C8D9817B1F0062F8B8D90E046
:1005500001968F739078182F8C8D81131EC00FB663
:1005600007FCFACFE889F989808185FFF5CFCE01B4
:100570000E947802F1CFE889F989808185FFE5CF73
:100580009FB7F894EE89FF896083E889F9898081B3
:100590008370806480839FBF10C0EB8DEC0FFD2FB4
:1005A000F11DE35AFF4F00839FB7F8941B8FEA8930
:1005B000FB898081806280839FBF81E090E0DF9132
:1005C000CF911F910F910895CF93DF93EC01888D08
:1005D000811104C00DC00FB607FE0DC0EA89FB896A
:1005E000808185FDF8CFA889B9898C9186FFF3CFEA
:1005F000DF91CF910895808185FFF0CFE889F98957
:10060000808185FFEBCFCE010E947802E7CF80E0AA
:1006100090E0892B21F00E940C02811101C0089505
:100620000E940000FCCF0F931F93CF93DF9300D065
:100630001F92CDB7DEB723E030E0AE014F5F5F4FD2
:1006400060E082E191E00E94320110E000E00330BE
:10065000110574F4E1E0F0E0EC0FFD1FE00FF11F75
:10066000608182E191E00E9461010F5F1F4FEFCF37
:10067000E0911201F09113010190F081E02D60E012
:1006800082E191E009950F900F900F90DF91CF914B
:100690001F910F91089582E191E00E94FF011816C9
:1006A000190634F482E191E00E94DD01019709F01E
:1006B00008950E941303FCCF61E082E00E947D0058
:1006C00061E085E00E947D0061E084E00E947D00A1
:1006D00061E087E00E947D0026E040E855E260E0AE
:1006E00070E082E191E00E94160282E191E00E94B6
:1006F000DD01863029F082E191E00E94DD01F9CF31
:10070000E0911201F09113010190F081E02D66E07B
:1007100082E191E0099508951F920F920FB60F9212
:1007200011240F931F932F933F934F935F936F93D6
:100730007F938F939F93AF93BF930091B4011091D8
:10074000B5012091B6013091B7019091B301B90183
:10075000A8014F5F5F4F6F4F7F4F83E0890F8D3749
:1007600040F086E8890FB901A8014E5F5F4F6F4FD7
:100770007F4F8093B3014093B4015093B5016093D0
:10078000B6017093B7018091AF019091B001A09133
:10079000B101B091B2010196A11DB11D8093AF01CD
:1007A0009093B001A093B101B093B201BF91AF910A
:1007B0009F918F917F916F915F914F913F912F9179
:1007C0001F910F910F900FBE0F901F9018950E94D0
:1007D000BC000E945C030E944B030E940703FBCFF6
:1007E0006FEF7FEF81E090E00E94990108951F92E2
:1007F0000F920FB60F9211242F933F934F935F9355
:100800006F937F938F939F93AF93BF93EF93FF93D8
:1008100082E191E00E947802FF91EF91BF91AF9148
:100820009F918F917F916F915F914F913F912F9108
:100830000F900FBE0F901F9018951F920F920FB63A
:100840000F9211242F938F939F93AF93BF93EF93A6
:10085000FF93E0912201F0912301808182FD14C079
:10086000E2E1F1E0A689B7892C91818D8F5F8F73CA
:10087000928D891771F0DF01E18DF0E0EE5EFE4FA1
:10088000258F59968C9305C0E0912801F09129019C
:100890008081FF91EF91BF91AF919F918F912F91A7
:1008A0000F900FBE0F901F901895A1E21A2EAA1B51
:1008B000BB1BFD010DC0AA1FBB1FEE1FFF1FA21710
:1008C000B307E407F50720F0A21BB30BE40BF50B0D
:1008D000661F771F881F991F1A9469F76095709596
:1008E000809590959B01AC01BD01CF010895EE0F5D
:0E08F000FF1F0590F491E02D0994F894FFCFBE
:1008FE00000000009A026901CC01E402FF01DD0153
:02090E00F101F5
:00000001FF
