:100000000C9474000C949C000C949C000C949C0028
:100010000C949C000C949C000C949C000C949C00F0
:100020000C949C000C949C000C949C000C944B141D
:100030000C949C000C949C000C949C000C949C00D0
:100040000C948A120C949C000C94FA120C94D41206
:100050000C949C000C949C000C949C000C949C00B0
:100060000C942C130C949C00084AD73B3BCE016E99
:1000700084BCBFFDC12F3D6C74319ABD56833DDAFF
:100080003D00C77F11BED9E4BB4C3E916BAAAABE0E
:10009000000000803F000000000800020100000393
:1000A0000407000000000000000000000000250020
:1000B00028002B0000000000240027002A00040470
:1000C0000404040404040202020202020303030300
:1000D00003030102040810204080010204081020DC
:1000E000010204081020011511241FBECFEFD8E033
:1000F000DEBFCDBF12E0A0E0B1E0E2E8F2E402C072
:1001000005900D92AE30B107D9F726E0AEE0B2E02F
:1001100001C01D92AC32B207E1F710E0C4E7D0E0B5
:1001200004C02197FE010E94051DC337D107C9F7FE
:100130000E9455170C943F210C94000090E0FC01A4
:10014000EE52FF4F249182549F4FFC0184918823EB
:1001500099F090E0880F991FFC01EC54FF4FA59196
:10016000B491FC01E655FF4F859194918FB7F894B7
:10017000EC91E22BEC938FBF08954F925F926F92B8
:100180007F928F929F92AF92BF92CF92DF92EF9227
:10019000FF920F931F93CF93DF936B017C0120910C
:1001A0001C0630911D0640911E0650911F060E94AC
:1001B0000C1D4B015C0180921C0690921D06A092C2
:1001C0001E06B0921F062091100630911106409134
:1001D000120650911306C701B6010E943A1F2B0167
:1001E0003C0120911406309115064091160650915D
:1001F0001706C501B4010E943A1F9B01AC01C3015F
:10020000B2010E940C1D4B015C012091200630912F
:1002100021064091220650912306C701B6010E9493
:100220000B1D209118063091190640911A06509125
:100230001B060E943A1F9B01AC01C501B4010E943C
:100240000C1D4B015C016091240670912506072E60
:10025000000C880B990B0E94561E8B01D82FC92FBA
:100260009B01482F592FB401C5010E94A71D87FD8E
:1002700019C06091260670912706072E000C880B86
:10028000990B0E94561E8B01D82FC92F9B01482F16
:10029000592FB401C5010E942D1F18161CF08401AE
:1002A000DA2DCB2DC0922006D0922106E0922206B4
:1002B000F0922306B8018D2F9C2FDF91CF911F91D3
:1002C0000F91FF90EF90DF90CF90BF90AF909F90F5
:1002D0008F907F906F905F904F900895089508954C
:1002E0000895FB014081518162817381DC014D934E
:1002F0005D936D937C9313974481558166817781DB
:1003000014964D935D936D937C931797408551851B
:1003100062857385FC0140875187628773870895E2
:10032000089590E0FC01EA56FF4F2491FC01EE5243
:10033000FF4F3491FC01E254FF4FE491EE23C9F0EA
:10034000222339F0233001F1A8F4213019F12230B1
:1003500029F1F0E0EE0FFF1FE655FF4FA591B49194
:100360008FB7F894EC91611126C030953E233C93F1
:100370008FBF08952730A9F02830C9F0243049F7FD
:10038000809180008F7D03C0809180008F77809363
:100390008000DFCF84B58F7784BDDBCF84B58F7DC0
:1003A000FBCF8091B0008F778093B000D2CF809147
:1003B000B0008F7DF9CF3E2BDACF3FB7F894809114
:1003C000B7029091B802A091B902B091BA0226B5D5
:1003D000A89B05C02F3F19F00196A11DB11D3FBF7D
:1003E000BA2FA92F982F8827BC01CD01620F711D4C
:1003F000811D911D42E0660F771F881F991F4A9546
:10040000D1F708958F929F92AF92BF92CF92DF92D1
:10041000EF92FF924B015C010E94DD016B017C01B8
:100420000E94DD016C197D098E099F09683E7340A9
:1004300081059105A8F321E0821A9108A108B1086D
:1004400088EEC80E83E0D81EE11CF11C81149104D3
:10045000A104B10429F7FF90EF90DF90CF90BF90F7
:10046000AF909F908F900895AF92BF92CF92DF92FE
:10047000EF92FF920F931F93CF93DF936C017B0159
:100480008B01040F151FEB015E01AE18BF08C017EA
:10049000D10759F06991D601ED91FC910190F0815D
:1004A000E02DC6010995892B79F7C501DF91CF9120
:1004B0001F910F91FF90EF90DF90CF90BF90AF9082
:1004C0000895FC01538D448D252F30E0842F90E05A
:1004D000821B930B541710F0CF960895019708953F
:1004E000FC01918D828D981761F0A28DAE0FBF2F08
:1004F000B11D5D968C91928D9F5F9F73928F90E05E
:1005000008958FEF9FEF0895FC01918D828D9817CC
:1005100031F0828DE80FF11D858D90E008958FEF09
:100520009FEF0895FC01918D228D892F90E0805CD2
:100530009F4F821B91098F739927089585E393E05C
:100540000E94920221E0892B09F420E0822F089575
:1005500080E090E0892B29F00E949E0281110C948A
:1005600000000895FC01A48DA80FB92FB11DA35A56
:10057000BF4F2C91848D90E001968F739927848FC3
:10058000A689B7892C93A089B1898C9183708064E6
:100590008C93938D848D981306C00288F389E02D87
:1005A00080818F7D80830895EF92FF920F931F9338
:1005B000CF93DF93EC0181E0888F9B8D8C8D981316
:1005C0001AC0E889F989808185FF15C09FB7F89422
:1005D000EE89FF896083E889F9898081837080646E
:1005E00080839FBF81E090E0DF91CF911F910F91B9
:1005F000FF90EF900895F62E0B8D10E00F5F1F4FC8
:100600000F731127E02E8C8D8E110CC00FB607FCD6
:10061000FACFE889F989808185FFF5CFCE010E9464
:10062000B202F1CFEB8DEC0FFD2FF11DE35AFF4F1E
:10063000F0829FB7F8940B8FEA89FB8980818062F2
:10064000CFCFCF93DF93EC01888D8823B9F0AA89AF
:10065000BB89E889F9898C9185FD03C0808186FD7D
:100660000DC00FB607FCF7CF8C9185FFF2CF8081CC
:1006700085FFEDCFCE010E94B202E9CFDF91CF918D
:1006800008954F925F926F927F92AF92BF92CF92F6
:10069000DF92EF92FF920F931F93CF93DF93EC01C2
:1006A0005A018B01488C598C6A8C7B8C73016201D6
:1006B000F7FAF094F7F8F0949A01AB01C701B6018C
:1006C0000E942D1F181664F09501A801C301B20104
:1006D0000E94A71D7301620187FD02C065017801B8
:1006E00020E030E0A901C701B6010E94A71D8111D9
:1006F00017C01CA21DA21EA21FA2CC8ADD8AEE8AF0
:10070000FF8ADF91CF911F910F91FF90EF90DF90C3
:10071000CF90BF90AF907F906F905F904F90089573
:10072000A701960160E074E284E799E40E94AC1DA1
:100730009F770E94251E6CA37DA38EA39FA311E02B
:1007400020E030E0A901C701B6010E942D1F181654
:100750000CF010E01A83D1CFCF93DF93FC012381FB
:10076000222329F1EC0184810E949E008D810E9448
:100770009E008B81843011F0883099F48E810E9424
:100780009E008F810E949E008FA58F3F81F00E9466
:100790009E006EA581E068278FA5DF91CF910C9414
:1007A0009101833011F0863079F78E81EBCFDF91A4
:1007B000CF910895CF93DF93FC0123812223A1F0F1
:1007C000EC010190F081E02D0480F581E02D60E0E6
:1007D00009958FA58F3F41F00E949E006EA58FA5C1
:1007E000DF91CF910C949101DF91CF910895DC01BD
:1007F000ED91FC9124813581477055276627772735
:100800004150510961097109473051056105710570
:1008100060F4FA01E25FFB4F0C94051D18041A0402
:100820001C041E0420042204240461E0F90109943C
:1008300065E0FCCF64E0FACF66E0F8CF62E0F6CF87
:100840006AE0F4CF68E0F2CF69E0F0CFCF93DF93B6
:10085000EC01CB01BA0126E030E040E050E00E941C
:10086000E61C623071058105910589F16CF4611512
:10087000710581059105D1F0613071058105910502
:10088000F9F0DF91CF9108956430710581059105EC
:1008900061F124F1653071058105910591F7E881D9
:1008A000F9810480F581E02D66E006C0E881F981D8
:1008B0000480F581E02D64E0CE01DF91CF910994B1
:1008C000E881F9810480F581E02D65E0F5CFE881CC
:1008D000F9810480F581E02D61E0EECFE881F981B6
:1008E0000480F581E02D63E0E7CFE881F9810480A1
:1008F000F581E02D62E0E0CFDC01ED91FC91048018
:10090000F581E02D43705527662777274230510542
:100910006105710571F0433051056105710559F0AC
:10092000413051056105710511F065E0099466E0FB
:10093000FDCF6AE0FBCF69E0F9CFCF93DF93EC0105
:10094000CB01BA0123E030E040E050E00E94E61C19
:10095000613071058105910599F06230710581055D
:100960009105A9F0672B682B692BC1F4E881F98107
:100970000480F581E02D64E0CE01DF91CF910994F0
:10098000E881F9810480F581E02D61E0F5CFE8810F
:10099000F9810480F581E02D62E0EECFDF91CF9107
:1009A0000895DC01ED91FC910480F581E02D437008
:1009B000552766277727423051056105710571F08B
:1009C000433051056105710559F04130510561050C
:1009D000710511F062E0099463E0FDCF61E0FBCFA7
:1009E00060E0F9CFCF93DF93EC01E881F9810480D7
:1009F000F581E02D8A8160E0811162E0CE010995E8
:100A0000E881F9810480F581E02D8A8161E081111E
:100A100063E0CE0109958CA59DA58230910538F043
:100A2000880F991F880F991F05970197F1F7E881A3
:100A3000F9810480F581E02D8A8160E0811162E016
:100A4000CE01DF91CF910994CF93DF93EC0120E0A9
:100A500030E0A9016C897D898E899F890E942D1FB4
:100A600018162CF4E8A9F9A9DF91CF910994EAA905
:100A7000FBA9FACFCF92DF92EF92FF920F931F93D1
:100A8000CF93DF93DC011396CC91C43039F0C8309A
:100A900059F1C33019F0C63049F1C2E08C010C5F46
:100AA0001F4FF12CE12CC62ED12CD1E0F80164812E
:100AB000C6010E2C02C0959587950A94E2F780FD39
:100AC0006D270F5F1F4F80810E949101BFEFEB1ACE
:100AD000FB0AEC1658F3DF91CF911F910F91FF9015
:100AE000EF90DF90CF900895C4E0D8CFC3E0D6CF89
:100AF000DC011396EC911397E93008F038C0F0E070
:100B0000EC57FA4F0C94051D8D05930599059F052B
:100B1000A505B705AB05B705B105ED91FC910084BE
:100B2000F185E02D0994ED91FC910284F385E02D8F
:100B3000F9CFED91FC910484F585E02DF3CFED9193
:100B4000FC910684F785E02DEDCFED91FC910088B6
:100B5000F189E02DE7CFED91FC910288F389E02D3A
:100B6000E1CFED91FC910488F589E02DDBCF08956C
:100B7000CF92DF92EF92FF92CF93DF93EC010E942E
:100B8000DD016B017C0188A599A5AAA5BBA5B701CC
:100B9000A601481B590B6A0B7B0B8CA19DA1AEA132
:100BA000BFA1481759076A077B0728F18C859D85E7
:100BB000AE85BF852A812223D1F00196A11DB11DEA
:100BC0008C879D87AE87BF874C855D856E857F85C9
:100BD000CE010E947805C8A6D9A6EAA6FBA681E0A8
:100BE000DF91CF91FF90EF90DF90CF900895019724
:100BF000A109B109E5CF80E0F3CF4F925F926F92E8
:100C00007F928F929F92AF92BF92CF92DF92EF929C
:100C1000FF920F931F93CF93DF93EC01C888D9887D
:100C2000EA88FB888C859D85AE85BF85C81AD90A60
:100C3000EA0AFB0A6C897D898E899F899B01AC0138
:100C40000E943A1F4B015C016C8D7D8D8E8D9F8DB6
:100C50009B01AC010E940C1D9B01AC01C501B401BC
:100C60000E94AC1D0E941E1EC114D104E104F104B7
:100C700009F0B1C062307105810591050CF0CBC05F
:100C80001CA21DA21EA21FA21C8A1D8A1E8A1F8AC8
:100C90001CAA1DAA1EAA1FAADF91CF911F910F9116
:100CA000FF90EF90DF90CF90BF90AF909F908F908C
:100CB0007F906F905F904F90089510161106120666
:100CC0001306B4F46C157D058E059F051CF42A816E
:100CD0002111A1C09B01AC0188279927DC01821B4F
:100CE000930BA40BB50B8CAB9DABAEABBFAB93C062
:100CF000011511052105310509F48DC06C157D051F
:100D00008E059F050CF087C08A81882309F483C073
:100D100030952095109501951F4F2F4F3F4F0CABED
:100D20001DAB2EAB3FAB77C0011511052105310579
:100D300009F471C08824992454018C189D08AE08C8
:100D4000BF08681579058A059B050CF064C08A8187
:100D5000811161C0DDCFCCACDDACEEACFFACA70146
:100D60009601C701B6010E940C1D2B013C01C50173
:100D7000B4010E94561E20E030E040E850E40E949A
:100D80003A1F20E030E040E85FE30E940C1D9B0129
:100D9000AC01C301B2010E94AC1D9B01AC01C701B3
:100DA000B6010E940B1D3B016C01FE01E05CFF4F90
:100DB000E080F180028113819701A8010E942D1F1C
:100DC000181614F473018601C701D8018CAF9DAFCA
:100DD000AEAFBFAF3AC00CA91DA92EA93FA91C14E4
:100DE0001D041E041F040CF468CF10161106120611
:100DF00013060CF099CF0027112798010C191D0933
:100E00002E093F0960177107820793070CF062CF24
:100E10002A8121115FCF8CA89DA8AEA8BFA88114FC
:100E20009104A104B10409F096CF88AD99ADAAADA3
:100E3000BBAD8CAF9DAFAEAFBFAF81E01C141D0446
:100E40001E041F040CF080E08A833FEF831A930A8C
:100E5000A30AB30A8CAA9DAAAEAABFAACCACDDACE9
:100E6000EEACFFACC701B6010E94251E6CA37DA3AA
:100E70008EA39FA3A701960160E074E284E799E442
:100E80000E94AC1D6C8B7D8B8E8B9F8B2A812111D8
:100E900003CF90586C8B7D8B8E8B9F8BFDCE2091DA
:100EA0004B02260F3327331F21323105ECF42091FA
:100EB0000B03FC0190E080E0243069F082E00895AB
:100EC000A0914B022191AC01455D5D4FA40FB52F60
:100ED000B11D2C930196861798F380914B02680FF1
:100EE00060934B0280E0089581E0089510920B0317
:100EF00081E080930A031092E50261E082E10E94A2
:100F0000910161E083E10E949101E9EBF0E08081D1
:100F10008E7F808380818D7F808388E48093B8007A
:100F200085E48093BC0008951092C4021092C3021D
:100F300010921203109234030E9476078EE691E01D
:100F40009093BE028093BD028FE691E09093BC0225
:100F50008093BB020895CF93DF9391E090932A0290
:100F60008823B9F0C091B800D091BA008091BC003C
:100F70008A7B8093BC0060E082E10E94910160E086
:100F800083E10E9491010E947607D093BA00C0933A
:100F9000B800DF91CF9108958F929F92AF92BF9248
:100FA000CF92DF92EF92FF920F931F93CF93DF9335
:100FB000D0913403D13208F0D7C0182FC091330339
:100FC0000E94DD016B017C0180910B0381116BC0DC
:100FD00082E080930B0310930A038FEF8093090341
:100FE00010920803D0930703A3E1B3E0E7EEF2E029
:100FF00080E0D81391C01092E6028091E602CC0FF7
:10100000C82BC093E6028091E502813009F088C0C8
:101010001092E5020E94DD016B017C018091E602E5
:101020008093BB0080910D0390910E03A0910F035C
:10103000B0911003892B8A2B8B2BA1F00E94DD012C
:1010400000910D0310910E0320910F0330911003B6
:101050006C197D098E099F0906171707280739079C
:1010600008F442C08091BC0083FDD8CF85EC80930A
:10107000BC000E94DD016B017C0180910B0382307A
:1010800009F450C0809109038F3F09F46FC080912B
:101090000903803209F46CC080910903803309F49C
:1010A00069C084E026C080910D0390910E03A09149
:1010B0000F03B0911003892B8A2B8B2B09F484CF5B
:1010C0000E94DD0180900D0390900E03A0900F030D
:1010D000B09010036C197D098E099F09861697063A
:1010E000A806B90608F070CF80910C030E94AB07E8
:1010F00085E0109212031092340310921103DF91D5
:10110000CF911F910F91FF90EF90DF90CF90BF9004
:10111000AF909F908F9008959D9191938F5F69CF2D
:1011200085EEA5CF80910D0390910E03A0910F0342
:10113000B0911003892B8A2B8B2B09F49ECF0E9430
:10114000DD0100910D0310910E0320910F033091EA
:1011500010036C197D098E099F09061717072807C8
:10116000390708F08ACFC0CF81E0C3CF80E0C1CF7C
:1011700082E0BFCF83E0BDCF1F93CF93DF93EA011F
:10118000122FDC0111968D919C91DC01ED91FC9167
:101190000280F381E02D0995C817D90729F4812F22
:1011A0000E94CC0791E0811190E0892FDF91CF91CF
:1011B0001F910895CF93DF93EC018B818823A1F0D9
:1011C000888191E09093110380933303109212036E
:1011D0001092340381E00E94CC0791E0811190E0ED
:1011E000892FDF91CF9108950E94940781E08B832E
:1011F000CE010E94DA08982F8111E2CFF1CF089535
:10120000E091C4028091C302E81730F4F0E0EB53A0
:10121000FD4F808190E008958FEF9FEF08959091AA
:10122000C4028091C3022FEF3FEF981748F4E92FD3
:10123000F0E0EB53FD4F208130E09F5F9093C402BC
:10124000C90108958091C3029091C402891B990B32
:101250000895CF92DF92EF92FF920F931F93CF9357
:10126000DF937C01CB018A0120911103222389F0B5
:10127000EB016B01C40ED51ECC15DD0569F069913B
:10128000D701ED91FC910190F081E02DC701099506
:10129000F3CF642F0E944F07C801DF91CF911F91B8
:1012A0000F91FF90EF90DF90CF900895CF93DF9351
:1012B0001F92CDB7DEB76983209111032223F9F085
:1012C00020913403203258F021E030E0FC013383D8
:1012D000228390E080E00F90DF91CF91089580917C
:1012E0001203E82FF0E0ED5EFC4F998190838F5F51
:1012F000809312038093340381E090E0ECCF61E0AF
:10130000CE0101960E944F07F7CF90E080E008954C
:10131000CF92DF92EF92FF926A017B0110921C063E
:1013200010921D0610921E0610921F0610922006A3
:101330001092210610922206109223068130910508
:10134000F1F08230910581F1892BA1F420E030E0A9
:10135000A901CB01B6010E942D1F18161CF0C12C4B
:10136000D12C7601C0921006D0921106E09212069E
:10137000F0921306FF90EF90DF90CF90089520E059
:1013800030E0A901CB01B6010E942D1F18161CF0F8
:10139000C12CD12C7601C0921406D0921506E09291
:1013A0001606F0921706E6CF20E030E0A901CB0147
:1013B000B6010E942D1F18161CF0C12CD12C7601ED
:1013C000C0921806D0921906E0921A06F0921B06F7
:1013D000D1CFCF92DF92EF92FF92CF93DF93EC01C8
:1013E000CC8CDD8CEE8CFF8C20E030E040E85FE3BD
:1013F000C701B6010E94A71D882349F16CA97DA9E8
:101400008EA99FA90E94561EA70196010E943A1F0D
:101410000E941E1E6CAB7DAB8EAB9FAB86E896E642
:10142000A9E6B9E488AF99AFAAAFBBAF80E090E07E
:10143000A0E8BFE38C8F9D8FAE8FBF8FCE01DF9171
:10144000CF91FF90EF90DF90CF900C94FD05DF914E
:10145000CF91FF90EF90DF90CF9008954F925F92E1
:101460006F927F928F929F92AF92BF92CF92DF92B4
:10147000EF92FF92CF93DF9300D000D0CDB7DEB7CD
:101480008090A8059090A905A090AA05B090AB0502
:10149000C090AC05D090AD05E090AE05F090AF05E2
:1014A0006091B0057091B1058091B2059091B3053E
:1014B0009B01AC010E943A1F69837A838B839C83D2
:1014C000A7019601C701B6010E943A1F29813A81FE
:1014D0004B815C810E940C1D0E94AD1F9B01AC01E1
:1014E000C501B4010E94AC1D0E94781D2B013C0176
:1014F0004092E8055092E9056092EA057092EB058A
:10150000A5019401C501B4010E943A1F29813A81C5
:101510004B815C810E940C1D0E94AD1F9B01AC01A0
:10152000C701B6010E94AC1D0E94781D6B017C01B1
:10153000C092E405D092E505E092E605F092E70559
:1015400020E030E044E353E4C301B2010E943A1FBB
:101550002BED3FE049E450E40E94AC1D6093F005A0
:101560007093F1058093F2059093F30520E030E04D
:1015700044E353E4C701B6010E943A1F2BED3FE05C
:1015800049E450E40E94AC1D6093EC057093ED05B6
:101590008093EE059093EF050F900F900F900F90B2
:1015A000DF91CF91FF90EF90DF90CF90BF90AF9001
:1015B0009F908F907F906F905F904F900895CF9302
:1015C000DF9300D0CDB7DEB789836A838091A4040E
:1015D0009091A504FC012481358122303105B8F0B9
:1015E000208131E0309311032093330310921203D2
:1015F0001092340321E042E050E0BE016F5F7F4F64
:101600000E94BC080F900F90DF91CF91089580E069
:10161000F9CF2F923F924F925F926F927F928F926B
:101620009F92AF92BF92CF92DF92EF92FF920F9371
:101630001F93CF93DF93DC011496ED91FC911597E6
:10164000EF2B09F412C169012A01EC01888191E0B4
:10165000909311038093330310921203109234037A
:1016600020E041E050E0CD010E94BC08782E8823A4
:1016700009F4FBC0F12CE12C33243394EC14FD0469
:1016800008F0F4C08C819D8186010E191F09801716
:10169000910708F48C0128800E94DD014B015C0158
:1016A00080910B03811173C0602EB0E2B01710F46B
:1016B00080E2682E30920B0321E0C601801B910B63
:1016C000E816F90608F420E020930A03EFEFE09310
:1016D0000903109208038FEF860D80930703309261
:1016E000E6028091E602220C282A2092E6028091EE
:1016F000E502813009F090C01092E5020E94DD0100
:101700004B015C018091E6028093BB0080910D0348
:1017100090910E03A0910F03B0911003892B8A2B97
:101720008B2BA1F00E94DD0120910D0330910E035F
:1017300040910F0350911003681979098A099B0998
:10174000261737074807590708F442C08091BC00A4
:1017500083FDD8CFF5ECF093BC000E94DD014B0176
:101760005C0180910B03813009F45AC08091080319
:10177000861510F460900803A7EEB2E0E5ECF2E005
:1017800080E0861551F19D9191938F5FFACF809102
:101790000D0390910E03A0910F03B0911003892BBC
:1017A0008A2B8B2B09F47CCF0E94DD0120910D0345
:1017B00030910E0340910F0350911003681979097D
:1017C0008A099B09261737074807590708F068CF89
:1017D00080910C030E94AB07612C1092C4026092AE
:1017E000C3026016110609F040C042018E0C9F1C16
:1017F0005401C501881999098017910798F58981C5
:101800009A81DC01ED91FC910284F385E02D09952C
:10181000F50181935F01EDCF85EE8093BC009DCFF4
:1018200080910D0390910E03A0910F03B0911003CE
:10183000892B8A2B8B2B09F494CF0E94DD012091F8
:101840000D0330910E0340910F035091100368195E
:1018500079098A099B09261737074807590708F0AD
:1018600080CFB6CFE00EF11E09CF712C872DDF910E
:10187000CF911F910F91FF90EF90DF90CF90BF908D
:10188000AF909F908F907F906F905F904F903F9020
:101890002F900895CF93DF931F92CDB7DEB71982B3
:1018A00021E030E0AE014F5F5F4FBA018091A404A8
:1018B0009091A5040E94090B89810F90DF91CF912F
:1018C0000895AF92BF92CF92DF92EF92FF920F9363
:1018D0001F93CF93DF9300D000D000D01F92CDB7DD
:1018E000DEB78C01FB015A018CE0D8011D928A956C
:1018F000E9F7AE014F5F5F4F86E0DA011D928A95EE
:10190000E9F7AF8226E030E0BE01695F7F4F838157
:1019100094810E94090B69817A81CB80DC80ED8003
:10192000FE80B4E1AB16B10409F461C0D8F4F8E06C
:10193000AF16B10409F4C1C08EE0A816B10401F1DC
:10194000C80127960FB6F894DEBF0FBECDBFDF915A
:10195000CF911F910F91FF90EF90DF90CF90BF90AC
:10196000AF900895A8E2AA16B10409F476C0BEE2C9
:10197000AB16B10409F4A1C0EAE1AE16B10401F757
:10198000072E000C880B990B0E94561E20E030E0B9
:1019900040E85DE30E943A1FD8016D937D938D93DB
:1019A0009C931397B601DD0C880B990B0E94561E71
:1019B00020E030E040E85DE30E943A1FF8016483D4
:1019C000758386839783B701FF0C880B990B0E9460
:1019D000561E20E030E040E85DE30E943A1FD80147
:1019E00018966D937D938D939C931B97A9CF072E8B
:1019F000000C880B990B0E94561E20E030E040E856
:101A00005DE30E943A1FF8016083718382839383B0
:101A1000B601DD0C880B990B0E94561E20E030E0C9
:101A200040E85DE30E943A1FD80114966D937D93C0
:101A30008D939C931797B701FF0C880B990B0E940D
:101A4000561E20E030E040E85DE30E943A1FF801B6
:101A5000608771878287938773CF072E000C880B6E
:101A6000990B0E94561E20E030E048EC52E40E94A0
:101A7000AC1DD8016D937D938D939C931397B60104
:101A8000DD0C880B990B0E94561E20E030E048ECDC
:101A900052E40E94AC1DF8016483758386839783AA
:101AA000B701FF0C880B990B0E94561E20E030E016
:101AB00048EC52E40E94AC1D92CF072E000C880B1C
:101AC000990B0E94561E20E030E048EC52E40E9440
:101AD000AC1DF8016083718382839383B601DD0CB2
:101AE000880B990B0E94561E20E030E048EC52E42F
:101AF0000E94AC1DD80114966D937D938D939C9399
:101B00001797B701FF0C880B990B0E94561E20E017
:101B100030E048EC52E40E94AC1D99CFEF92FF9266
:101B20000F931F93CF93DF93CDB7DEB768970FB6B0
:101B3000F894DEBF0FBECDBF8C01FC01349680E26D
:101B4000DF011D928A95E9F784E290E0A0E0B0E021
:101B5000F80180839183A283B3838091A60490913E
:101B6000A704A091A804B091A90484839583A683B7
:101B7000B7832FB7F8948091BF029091C002A091D3
:101B8000C102B091C2022FBF808B918BA28BB38B0D
:101B90007E01FDE0EF0EF11C8CE0D7011D928A95CD
:101BA000E9F76832710589F58AE090E0A0E0B0E0DD
:101BB000F80180879187A287B38748E250E061EA05
:101BC00074E0CE0101960E94610CBE016F5F7F4FF1
:101BD000C7010E9471018D859E85AF85B889F80186
:101BE000848B958BA68BB78B89899A89AB89BC89A5
:101BF000808F918FA28FB38F8D899E89AF89B88D89
:101C0000848F958FA68FB78F79C06830710561F486
:101C100081E090E0A0E0B0E0F80180879187A287A2
:101C2000B38748E050E0CBCF6E32710561F489E0B4
:101C300090E0A0E0B0E0F80180879187A287B387A9
:101C40004EE250E0BCCF6A31710561F483E090E070
:101C5000A0E0B0E0F80180879187A287B3874AE1CE
:101C600050E0ADCF6431710509F056C084E090E0DA
:101C7000A0E0B0E0F80180879187A287B38744E1B4
:101C800050E061EA74E0CE0101960E94610CBE0151
:101C90006F5F7F4FC7010E94710125E33AEF4EE865
:101CA0005CE36D857E858F8598890E943A1FD801F7
:101CB00054966D937D938D939C93579725E33AEFBC
:101CC0004EE85CE369897A898B899C890E943A1F76
:101CD000F801608F718F828F938F25E33AEF4EE882
:101CE0005CE36D897E898F89988D0E943A1FD801A7
:101CF0005C966D937D938D939C935F9781E068963E
:101D00000FB6F894DEBF0FBECDBFDF91CF911F910C
:101D10000F91FF90EF9008956E30710579F782E092
:101D200090E0A0E0B0E0F80180879187A287B387B8
:101D30004EE050E044CF6AE170E08CEA94E00E940B
:101D40008E0D64E170E080ED94E00E948E0D68E2FB
:101D500070E084EF94E00E948E0D6EE070E088E108
:101D600095E00E948E0D68E070E08CE395E00E94A3
:101D70008E0D6EE270E080E695E00E948E0D8091FF
:101D8000500590915105A0915205B0915305809353
:101D9000A8059093A905A093AA05B093AB058091DF
:101DA000540590915505A0915605B0915705809323
:101DB000AC059093AD05A093AE05B093AF058091AF
:101DC000580590915905A0915A05B0915B058093F3
:101DD000B0059093B105A093B205B093B30580917F
:101DE000C0049091C104A091C204B091C304809337
:101DF000CC059093CD05A093CE05B093CF0540912F
:101E0000C4045091C5046091C6047091C704409306
:101E1000D0055093D1056093D2057093D3054091BE
:101E2000C8045091C9046091CA047091CB044093D6
:101E3000D4055093D5056093D6057093D70580934C
:101E4000F4059093F505A093F605B093F7058091FE
:101E50002C0590912D05A0912E05B0912F05809312
:101E6000C0059093C105A093C205B093C3058091AE
:101E7000300590913105A0913205B09133058093E2
:101E8000C4059093C505A093C605B093C70580917E
:101E9000340590913505A0913605B09137058093B2
:101EA000C8059093C905A093CA05B093CB0580914E
:101EB000E4049091E504A091E604B091E7048093D6
:101EC000B4059093B505A093B605B093B70580917E
:101ED000E8049091E904A091EA04B091EB048093A6
:101EE000B8059093B905A093BA05B093BB0580914E
:101EF000EC049091ED04A091EE04B091EF04809376
:101F0000BC059093BD05A093BE05B093BF05089591
:101F10000E949B0E8091A8059091A905A091AA0509
:101F2000B091AB058093B2029093B302A093B40238
:101F3000B093B5028091AC059091AD05A091AE052E
:101F4000B091AF058093AE029093AF02A093B00220
:101F5000B093B1028091B0059091B105A091B20506
:101F6000B091B3058093AA029093AB02A093AC0208
:101F7000B093AD028091B4059091B505A091B605DE
:101F8000B091B7058093A6029093A702A093A802F0
:101F9000B093A9028091B8059091B905A091BA05B6
:101FA000B091BB058093A2029093A302A093A402D8
:101FB000B093A5028091BC059091BD05A091BE058E
:101FC000B091BF0580939E0290939F02A093A002C0
:101FD000B093A1028091C0059091C105A091C20566
:101FE000B091C30580939A0290939B02A0939C02A8
:101FF000B0939D028091C4059091C505A091C6053E
:10200000B091C7058093960290939702A09398028F
:10201000B09399028091C8059091C905A091CA0515
:10202000B091CB058093920290939302A093940277
:10203000B09395028091CC059091CD05A091CE05ED
:10204000B091CF0580938E0290938F02A09390025F
:10205000B09391028091D0059091D105A091D205C5
:10206000B091D30580938A0290938B02A0938C0247
:10207000B0938D028091D4059091D505A091D6059D
:10208000B091D7058093860290938702A09388022F
:10209000B09389020E942E0A2091A6023091A702D5
:1020A0004091A8025091A9026091EC057091ED0554
:1020B0008091EE059091EF050E940B1D08950F93FE
:1020C0001F93CF93DF93CDB7DEB72C970FB6F8945D
:1020D000DEBF0FBECDBF8B01FB01349620E2DF01D6
:1020E0001D922A95E9F744E250E060E070E0F801C3
:1020F0004083518362837383DC0115964D915D911A
:102100006D917C911897448355836683778343E070
:1021100050E060E070E040875187628773872FB797
:10212000F8944091BF025091C0026091C102709139
:10213000C2022FBF408B518B628B738B4AE150E000
:10214000BC01CE0101960E94610C89819A81AB810C
:10215000BC81F801848B958BA68BB78B8D819E817A
:10216000AF81B885808F918FA28FB38F89859A8533
:10217000AB85BC85848F958FA68FB78F81E02C9619
:102180000FB6F894DEBF0FBECDBFDF91CF911F9188
:102190000F910895FC0101900020E9F73197AF01FC
:1021A000481B590BBC0185E393E00C9434028F92D9
:1021B0009F92AF92BF920F931F93CF93DF93CDB7B0
:1021C000DEB7A1970FB6F894DEBF0FBECDBF19A240
:1021D000423008F44AE08E010F5D1F4F842E912C8F
:1021E000B12CA12CA50194010E94C41CE62FB901B9
:1021F000CA01EA30F4F4E05DD801EE938D01232B9F
:10220000242B252B79F790E080E0109719F0CD0171
:102210000E94CA10A1960FB6F894DEBF0FBECDBFC4
:10222000DF91CF911F910F91BF90AF909F908F90B2
:102230000895E95CE1CF4F925F926F927F928F9207
:102240009F92AF92BF92CF92DF92EF92FF920F9345
:102250001F93CF936B017C01742EAC019B010E94F4
:10226000F11F882399F087E791E0CF911F910F919B
:10227000FF90EF90DF90CF90BF90AF909F908F90A6
:102280007F906F905F904F900C94CA104601570159
:10229000E894B7F82FEF3FEF4FE75FE7C501B401D0
:1022A0000E94F11F81110DC02FEF3FEF4FE75FE755
:1022B000C501B4010E94A71D18161CF48BE791E01C
:1022C000D4CF2FEF3FEF4FE75FE4C701B6010E9485
:1022D0002D1F18161CF48FE791E0C7CF2FEF3FEFAB
:1022E0004FE75FECC701B6010E94A71D87FDF3CF42
:1022F00020E030E0A901C701B6010E94A71D10E04F
:1023000000E087FF0AC06DE285E393E00E94D402FB
:102310008C01F7FAF094F7F8F094C0E060E070E018
:1023200080E09FE37C1641F020E030E040E251E4A1
:102330000E94AC1DCF5FF6CFA70196010E940C1D35
:102340002B013C010E94251E4B015C014AE00E94CA
:10235000D7107C01E00EF11ECC23C1F1C501B40100
:102360000E94541E9B01AC01C301B2010E940B1DCF
:102370004B015C016EE285E393E00E94D402E80E1B
:10238000F91EC15018F120E030E040E251E4C501EF
:10239000B4010E943A1F2B013C010E94251E4B01F3
:1023A000B12CA12C4AE0C501B4010E94D710E80E5F
:1023B000F91EC501B4010E94541E9B01AC01C3016A
:1023C000B2010E940B1D4B015C01DBCFC701CF9115
:1023D0001F910F91FF90EF90DF90CF90BF90AF9043
:1023E0009F908F907F906F905F904F90089542E004
:1023F0000C941B11CF93DF9342E00E941B11EC0160
:1024000083E891E00E94CA108C0F9D1FDF91CF914D
:1024100008950C94CA100C94A7200F931F93CF9388
:10242000DF938C01EB0188E2FB0111928A95E9F7B9
:102430004BE050E066E871E0CE010E9430211B863F
:1024400081E090E0A0E0B0E08C879D87AE87BF87F9
:10245000F80185819681A781B085888B998BAA8B9D
:10246000BB8B83E090E0A0E0B0E08C8B9D8BAE8BCB
:10247000BF8B1CA21DA21EA21FA2188E198E1A8E1F
:102480001B8E1C8E1D8E1E8E1F8E8AE097EDA3E282
:10249000BCE388A399A3AAA3BBA3DF91CF911F910B
:1024A0000F91089585ED8093BC0080910D0390916C
:1024B0000E03A0910F03B09110030796A11DB11D4B
:1024C00023E0B695A795979587952A95D1F7209102
:1024D000BC0024FD03C010920B03089540910D032E
:1024E00050910E0360910F0370911003452B462B02
:1024F000472B69F30097A105B10541F025E32A9523
:10250000F1F700000197A109B109E1CF80910C0317
:102510000C94AB071F920F920FB60F9211242F93BA
:102520003F938F939F93AF93BF938091BF029091FE
:10253000C002A091C102B091C2023091B60223E064
:10254000230F2D3758F50196A11DB11D2093B6021A
:102550008093BF029093C002A093C102B093C202C5
:102560008091B7029091B802A091B902B091BA02DD
:102570000196A11DB11D8093B7029093B802A0935C
:10258000B902B093BA02BF91AF919F918F913F91E1
:102590002F910F900FBE0F901F90189526E8230FD4
:1025A0000296A11DB11DD2CF1F920F920FB60F92AE
:1025B00011242F933F934F935F936F937F938F9348
:1025C0009F93AF93BF93EF93FF9385E393E00E94B4
:1025D000B202FF91EF91BF91AF919F918F917F9147
:1025E0006F915F914F913F912F910F900FBE0F9080
:1025F0001F9018951F920F920FB60F9211242F93D0
:102600008F939F93EF93FF93E0914503F0914603DF
:102610008081E0914B03F0914C0382FD1BC09081BF
:1026200080914E038F5F8F7320914F03821741F08B
:10263000E0914E03F0E0EB5CFC4F958F80934E03EE
:10264000FF91EF919F918F912F910F900FBE0F905F
:102650001F9018958081F4CF1F920F920FB60F92A2
:1026600011242F933F934F935F936F937F938F9397
:102670009F93AF93BF93EF93FF938091B900887FAF
:10268000803609F44AC0F0F5883209F4A7C018F57D
:10269000803109F49BC0B8F4882309F4F9C088306C
:1026A00009F494C0FF91EF91BF91AF919F918F91E9
:1026B0007F916F915F914F913F912F910F900FBE3E
:1026C0000F901F901895883109F488C0803251F717
:1026D0008093090314C0803409F49DC040F4803312
:1026E000B9F38833F9F68093090385ECB0C08035DF
:1026F00009F485C0883509F496C0883499F60E949B
:102700005212D0CF883909F48CC038F5883729F0B7
:1027100050F4883611F0803729F683E080930B035C
:1027200010926D0257C0883809F47BC0803919F0C7
:10273000803809F0B7CF80916D02803208F071C007
:10274000E0916D0281E08E0F80936D028091BB005D
:10275000F0E0E35BFD4F80833DC0803B39F0E0F467
:10276000803A09F479C0883A09F09CCF84E08093DC
:102770000B0310924C0210924B02E091BD02F091BB
:10278000BE02099580914B0281110FC081E08093B8
:102790004B0210922B0209C0803C09F4A6CF883C62
:1027A00009F4A3CF883B09F07DCFE0914C0281E092
:1027B0008E0F80934C02F0E0E55DFD4F80818093A9
:1027C000BB0090914C0280914B0229C08091E6029F
:1027D0008093BB0085EC8093BC0064CF909108038C
:1027E00080910703981758F5E091080381E08E0F58
:1027F00080930803F0E0E951FD4F8081E9CFE0913B
:10280000080381E08E0F809308038091BB00F0E005
:10281000E951FD4F80839091080380910703981739
:10282000C8F285E8D8CFE091080381E08E0F80934D
:1028300008038091BB00F0E0E951FD4F8083809157
:102840000A0381115CCF81E08093E50284EA8093E2
:10285000BC0010920B0326CF85EC8093BC00109235
:102860000B0380916D02803230F4E0916D02F0E054
:10287000E35BFD4F108260916D0270E0E091BB025E
:10288000F091BC028DE492E0099510926D020ACF9E
:102890001092090334CF1F920F920FB60F9211249A
:1028A0008F929F92AF92BF92CF92DF92EF92FF9260
:1028B0002F933F934F935F936F937F938F939F9348
:1028C000AF93BF93EF93FF93C0907E02D0907F02AF
:1028D000E0908002F090810220E030E04AE755E489
:1028E000C701B6010E942D1F18160CF07BC080E0B6
:1028F00090E0AAE7B5E480937E0290937F02A093D4
:102900008002B0938102C0907E02D0907F02E0905E
:102910008002F090810246015701B7FAB094B7F8EF
:10292000B09420913604309137044091380450918E
:102930003904C501B4010E94A71D882331F0B501F7
:10294000A40182E294E00E9441032091F2033091BD
:10295000F3034091F4035091F503C701B6010E94BF
:10296000A71D882331F0B701A6018EED93E00E94E8
:1029700041038091460490914704A0914804B0918E
:102980004904892B8A2B8B2B21F082E294E00E9450
:10299000B8058091020490910304A0910404B091C1
:1029A0000504892B8A2B8B2B21F08EED93E00E945E
:1029B000B805FF91EF91BF91AF919F918F917F915A
:1029C0006F915F914F913F912F91FF90EF90DF902A
:1029D000CF90BF90AF909F908F900F900FBE0F90B1
:1029E0001F90189520E030E04AE755ECC701B6018A
:1029F0000E94A71D87FF87CF80E090E0AAE7B5EC93
:102A00007ACF8F929F92AF92BF92CF92DF92EF9246
:102A1000FF920F931F93CF93DF93E5E3F3E01382CD
:102A2000128288EE93E0A0E0B0E084839583A683D1
:102A3000B7832FE231E03183208325EC30E0358706
:102A4000248724EC30E03787268720EC30E0318B78
:102A5000208B21EC30E0338B228B22EC30E0358B65
:102A6000248B26EC30E0378B268B118E128E138E42
:102A7000148E02ED13E0F801138212828483958391
:102A8000A683B78381E491E091838083E0E1F6E05F
:102A9000108211821282138214821582168217828A
:102AA000108611861286138680E690EF958B848BB4
:102AB00080EA9FE0978B868B14861586168617868C
:102AC000108A118A128A138AE8EFF5E082E09BE20D
:102AD000A7E8BCE380839183A283B3831482158229
:102AE0001682178286E993E4ABE8BBE3808791877F
:102AF000A287B38782EE9FEF958B848B8EE190E067
:102B0000978B868B1486158616861786108A118AEF
:102B1000128A138AC6E6D4E083E090E098878F8318
:102B20001B861A861C8686E0EFE1F1E0A5E8B4E09A
:102B300001900D928A95E1F786E0E5E2F1E0AFE7DA
:102B4000B4E001900D928A95E1F784E090E09FA3B4
:102B50008EA319AE18AE1AAE8DE691E09CAF8BAF86
:102B60008FEF9FEFDC018093A6049093A704A093BE
:102B7000A804B093A90486E090E00E940B20FC0119
:102B800088E2808312830183138280E290E0958340
:102B90008483FFAFEEAF10928405109285051092EA
:102BA000860510928705109288051092890510926B
:102BB0008A0510928B0510928C0510928D0510924B
:102BC0008E0510928F05109290051092910510922B
:102BD000920510929305109294051092950510920B
:102BE00096051092970510929805109299051092EB
:102BF0009A0510929B0510929C0510929D051092CB
:102C00009E0510929F051092A0051092A1051092AA
:102C1000A2051092A3051092A4051092A50510928A
:102C2000A6051092A7051092A8051092A90510926A
:102C3000AA051092AB051092AC051092AD0510924A
:102C4000AE051092AF051092B0051092B10510922A
:102C5000B2051092B3051092B4051092B50510920A
:102C6000B6051092B7051092B8051092B9051092EA
:102C7000BA051092BB051092BC051092BD051092CA
:102C8000BE051092BF051092C0051092C1051092AA
:102C9000C2051092C3051092C4051092C50510928A
:102CA000C6051092C7051092C8051092C90510926A
:102CB000CA051092CB051092D8051092D905109232
:102CC000DA051092DB051092DC051092DD051092FA
:102CD000DE051092DF051092E0051092E1051092DA
:102CE000E2051092E3051092E4051092E5051092BA
:102CF000E6051092E7051092E8051092E90510929A
:102D0000EA051092EB051092EC051092ED05109279
:102D1000EE051092EF051092F0051092F105109259
:102D2000F2051092F3051092F4051092F505109239
:102D3000F6051092F705E2E2F4E003E511E01183F5
:102D400000838824839483821486158616861786CA
:102D5000108A118A128A138A148A158A168A178A87
:102D6000C12CD12C80E8E82E8FE3F82EC08ED18EB6
:102D7000E28EF38E148E158E168E178EC0A2D1A2FF
:102D8000E2A2F3A214A215A216A217A2C1E0D0E0FB
:102D9000D5A7C4A799249A9497A610A611A612A6FF
:102DA00013A694E0A92EA48287E08583A68225E05D
:102DB000B22EB78216A614AA15AA16AA17AA10AE82
:102DC00011AE12AE13AE14AE15AE16AE17AEC09263
:102DD0006204D0926304E0926404F092650412826B
:102DE0001086118612861386CF010E94AC0382E200
:102DF00094E00E94E909EEEDF3E011830083838201
:102E00001486158616861786108A118A128A138AE6
:102E1000148A158A168A178AC08ED18EE28EF38E96
:102E2000148E158E168E178EC0A2D1A2E2A2F3A226
:102E300014A215A216A217A2D5A7C4A797A610A6DA
:102E400011A612A613A682E08483B582A682B78259
:102E500016A614AA15AA16AA17AA10AE11AE12AE7B
:102E600013AE14AE15AE16AE17AEC0921E04D092BD
:102E70001F04E0922004F092210412821086118631
:102E800012861386CF010E94AC038EED93E0DF9192
:102E9000CF911F910F91FF90EF90DF90CF90BF9057
:102EA000AF909F908F900C94E909CF93DF93CDB7AB
:102EB000DEB72B970FB6F894DEBF0FBECDBF789468
:102EC00084B5826084BD84B5816084BD85B582602F
:102ED00085BD85B5816085BD80916E0081608093E0
:102EE0006E00109281008091810082608093810049
:102EF0008091810081608093810080918000816059
:102F0000809380008091B10084608093B1008091B3
:102F1000B00081608093B00080917A0084608093DB
:102F20007A0080917A00826080937A0080917A00A2
:102F3000816080937A0080917A00806880937A0023
:102F40001092C10010928000109281008AE090E0FF
:102F5000909389008093880080916F0082608093B5
:102F60006F00809181008860809381008AB1846BBA
:102F70008AB980918100836080938100E09145034C
:102F8000F091460382E08083E0914103F091420397
:102F90001082E0914303F091440380E1808310921A
:102FA0004D03E0914903F0914A0386E08083E0916C
:102FB0004703F0914803808180618083E09147035B
:102FC000F0914803808188608083E0914703F0910D
:102FD0004803808180688083E0914703F091480333
:102FE00080818F7D80830E9494078CE08093B8005D
:102FF00086E090E00E940B208C0188E2F80180833B
:1030000082ED93E092838183138280E290E0958346
:1030100084838B818093A3041093A5040093A4045C
:1030200087E390E0A0E0B0E08093A6049093A7042B
:10303000A093A804B093A9048A859B859093AB04C0
:103040008093AA040E94940781E0F8018383C80159
:103050000E94DA08882391F10E944A0C803A21F5F7
:103060001092AB041092AA0460E08DE390E00E94FD
:10307000DF0A6EE170E080E090E00E94020260E210
:103080008FE390E00E94DF0A6EE170E080E090E064
:103090000E9402020E944A0C803A09F4C4C16AE00C
:1030A00070E080E090E0F4CF68EE73E080E090E0C4
:1030B0000E9402020E944A0C803A91F220E030E025
:1030C0004AE755E460913A0470913B0480913C04D6
:1030D00090913D040E94A71D882309F453C080E00D
:1030E00090E0AAE7B5E480933A0490933B04A09360
:1030F0003C04B0933D0480E090E0AAE7B3E4809301
:10310000620490936304A0936404B0936504809177
:10311000560490915704A0915804B0915904181680
:1031200019061A061B0674F560913604709137046F
:1031300080913804909139049B01AC010E943A1FA0
:103140006B017C0160913E0470913F0480914004CA
:10315000909141049B01AC010E940C1D9B01AC01AC
:10316000C701B6010E94AC1D0E941E1E609356044A
:1031700070935704809358049093590482E294E02A
:103180000E94FD0520E030E04AE755E46091F60337
:103190007091F7038091F8039091F9030E94A71DA5
:1031A000882309F453C080E090E0AAE7B5E4809357
:1031B000F6039093F703A093F803B093F90380E02C
:1031C00090E0AAE7B3E480931E0490931F04A093B9
:1031D0002004B09321048091120490911304A091D3
:1031E0001404B0911504181619061A061B0674F576
:1031F0006091F2037091F3038091F4039091F503D1
:103200009B01AC010E943A1F6B017C016091FA03A3
:103210007091FB038091FC039091FD039B01AC0135
:103220000E940C1D9B01AC01C701B6010E94AC1DA0
:103230000E941E1E60931204709313048093140462
:10324000909315048EED93E00E94FD0590E0292EE9
:1032500090E0392E812C912C20E8A22E2FE3B22E63
:103260000E949B0E80911801882309F4ABC18DE860
:1032700091E00E94CA1083E891E00E94CA10109267
:103280007202109273021092740210927502809270
:103290000C0190920D01A0920E01B0920F011092BC
:1032A0007602109277021092780210927902809240
:1032B000100190921101A0921201B092130110928C
:1032C0007A0210927B0210927C0210927D02809210
:1032D000140190921501A0921601B09217010E945C
:1032E000880F60938202709383028093840290938C
:1032F00085020E94BD0060936E0270936F028093FE
:10330000700290937102209110013091110140914F
:1033100012015091130160910C0170910D01809187
:103320000E0190910F010E940C1D2091140130910B
:10333000150140911601509117010E940C1D27E1C3
:1033400037EB41ED58E30E942D1F18160CF00EC10B
:1033500082E7E82E82E0F82E0CE011E0D12CC12C9F
:10336000F8012081318142815381F70160817181AF
:10337000828193810E940C1DAB01BC01F701408347
:10338000518362837383C6010E9488090E94880F5B
:1033900060938202709383028093840290938502EB
:1033A0000E94BD002B013C0140927E0250927F02A0
:1033B000609280027092810220916E0230916F02C1
:1033C00040917002509171020E94A71D87FF64C056
:1033D00040926E0250926F0260927002709271027F
:1033E0002DEC3CEC4CE85FE3F80160817181828157
:1033F00093810E943A1FF8016083718382839383D3
:10340000F70161917191819191917F010E94FA116F
:10341000FFEFCF1ADF0A0C5F1F4F83E0C816D104FD
:1034200009F09ECF70CF62E370E080E090E00E94F0
:10343000020260E08EE390E00E94DF0A6AE070E042
:1034400080E090E00E94020260E087E090E00E944D
:10345000DF0A60E08FE390E00E94DF0A6AE070E03C
:1034600080E090E00E9402028CE090E09093AB0438
:103470008093AA046CE08DE390E00E94DF0A6EE185
:1034800070E080E090E00E94020264E170E080E081
:1034900090E00E94020212CEF80160817181828167
:1034A00093819B01AC010E940C1D9B01AC01F701B3
:1034B00060817181828193810E940B1DAB01BC01EF
:1034C000F7014083518362837383C6010E94880998
:1034D0000E94880F6093820270938302809384021B
:1034E000909385020E94BD002B013C0140927E0218
:1034F00050927F02609280027092810220916E024F
:1035000030916F0240917002509171020E94A71D8C
:1035100087FF0DC040926E0250926F02609270025F
:103520007092710226E636E646E85FE35DCFF80169
:103530004080518062807380F70120813181428117
:103540005381C301B2010E940C1DAB01BC01F70104
:103550004083518362837383C6010E94880923E3F9
:1035600033E343E75FE3C301B20143CF87E991E06F
:103570000E94091260911006709111068091120646
:10358000909113060E94F7118BE991E00E940912B5
:103590006091140670911506809116069091170699
:1035A0000E94F71180EA91E00E94091260911806CA
:1035B0007091190680911A0690911B060E94FA11CB
:1035C000109218018091A8059091A905A091AA05D3
:1035D000B091AB058093B2029093B302A093B40272
:1035E000B093B5028091AC059091AD05A091AE0568
:1035F000B091AF058093AE029093AF02A093B0025A
:10360000B093B1028091B0059091B105A091B2053F
:10361000B091B3058093AA029093AB02A093AC0241
:10362000B093AD028091B4059091B505A091B60517
:10363000B091B7058093A6029093A702A093A80229
:10364000B093A9028091B8059091B905A091BA05EF
:10365000B091BB058093A2029093A302A093A40211
:10366000B093A5028091BC059091BD05A091BE05C7
:10367000B091BF0580939E0290939F02A093A002F9
:10368000B093A1028091C0059091C105A091C2059F
:10369000B091C30580939A0290939B02A0939C02E1
:1036A000B0939D028091C4059091C505A091C60577
:1036B000B091C7058093960290939702A0939802C9
:1036C000B09399028091C8059091C905A091CA054F
:1036D000B091CB058093920290939302A0939402B1
:1036E000B09395028091CC059091CD05A091CE0527
:1036F000B091CF0580938E0290938F02A093900299
:10370000B09391028091D0059091D105A091D205FE
:10371000B091D30580938A0290938B02A0938C0280
:10372000B0938D028091D4059091D505A091D605D6
:10373000B091D7058093860290938702A093880268
:10374000B09389020E942E0A85EA91E00E94091234
:103750008DEA91E00E9409126091B2027091B30269
:103760008091B4029091B5020E94F71182EB91E032
:103770000E9409126091AE027091AF028091B00276
:103780009091B1020E94F71189EB91E00E94091219
:103790006091AA027091AB028091AC029091AD024F
:1037A0000E94F71180EC91E00E9409128DEA91E0ED
:1037B0000E9409126091A6027091A7028091A8024E
:1037C0009091A9020E94F71182EB91E00E940912E8
:1037D0006091A2027091A3028091A4029091A5022F
:1037E0000E94F71189EB91E00E94091260919E02FC
:1037F00070919F028091A0029091A1020E94F71106
:1038000088EC91E00E9409128DEA91E00E94091271
:1038100060919A0270919B0280919C0290919D020E
:103820000E94F71182EB91E00E94091260919602CA
:103830007091970280919802909199020E94F711DD
:1038400089EB91E00E9409126091920270919302BB
:1038500080919402909195020E94F7118FEC91E073
:103860000E9409128DEA91E00E94091260918E0275
:1038700070918F0280919002909191020E94F711B5
:1038800082EB91E00E94091260918A0270918B0292
:1038900080918C0290918D020E94F71189EB91E04A
:1038A0000E940912609186027091870280918802BD
:1038B000909189020E94F71189ED91E00E9409120E
:1038C0006091EC057091ED058091EE059091EF050A
:1038D0000E94F71182EE91E00E9409126091F005BA
:1038E0007091F1058091F2059091F3050E94F71116
:1038F0000E94880F609382027093830280938402F7
:10390000909385020E94BD006B017C018AEE91E0DC
:103910000E94091260918202709183028091840258
:10392000909185020E94F71186EF91E00E940912A2
:10393000C701B6010E94F711C0927E02D0927F02A9
:10394000E0928002F092810282E092E00E940912ED
:1039500060917E0270917F0280918002909181023D
:103960000E94FA1164E670E080E090E00E9402029A
:103970002114310409F474CC0E949E02882309F4B6
:103980006FCC0E9400006CCCA1E21A2EAA1BBB1BBC
:10399000FD010DC0AA1FBB1FEE1FFF1FA217B3071B
:1039A000E407F50720F0A21BB30BE40BF50B661F31
:1039B000771F881F991F1A9469F7609570958095F5
:1039C00090959B01AC01BD01CF010895052E97FB99
:1039D0001EF400940E94FD1C57FD07D00E94C41CD9
:1039E00007FC03D04EF40C94FD1C50954095309587
:1039F00021953F4F4F4F5F4F08959095809570955B
:103A000061957F4F8F4F9F4F0895EE0FFF1F0590D9
:103A1000F491E02D09945058BB27AA270E94231D3A
:103A20000C94F31E0E94E51E38F00E94EC1E20F05C
:103A300039F49F3F19F426F40C94BB1E0EF4E09564
:103A4000E7FB0C94B51EE92F0E94041F58F3BA1728
:103A5000620773078407950720F079F4A6F50C94A4
:103A6000261F0EF4E0950B2EBA2FA02D0B01B901E5
:103A700090010C01CA01A0011124FF27591B99F0E4
:103A8000593F50F4503E68F11A16F040A22F232FF0
:103A9000342F4427585FF3CF469537952795A79540
:103AA000F0405395C9F77EF41F16BA0B620B730BE7
:103AB000840BBAF09150A1F0FF0FBB1F661F771F58
:103AC000881FC2F70EC0BA0F621F731F841F48F40D
:103AD000879577956795B795F7959E3F08F0B0CF96
:103AE0009395880F08F09927EE0F9795879508957D
:103AF000DF93DD27B92FBF7740E85FE3161617067F
:103B000048075B0718F4D92F0E94321F9F938F93A9
:103B10007F936F930E94ED1FE8E6F0E00E94BE1EC7
:103B20000E94F31E2F913F914F915F910E944D1F74
:103B3000DD2351F09058A2EA2AED3FE049EC5FE323
:103B4000D0785D270E94231DDF910C94F31E0E9404
:103B5000911E08F481E008950E94C01D0C94F31E8C
:103B60000E94EC1E58F00E94E51E40F029F45F3FD1
:103B700029F00C94B51E51110C94271F0C94BB1EF8
:103B80000E94041F68F39923B1F3552391F3951B09
:103B9000550BBB27AA2762177307840738F09F5F6E
:103BA0005F4F220F331F441FAA1FA9F335D00E2EDB
:103BB0003AF0E0E832D091505040E695001CCAF748
:103BC0002BD0FE2F29D0660F771F881FBB1F26170B
:103BD00037074807AB07B0E809F0BB0B802DBF01E2
:103BE000FF2793585F4F3AF09E3F510578F00C94B1
:103BF000B51E0C94271F5F3FE4F3983ED4F38695DF
:103C000077956795B795F7959F5FC9F7880F911DD1
:103C10009695879597F90895E1E0660F771F881FBD
:103C2000BB1F621773078407BA0720F0621B730B70
:103C3000840BBA0BEE1F88F7E09508950E94251EAD
:103C40006894B1110C94271F08950E940C1F88F0EE
:103C50009F5798F0B92F9927B751B0F0E1F0660F50
:103C6000771F881F991F1AF0BA95C9F714C0B13091
:103C700091F00E94261FB1E008950C94261F672F33
:103C8000782F8827B85F39F0B93FCCF386957795C0
:103C90006795B395D9F73EF49095809570956195A9
:103CA0007F4F8F4F9F4F0895E89409C097FB3EF4D4
:103CB00090958095709561957F4F8F4F9F4F992379
:103CC000A9F0F92F96E9BB279395F69587957795F7
:103CD0006795B795F111F8CFFAF4BB0F11F460FFB7
:103CE0001BC06F5F7F4F8F4F9F4F16C0882311F00F
:103CF00096E911C0772321F09EE8872F762F05C023
:103D0000662371F096E8862F70E060E02AF09A95BD
:103D1000660F771F881FDAF7880F9695879597F9B2
:103D20000895990F0008550FAA0BE0E8FEEF16164C
:103D30001706E807F907C0F012161306E407F5079F
:103D400098F0621B730B840B950B39F40A2661F013
:103D5000232B242B252B21F408950A2609F4A140B6
:103D6000A6958FEF811D811D089597F99F6780E8C3
:103D700070E060E008959FEF80EC0895DF93CF93AB
:103D80001F930F93FF92EF92DF927B018C01689457
:103D900006C0DA2EEF010E944D1FFE01E894A591A6
:103DA0002591359145915591A6F3EF010E94231D70
:103DB000FE019701A801DA9469F7DF90EF90FF9078
:103DC0000F911F91CF91DF91089500240A94161648
:103DD000170618060906089500240A9412161306F9
:103DE000140605060895092E0394000C11F4882387
:103DF00052F0BB0F40F4BF2B11F460FF04C06F5FA3
:103E00007F4F8F4F9F4F089557FD9058440F551F78
:103E100059F05F3F71F04795880F97FB991F61F04C
:103E20009F3F79F087950895121613061406551FC3
:103E3000F2CF4695F1DF08C0161617061806991F2F
:103E4000F1CF86957105610508940895E894BB2724
:103E500066277727CB0197F908950E94911E08F4F1
:103E60008FEF08959B01AC0160E070E080E89FE374
:103E70000C94AC1D0E944D1F0C94F31E0E94E51E75
:103E800038F00E94EC1E20F0952311F00C94B51E22
:103E90000C94BB1E11240C94271F0E94041F70F366
:103EA000959FC1F3950F50E0551F629FF001729FDF
:103EB000BB27F00DB11D639FAA27F00DB11DAA1FEE
:103EC000649F6627B00DA11D661F829F2227B00D3B
:103ED000A11D621F739FB00DA11D621F839FA00DC6
:103EE000611D221F749F3327A00D611D231F849F16
:103EF000600D211D822F762F6A2F11249F5750406D
:103F00009AF0F1F088234AF0EE0FFF1FBB1F661FE7
:103F1000771F881F91505040A9F79E3F510580F0B0
:103F20000C94B51E0C94271F5F3FE4F3983ED4F326
:103F3000869577956795B795F795E7959F5FC1F754
:103F4000FE2B880F911D9695879597F9089519F482
:103F500016F40C94BB1E0C94F61F0E940C1FB8F3B1
:103F60009923C9F3B6F39F57550B87FF0E9404208E
:103F70000024A0E640EA900180585695979528F4D1
:103F8000805C660F771F881F20F0261737074807C9
:103F900030F4621B730B840B202931294A2BA69520
:103FA00017940794202531254A2758F7660F771F65
:103FB000881F20F026173707480730F4620B730B71
:103FC000840B200D311D411DA09581F7B901842F6F
:103FD0009158880F9695879508959B01AC010C9494
:103FE0003A1F0E94911E880B990B08959F3F31F054
:103FF000915020F4879577956795B795880F911D17
:104000009695879597F9089591505040660F771FC0
:10401000881FD2F708950F931F93CF93DF938230B9
:10402000910510F482E090E0E0912A06F0912B06D1
:1040300030E020E0B0E0A0E0309799F421153105A0
:1040400009F44AC0281B390B24303105D8F58A8180
:104050009B816115710589F1FB0193838283FE01C8
:1040600011C0408151810281138148175907E0F046
:104070004817590799F4109761F012960C9312970C
:1040800013961C933296CF01DF91CF911F910F9120
:10409000089500932A0610932B06F4CF21153105BD
:1040A00051F04217530738F0A901DB019A01BD0115
:1040B000DF01F801C1CFEF01F9CF90932B06809378
:1040C0002A06CDCFFE01E20FF31F81939193225078
:1040D000310939832883D7CF2091280630912906CA
:1040E000232B41F420911B0130911C0130932906B0
:1040F000209328062091190130911A0121153105CC
:1041000041F42DB73EB740911D0150911E01241B73
:10411000350BE0912806F0912906E217F307A0F489
:104120002E1B3F0B2817390778F0AC014E5F5F4F0D
:104130002417350748F04E0F5F1F50932906409310
:104140002806819391939FCFF0E0E0E09CCFCF933E
:10415000DF930097E9F0FC01329713821282A0915D
:104160002A06B0912B06ED0130E020E01097A1F473
:1041700020813181820F931F2091280630912906DA
:104180002817390709F061C0F0932906E093280643
:10419000DF91CF910895EA01CE17DF07E8F54A8154
:1041A0005B819E0141155105B1F7E901FB83EA836B
:1041B00049915991C40FD51FEC17FD0761F4808117
:1041C00091810296840F951FE901998388838281EA
:1041D00093819B838A83F0E0E0E012968D919C911D
:1041E00013970097B9F52D913C911197CD01029647
:1041F000820F931F2091280630912906281739072E
:1042000039F6309751F510922B0610922A06B0938A
:104210002906A0932806BCCFD383C2834081518155
:10422000840F951FC817D90761F44E5F5F4F8881CF
:104230009981480F591F518340838A819B819383C1
:1042400082832115310509F0B0CFF0932B06E0935E
:104250002A069ECFFD01DC01C0CF13821282D7CF88
:10426000FB01DC014150504048F001900D920020CC
:10427000C9F701C01D9241505040E0F70895F894ED
:02428000FFCF6E
:10428200CDCCCC3D0000803F0000803F0000803F4D
:104292000000803F0000803F0100002C06800001EA
:1042A2008001800180FF7FFF7FFF7F00000000D43C
:1042B20002340261022103920270028402000000B1
:1042C20000560929098509FF0822090F090009007A
:1042D200000000DA03AC033A0578052405F204D1A4
:1042E200049D047C042604F7030000000070010B07
:1042F2001290015F100D126E616E00696E66006FA2
:104302007666000D0A00424E4F30353500747769EB
:1043120064646C696E6700503A200020493A2000BC
:1043220020443A2000416363656C3A200009783DDD
:104332002000207C09793D2000207C097A3D200064
:10434200204779726F3A2000204D61673A200020A1
:104352004F7269656E743A20002050697463683A3E
:10436200200020526F6C6C3A200020202020416EE9
:10437200676C653A20002020202053706565643AFE
:0E43820020002020202054696C743A20000096
:00000001FF
