:100000000C9474000C949C000C949C000C949C0028
:100010000C949C000C949C000C949C000C949C00F0
:100020000C949C000C949C000C949C000C94181054
:100030000C949C000C949C000C949C000C949C00D0
:100040000C94570E0C949C000C94C70E0C94A10EAB
:100050000C949C000C949C000C949C000C949C00B0
:100060000C94F90E0C949C00084AD73B3BCE016ED1
:1000700084BCBFFDC12F3D6C74319ABD56833DDAFF
:100080003D00C77F11BED9E4BB4C3E916BAAAABE0E
:10009000000000803F000000000800020100000393
:1000A0000407000000000000000000000000250020
:1000B00028002B0000000000240027002A00040470
:1000C0000404040404040202020202020303030300
:1000D00003030102040810204080010204081020DC
:1000E000010204081020531111241FBECFEFD8E0E5
:1000F000DEBFCDBF11E0A0E0B1E0E0E2FCE302C072
:1001000005900D92AC3DB107D9F725E0ACEDB1E01B
:1001100001C01D92A63AB207E1F710E0C4E7D0E0B3
:1001200004C02197FE010E94D419C337D107C9F733
:100130000E942C140C940E1E0C9400004F925F929F
:100140006F927F928F929F92AF92BF92CF92DF92E7
:10015000EF92FF920F931F93CF93DF93C090AC0366
:10016000D090AD03E090AE03F090AF038091A80370
:100170009091A903A091AA03B091AB03C81AD90A20
:10018000EA0AFB0A6091B0037091B1038091B20357
:100190009091B3039B01AC010E94091C4B015C01CF
:1001A0006091B8037091B9038091BA039091BB0339
:1001B0009B01AC010E94DB199B01AC01C501B4019C
:1001C0000E947B1A0E94ED1AC114D104E104F104CB
:1001D00009F0D3C062307105810591050CF0F2C0C1
:1001E0001092C0031092C1031092C2031092C30375
:1001F0001092B0031092B1031092B2031092B303A5
:100200001092D0031092D1031092D2031092D30314
:10021000DF91CF911F910F91FF90EF90DF90CF90E2
:10022000BF90AF909F908F907F906F905F904F9016
:1002300008951016110612061306DCF46C157D05E0
:100240008E059F0524F420919E032111BBC09B01C4
:10025000AC0188279927DC01821B930BA40BB50BFB
:100260008093D0039093D103A093D203B093D30390
:10027000A9C0011511052105310509F4A3C06C15AC
:100280007D058E059F050CF09DC080919E038823FF
:1002900009F498C030952095109501951F4F2F4F68
:1002A0003F4F0093D0031093D1032093D203309398
:1002B000D30388C0011511052105310509F482C059
:1002C0008824992454018C189D08AE08BF0868152D
:1002D00079058A059B050CF075C080919E038111FC
:1002E00071C0D8CFC090D803D090D903E090DA0382
:1002F000F090DB03A7019601C701B6010E94DB194C
:100300002B013C01C501B4010E94251B20E030E017
:1003100040E850E40E94091C20E030E040E85FE340
:100320000E94DB199B01AC01C301B2010E947B1A40
:100330009B01AC01C701B6010E94DA19D62FC72F65
:100340006C01E090DC03F090DD030091DE0310917E
:10035000DF039701A8010E94FC1B18161CF4ED2E68
:10036000FC2E8601C701D8018093D8039093D9034E
:10037000A093DA03B093DB034CC00091D00310913B
:10038000D1032091D2033091D3031C141D041E0409
:100390001F040CF44ECF10161106120613060CF0B3
:1003A00089CF0027112798010C191D092E093F0933
:1003B00060177107820793070CF049CF20919E03C5
:1003C000211145CF8090D0039090D103A090D2030B
:1003D000B090D30381149104A104B10409F082CF39
:1003E0008091D4039091D503A091D603B091D70307
:1003F0008093D8039093D903A093DA03B093DB03DF
:1004000081E01C141D041E041F040CF080E0809386
:100410009E033FEF831A930AA30AB30A8092D00384
:100420009092D103A092D203B092D303C090D8038C
:10043000D090D903E090DA03F090DB03C701B60156
:100440000E94F41A6093C0037093C1038093C203A7
:100450009093C303A701960160E074E284E799E4F6
:100460000E947B1A6093B0037093B1038093B20330
:100470009093B30320919E032111CACE90586093AC
:10048000B0037093B1038093B2039093B303C0CED3
:1004900090E0FC01EE52FF4F249182549F4FFC01EB
:1004A0008491882399F090E0880F991FFC01EC5407
:1004B000FF4FA591B491FC01E655FF4F85919491B2
:1004C0008FB7F894EC91E22BEC938FBF08950895C9
:1004D00008950895FB014081518162817381DC019F
:1004E0004D935D936D937C93139744815581668101
:1004F000778114964D935D936D937C931797408508
:10050000518562857385FC014087518762877387B7
:100510000895089590E0FC01EA56FF4F2491FC01F4
:10052000EE52FF4F3491FC01E254FF4FE491EE2371
:10053000C9F0222339F0233001F1A8F4213019F158
:10054000223029F1F0E0EE0FFF1FE655FF4FA59195
:10055000B4918FB7F894EC91611126C030953E2389
:100560003C938FBF08952730A9F02830C9F024307C
:1005700049F7809180008F7D03C0809180008F7744
:1005800080938000DFCF84B58F7784BDDBCF84B5C7
:100590008F7DFBCF8091B0008F778093B000D2CF5A
:1005A0008091B0008F7DF9CF3E2BDACF3FB7F89422
:1005B0008091750290917602A0917702B0917802B5
:1005C00026B5A89B05C02F3F19F00196A11DB11DAE
:1005D0003FBFBA2FA92F982F8827BC01CD01620FEA
:1005E000711D811D911D42E0660F771F881F991FA5
:1005F0004A95D1F708958F929F92AF92BF92CF9272
:10060000DF92EF92FF924B015C010E94D6026B01D8
:100610007C010E94D6026C197D098E099F09683EF3
:10062000734081059105A8F321E0821A9108A10881
:10063000B10888EEC80E83E0D81EE11CF11C8114BD
:100640009104A104B10429F7FF90EF90DF90CF90BF
:10065000BF90AF909F908F900895AF92BF92CF922E
:10066000DF92EF92FF920F931F93CF93DF936C0172
:100670007B018B01040F151FEB015E01AE18BF0853
:10068000C017D10759F06991D601ED91FC91019005
:10069000F081E02DC6010995892B79F7C501DF911D
:1006A000CF911F910F91FF90EF90DF90CF90BF906F
:1006B000AF900895FC01538D448D252F30E0842F99
:1006C00090E0821B930B541710F0CF96089501977A
:1006D0000895FC01918D828D981761F0A28DAE0F67
:1006E000BF2FB11D5D968C91928D9F5F9F73928FEE
:1006F00090E008958FEF9FEF0895FC01918D828D1A
:10070000981731F0828DE80FF11D858D90E00895E6
:100710008FEF9FEF0895FC01918D228D892F90E03E
:10072000805C9F4F821B91098F739927089583EFF7
:1007300092E00E948B0321E0892B09F420E0822FB4
:10074000089580E090E0892B29F00E9497038111A1
:100750000C9400000895FC01A48DA80FB92FB11DC1
:10076000A35ABF4F2C91848D90E001968F739927E7
:10077000848FA689B7892C93A089B1898C918370C5
:1007800080648C93938D848D981306C00288F389BE
:10079000E02D80818F7D80830895EF92FF920F93EB
:1007A0001F93CF93DF93EC0181E0888F9B8D8C8D1D
:1007B00098131AC0E889F989808185FF15C09FB711
:1007C000F894EE89FF896083E889F98980818370D4
:1007D000806480839FBF81E090E0DF91CF911F9183
:1007E0000F91FF90EF900895F62E0B8D10E00F5FA4
:1007F0001F4F0F731127E02E8C8D8E110CC00FB67A
:1008000007FCFACFE889F989808185FFF5CFCE0111
:100810000E94AB03F1CFEB8DEC0FFD2FF11DE35ADE
:10082000FF4FF0829FB7F8940B8FEA89FB89808194
:100830008062CFCFCF93DF93EC01888D8823B9F00E
:10084000AA89BB89E889F9898C9185FD03C08081DB
:1008500086FD0DC00FB607FCF7CF8C9185FFF2CF58
:10086000808185FFEDCFCE010E94AB03E9CFDF9100
:10087000CF910895CF93DF93FC012381222329F1A7
:10088000EC0184810E9448028D810E9448028B8184
:10089000843011F0883099F48E810E9448028F8153
:1008A0000E9448028FA58F3F81F00E9448026EA5EA
:1008B00081E068278FA5DF91CF910C948A02833065
:1008C00011F0863079F78E81EBCFDF91CF910895CB
:1008D000CF93DF93FC0123812223A1F0EC0101904F
:1008E000F081E02D0480F581E02D60E009958FA571
:1008F0008F3F41F00E9448026EA58FA5DF91CF91F6
:100900000C948A02DF91CF910895DC01ED91FC9166
:100910002481358147705527662777274150510933
:1009200061097109473051056105710560F4FA01EB
:10093000E456FB4F0C94D419A604A804AA04AC04F2
:10094000AE04B004B20461E0F901099465E0FCCFA3
:1009500064E0FACF66E0F8CF62E0F6CF6AE0F4CF69
:1009600068E0F2CF69E0F0CFCF93DF93EC01CB01E9
:10097000BA0126E030E040E050E00E94B519623054
:1009800071058105910589F16CF461157105810589
:100990009105D1F06130710581059105F9F0DF9184
:1009A000CF910895643071058105910561F124F1BD
:1009B000653071058105910591F7E881F981048021
:1009C000F581E02D66E006C0E881F9810480F581BB
:1009D000E02D64E0CE01DF91CF910994E881F981A7
:1009E0000480F581E02D65E0F5CFE881F981048090
:1009F000F581E02D61E0EECFE881F9810480F58199
:100A0000E02D63E0E7CFE881F9810480F581E02DF6
:100A100062E0E0CFDC01ED91FC910480F581E02DF6
:100A200043705527662777274230510561057105C8
:100A300071F0433051056105710559F041305105A0
:100A40006105710511F065E0099466E0FDCF6AE08B
:100A5000FBCF69E0F9CFCF93DF93EC01CB01BA0173
:100A600023E030E040E050E00E94B51961307105AC
:100A70008105910599F06230710581059105A9F014
:100A8000672B682B692BC1F4E881F9810480F5811B
:100A9000E02D64E0CE01DF91CF910994E881F981E6
:100AA0000480F581E02D61E0F5CFE881F9810480D3
:100AB000F581E02D62E0EECFDF91CF910895DC016A
:100AC000ED91FC910480F581E02D43705527662758
:100AD0007727423051056105710571F043305105AA
:100AE0006105710559F0413051056105710511F03D
:100AF00062E0099463E0FDCF61E0FBCF60E0F9CFF5
:100B0000CF93DF93EC01E881F9810480F581E02D3A
:100B10008A8160E0811162E0CE010995E881F98166
:100B20000480F581E02D8A8161E0811163E0CE01CE
:100B300009958CA59DA58230910538F0880F991FE5
:100B4000880F991F05970197F1F7E881F9810480D3
:100B5000F581E02D8A8160E0811162E0CE01DF91B4
:100B6000CF910994CF93DF93EC0120E030E0A9010D
:100B70006C897D898E899F890E94FC1B18162CF434
:100B8000E8A9F9A9DF91CF910994EAA9FBA9FACFC5
:100B9000CF92DF92EF92FF920F931F93CF93DF9349
:100BA000DC011396CC91C43039F0C83059F1C33010
:100BB00019F0C63049F1C2E08C010C5F1F4FF12CD7
:100BC000E12CC62ED12CD1E0F8016481C6010E2C97
:100BD00002C0959587950A94E2F780FD6D270F5F17
:100BE0001F4F80810E948A02BFEFEB1AFB0AEC16AE
:100BF00058F3DF91CF911F910F91FF90EF90DF900D
:100C0000CF900895C4E0D8CFC3E0D6CFDC011396CF
:100C1000EC911397E93008F038C0F0E0EE5EF94F40
:100C20000C94D4191B06210627062D06330645060B
:100C3000390645063F06ED91FC910084F185E02DD3
:100C40000994ED91FC910284F385E02DF9CFED91AB
:100C5000FC910484F585E02DF3CFED91FC910684A1
:100C6000F785E02DEDCFED91FC910088F189E02D25
:100C7000E7CFED91FC910288F389E02DE1CFED9172
:100C8000FC910488F589E02DDBCF089520911902AD
:100C9000260F3327331F21323105ECF42091C9028E
:100CA000FC0190E080E0243069F082E00895A0919A
:100CB00019022191AC0147505E4FA40FB52FB11D11
:100CC0002C930196861798F380911902680F609310
:100CD000190280E0089581E008951092C90281E030
:100CE0008093C8021092A30261E082E10E948A020E
:100CF00061E083E10E948A02E9EBF0E080818E7F6F
:100D0000808380818D7F808388E48093B80085E430
:100D10008093BC000895109282021092810210927A
:100D2000D0021092F2020E946D0687E692E0909344
:100D30007C0280937B0288E692E090937A02809313
:100D400079020895CF93DF9391E09093F80188237F
:100D5000B9F0C091B800D091BA008091BC008A7BF4
:100D60008093BC0060E082E10E948A0260E083E13F
:100D70000E948A020E946D06D093BA00C093B80008
:100D8000DF91CF9108958F929F92AF92BF92CF92B1
:100D9000DF92EF92FF920F931F93CF93DF93D09147
:100DA000F202D13208F0D7C0182FC091F1020E9490
:100DB000D6026B017C018091C90281116BC082E077
:100DC0008093C9021093C8028FEF8093C7021092DC
:100DD000C602D093C502A1EDB2E0E5EAF2E080E000
:100DE000D81391C01092A4028091A402CC0FC82BFA
:100DF000C093A4028091A302813009F088C01092B0
:100E0000A3020E94D6026B017C018091A402809310
:100E1000BB008091CB029091CC02A091CD02B09109
:100E2000CE02892B8A2B8B2BA1F00E94D602009137
:100E3000CB021091CC022091CD023091CE026C19E0
:100E40007D098E099F09061717072807390708F437
:100E500042C08091BC0083FDD8CF85EC8093BC005C
:100E60000E94D6026B017C018091C902823009F494
:100E700050C08091C7028F3F09F46FC08091C702B4
:100E8000803209F46CC08091C702803309F469C0D4
:100E900084E026C08091CB029091CC02A091CD023B
:100EA000B091CE02892B8A2B8B2B09F484CF0E9420
:100EB000D6028090CB029090CC02A090CD02B09050
:100EC000CE026C197D098E099F0986169706A80621
:100ED000B90608F070CF8091CA020E94A20685E090
:100EE0001092D0021092F2021092CF02DF91CF91B5
:100EF0001F910F91FF90EF90DF90CF90BF90AF9038
:100F00009F908F9008959D9191938F5F69CF85EE0B
:100F1000A5CF8091CB029091CC02A091CD02B0914F
:100F2000CE02892B8A2B8B2B09F49ECF0E94D602EE
:100F30000091CB021091CC022091CD023091CE02D3
:100F40006C197D098E099F090617170728073907AD
:100F500008F08ACFC0CF81E0C3CF80E0C1CF82E06C
:100F6000BFCF83E0BDCF1F93CF93DF93EA01122F52
:100F7000DC0111968D919C91DC01ED91FC91028038
:100F8000F381E02D0995C817D90729F4812F0E9414
:100F9000C30691E0811190E0892FDF91CF911F91DD
:100FA0000895CF93DF93EC018B818823A1F0888192
:100FB00091E09093CF028093F1021092D0021092B0
:100FC000F20281E00E94C30691E0811190E0892F36
:100FD000DF91CF9108950E948B0681E08B83CE0133
:100FE0000E94D107982F8111E2CFF1CF0895E091AF
:100FF000820280918102E81730F4F0E0ED57FD4F56
:10100000808190E008958FEF9FEF08959091820284
:10101000809181022FEF3FEF981748F4E92FF0E01D
:10102000ED57FD4F208130E09F5F90938202C90110
:1010300008958091810290918202891B990B0895F5
:10104000CF92DF92EF92FF920F931F93CF93DF9394
:101050007C01CB018A012091CF02222389F0EB0190
:101060006B01C40ED51ECC15DD0569F06991D70161
:10107000ED91FC910190F081E02DC7010995F3CF2E
:10108000642F0E944606C801DF91CF911F910F91F6
:10109000FF90EF90DF90CF900895CF93DF931F9252
:1010A000CDB7DEB769832091CF022223F9F02091DA
:1010B000F202203258F021E030E0FC013383228339
:1010C00090E080E00F90DF91CF9108958091D00261
:1010D000E82FF0E0EF52FD4F998190838F5F80936E
:1010E000D0028093F20281E090E0ECCF61E0CE018B
:1010F00001960E944606F7CF90E080E00895FC013B
:1011000001900020E9F73197AF01481B590BBC0152
:1011100083EF92E00C942D038F929F92AF92BF9237
:101120000F931F93CF93DF93CDB7DEB7A1970FB681
:10113000F894DEBF0FBECDBF19A2423008F44AE0DA
:101140008E010F5D1F4F842E912CB12CA12CA50177
:1011500094010E949319E62FB901CA01EA30F4F410
:10116000E05DD801EE938D01232B242B252B79F7FD
:1011700090E080E0109719F0CD010E947F08A196C1
:101180000FB6F894DEBF0FBECDBFDF91CF911F9198
:101190000F91BF90AF909F908F900895E95CE1CF41
:1011A0000C947F084F925F926F927F928F929F92E2
:1011B000AF92BF92CF92DF92EF92FF920F931F9365
:1011C000CF936B017C01742EAC019B010E94C01C6B
:1011D000882399F08EE591E0CF911F910F91FF90B8
:1011E000EF90DF90CF90BF90AF909F908F907F90C7
:1011F0006F905F904F900C947F0846015701E894E0
:10120000B7F82FEF3FEF4FE75FE7C501B4010E944A
:10121000C01C81110DC02FEF3FEF4FE75FE7C50105
:10122000B4010E94761A18161CF482E691E0D4CF1D
:101230002FEF3FEF4FE75FE4C701B6010E94FC1BB1
:1012400018161CF486E691E0C7CF2FEF3FEF4FE76B
:101250005FECC701B6010E94761A87FDF3CF20E04C
:1012600030E0A901C701B6010E94761A10E000E043
:1012700087FF0AC06DE283EF92E00E94CD038C01EC
:10128000F7FAF094F7F8F094C0E060E070E080E0E6
:101290009FE37C1641F020E030E040E251E40E9400
:1012A0007B1ACF5FF6CFA70196010E94DB192B01B5
:1012B0003C010E94F41A4B015C014AE00E948C0838
:1012C0007C01E00EF11ECC23C1F1C501B4010E94E6
:1012D000231B9B01AC01C301B2010E94DA194B012F
:1012E0005C016EE283EF92E00E94CD03E80EF91EEE
:1012F000C15018F120E030E040E251E4C501B401F2
:101300000E94091C2B013C010E94F41A4B01B12CD4
:10131000A12C4AE0C501B4010E948C08E80EF91E18
:10132000C501B4010E94231B9B01AC01C301B201A2
:101330000E94DA194B015C01DBCFC701CF911F91ED
:101340000F91FF90EF90DF90CF90BF90AF909F9064
:101350008F907F906F905F904F90089542E00C9433
:10136000D208CF93DF9300D0CDB7DEB789836A83ED
:1013700080911E0490911F04FC012481358122304C
:101380003105B8F0208131E03093CF022093F10293
:101390001092D0021092F20221E042E050E0BE0131
:1013A0006F5F7F4F0E94B3070F900F90DF91CF9137
:1013B000089580E0F9CF2F923F924F925F926F9203
:1013C0007F928F929F92AF92BF92CF92DF92EF92D5
:1013D000FF920F931F93CF93DF93DC011496ED914F
:1013E000FC911597EF2B09F412C169012A01EC0158
:1013F000888191E09093CF028093F1021092D00205
:101400001092F20220E041E050E0CD010E94B307CB
:10141000782E882309F4FBC0F12CE12C332433947B
:10142000EC14FD0408F0F4C08C819D8186010E1936
:101430001F098017910708F48C0128800E94D602AA
:101440004B015C018091C902811173C0602EB0E232
:10145000B01710F480E2682E3092C90221E0C60174
:10146000801B910BE816F90608F420E02093C802CF
:10147000EFEFE093C7021092C6028FEF860D8093C4
:10148000C5023092A4028091A402220C282A209244
:10149000A4028091A302813009F090C01092A302AF
:1014A0000E94D6024B015C018091A4028093BB0094
:1014B0008091CB029091CC02A091CD02B091CE024E
:1014C000892B8A2B8B2BA1F00E94D6022091CB0274
:1014D0003091CC024091CD025091CE026819790929
:1014E0008A099B09261737074807590708F442C09D
:1014F0008091BC0083FDD8CFF5ECF093BC000E9436
:10150000D6024B015C018091C902813009F45AC0B6
:101510008091C602861510F46090C602A5EAB2E07A
:10152000E3E8F2E080E0861551F19D9191938F5FA1
:10153000FACF8091CB029091CC02A091CD02B091D4
:10154000CE02892B8A2B8B2B09F47CCF0E94D602EA
:101550002091CB023091CC024091CD025091CE022D
:10156000681979098A099B09261737074807590717
:1015700008F068CF8091CA020E94A206612C1092E6
:101580008202609281026016110609F040C0420199
:101590008E0C9F1C5401C501881999098017910769
:1015A00098F589819A81DC01ED91FC910284F385A3
:1015B000E02D0995F50181935F01EDCF85EE8093D4
:1015C000BC009DCF8091CB029091CC02A091CD0226
:1015D000B091CE02892B8A2B8B2B09F494CF0E94D9
:1015E000D6022091CB023091CC024091CD02509195
:1015F000CE02681979098A099B0926173707480717
:10160000590708F080CFB6CFE00EF11E09CF712C3C
:10161000872DDF91CF911F910F91FF90EF90DF9079
:10162000CF90BF90AF909F908F907F906F905F9082
:101630004F903F902F900895CF93DF931F92CDB797
:10164000DEB7198221E030E0AE014F5F5F4FBA0193
:1016500080911E0490911F040E94DB0989810F90E4
:10166000DF91CF910895AF92BF92CF92DF92EF9228
:10167000FF920F931F93CF93DF9300D000D000D041
:101680001F92CDB7DEB78C01FB015A018CE0D80167
:101690001D928A95E9F7AE014F5F5F4F86E0DA0150
:1016A0001D928A95E9F7AF8226E030E0BE01695FBE
:1016B0007F4F838194810E94DB0969817A81CB808D
:1016C000DC80ED80FE80B4E1AB16B10409F461C0AA
:1016D000D8F4F8E0AF16B10409F4C1C08EE0A81642
:1016E000B10401F1C80127960FB6F894DEBF0FBE12
:1016F000CDBFDF91CF911F910F91FF90EF90DF90C1
:10170000CF90BF90AF900895A8E2AA16B10409F453
:1017100076C0BEE2AB16B10409F4A1C0EAE1AE1690
:10172000B10401F7072E000C880B990B0E94251BB2
:1017300020E030E040E85DE30E94091CD8016D9391
:101740007D938D939C931397B601DD0C880B990BB9
:101750000E94251B20E030E040E85DE30E94091C68
:10176000F8016483758386839783B701FF0C880B28
:10177000990B0E94251B20E030E040E85DE30E94C9
:10178000091CD80118966D937D938D939C931B979C
:10179000A9CF072E000C880B990B0E94251B20E077
:1017A00030E040E85DE30E94091CF801608371832A
:1017B00082839383B601DD0C880B990B0E94251B55
:1017C00020E030E040E85DE30E94091CD801149657
:1017D0006D937D938D939C931797B701FF0C880BA6
:1017E000990B0E94251B20E030E040E85DE30E9459
:1017F000091CF801608771878287938773CF072E52
:10180000000C880B990B0E94251B20E030E048EC6F
:1018100052E40E947B1AD8016D937D938D939C9323
:101820001397B601DD0C880B990B0E94251B20E055
:1018300030E048EC52E40E947B1AF801648375831F
:1018400086839783B701FF0C880B990B0E94251B99
:1018500020E030E048EC52E40E947B1A92CF072E41
:10186000000C880B990B0E94251B20E030E048EC0F
:1018700052E40E947B1AF801608371838283938310
:10188000B601DD0C880B990B0E94251B20E030E08F
:1018900048EC52E40E947B1AD80114966D937D9314
:1018A0008D939C931797B701FF0C880B990B0E949F
:1018B000251B20E030E048EC52E40E947B1A99CFCF
:1018C000EF92FF920F931F93CF93DF93CDB7DEB7C5
:1018D00068970FB6F894DEBF0FBECDBF8C01FC0138
:1018E000349680E2DF011D928A95E9F784E290E068
:1018F000A0E0B0E0F80180839183A283B38380915C
:10190000200490912104A0912204B09123048483A7
:101910009583A683B7832FB7F89480917D02909129
:101920007E02A0917F02B09180022FBF808B918BAD
:10193000A28BB38B7E01FDE0EF0EF11C8CE0D70192
:101940001D928A95E9F76832710589F58AE090E081
:10195000A0E0B0E0F80180879187A287B38748E2D2
:1019600050E06BE174E0CE0101960E94330BBE01A2
:101970006F5F7F4FC7010E946A028D859E85AF858C
:10198000B889F801848B958BA68BB78B89899A8946
:10199000AB89BC89808F918FA28FB38F8D899E89EF
:1019A000AF89B88D848F958FA68FB78F79C0683037
:1019B000710561F481E090E0A0E0B0E0F80180877B
:1019C0009187A287B38748E050E0CBCF6E32710594
:1019D00061F489E090E0A0E0B0E0F80180879187B1
:1019E000A287B3874EE250E0BCCF6A31710561F443
:1019F00083E090E0A0E0B0E0F80180879187A287C3
:101A0000B3874AE150E0ADCF6431710509F056C0AB
:101A100084E090E0A0E0B0E0F80180879187A287A1
:101A2000B38744E150E06BE174E0CE0101960E947F
:101A3000330BBE016F5F7F4FC7010E946A0225E32F
:101A40003AEF4EE85CE36D857E858F8598890E942C
:101A5000091CD80154966D937D938D939C93579751
:101A600025E33AEF4EE85CE369897A898B899C89A2
:101A70000E94091CF801608F718F828F938F25E37C
:101A80003AEF4EE85CE36D897E898F89988D0E94DC
:101A9000091CD8015C966D937D938D939C935F9701
:101AA00081E068960FB6F894DEBF0FBECDBFDF9120
:101AB000CF911F910F91FF90EF9008956E307105B7
:101AC00079F782E090E0A0E0B0E0F80180879187AC
:101AD000A287B3874EE050E044CF0F931F93CF937C
:101AE000DF93CDB7DEB72C970FB6F894DEBF0FBEED
:101AF000CDBF8B01FB01349620E2DF011D922A95B8
:101B0000E9F744E250E060E070E0F801408351837F
:101B100062837383DC0115964D915D916D917C918B
:101B20001897448355836683778343E050E060E0F1
:101B300070E040875187628773872FB7F894409190
:101B40007D0250917E0260917F02709180022FBFD2
:101B5000408B518B628B738B4AE150E0BC01CE010C
:101B600001960E94330B89819A81AB81BC81F80177
:101B7000848B958BA68BB78B8D819E81AF81B88529
:101B8000808F918FA28FB38F89859A85AB85BC8515
:101B9000848F958FA68FB78F81E02C960FB6F8941F
:101BA000DEBF0FBECDBFDF91CF911F910F91089582
:101BB0000C94761D0F931F93CF93DF938C01EB0151
:101BC00088E2FB0111928A95E9F74BE050E06AE662
:101BD00071E0CE010E94FF1D1B8681E090E0A0E035
:101BE000B0E08C879D87AE87BF87F801858196819D
:101BF000A781B085888B998BAA8BBB8B83E090E003
:101C0000A0E0B0E08C8B9D8BAE8BBF8B1CA21DA285
:101C10001EA21FA2188E198E1A8E1B8E1C8E1D8E50
:101C20001E8E1F8E8AE097EDA3E2BCE388A399A3E2
:101C3000AAA3BBA3DF91CF911F910F91089585EDCA
:101C40008093BC008091CB029091CC02A091CD02F8
:101C5000B091CE020796A11DB11D23E0B695A795C0
:101C6000979587952A95D1F72091BC0024FD03C054
:101C70001092C90208954091CB025091CC0260911C
:101C8000CD027091CE02452B462B472B69F300976E
:101C9000A105B10541F025E32A95F1F70000019770
:101CA000A109B109E1CF8091CA020C94A2061F924A
:101CB0000F920FB60F9211242F933F938F939F9300
:101CC000AF93BF9380917D0290917E02A0917F029D
:101CD000B09180023091740223E0230F2D3758F524
:101CE0000196A11DB11D2093740280937D029093F3
:101CF0007E02A0937F02B093800280917502909142
:101D00007602A0917702B09178020196A11DB11DD3
:101D10008093750290937602A0937702B093780235
:101D2000BF91AF919F918F913F912F910F900FBED7
:101D30000F901F90189526E8230F0296A11DB11D44
:101D4000D2CF1F920F920FB60F9211242F933F9371
:101D50004F935F936F937F938F939F93AF93BF93B3
:101D6000EF93FF9383EF92E00E94AB03FF91EF911B
:101D7000BF91AF919F918F917F916F915F914F91A3
:101D80003F912F910F900FBE0F901F9018951F92AB
:101D90000F920FB60F9211242F938F939F93EF936F
:101DA000FF93E0910303F09104038081E091090324
:101DB000F0910A0382FD1BC0908180910C038F5F1C
:101DC0008F7320910D03821741F0E0910C03F0E036
:101DD000ED50FD4F958F80930C03FF91EF919F91F4
:101DE0008F912F910F900FBE0F901F9018958081AB
:101DF000F4CF1F920F920FB60F9211242F933F939F
:101E00004F935F936F937F938F939F93AF93BF9302
:101E1000EF93FF938091B900887F803609F44AC020
:101E2000F0F5883209F4A7C018F5803109F49BC099
:101E3000B8F4882309F4F9C0883009F494C0FF91FC
:101E4000EF91BF91AF919F918F917F916F915F9132
:101E50004F913F912F910F900FBE0F901F901895AB
:101E6000883109F488C0803251F78093C70214C0CA
:101E7000803409F49DC040F48033B9F38833F9F617
:101E80008093C70285ECB0C0803509F485C08835E1
:101E900009F496C0883499F60E941F0ED0CF883975
:101EA00009F48CC038F5883729F050F4883611F0E1
:101EB000803729F683E08093C90210923B0257C015
:101EC000883809F47BC0803919F0803809F0B7CF21
:101ED00080913B02803208F071C0E0913B0281E0CA
:101EE0008E0F80933B028091BB00F0E0E55EFD4FDA
:101EF00080833DC0803B39F0E0F4803A09F479C03A
:101F0000883A09F09CCF84E08093C90210921A02AB
:101F100010921902E0917B02F0917C020995809168
:101F2000190281110FC081E0809319021092F9010A
:101F300009C0803C09F4A6CF883C09F4A3CF883BB4
:101F400009F07DCFE0911A0281E08E0F80931A0292
:101F5000F0E0E750FE4F80818093BB0090911A0221
:101F60008091190229C08091A4028093BB0085EC66
:101F70008093BC0064CF9091C6028091C5029817EF
:101F800058F5E091C60281E08E0F8093C602F0E022
:101F9000EB55FD4F8081E9CFE091C60281E08E0FC5
:101FA0008093C6028091BB00F0E0EB55FD4F80832B
:101FB0009091C6028091C5029817C8F285E8D8CFE3
:101FC000E091C60281E08E0F8093C6028091BB0033
:101FD000F0E0EB55FD4F80838091C80281115CCF0A
:101FE00081E08093A30284EA8093BC001092C9022E
:101FF00026CF85EC8093BC001092C90280913B02F1
:10200000803230F4E0913B02F0E0E55EFD4F10825B
:1020100060913B0270E0E0917902F0917A028BE1ED
:1020200092E0099510923B020ACF1092C70234CF7A
:102030001F920F920FB60F9211248F929F92AF9220
:10204000BF92CF92DF92EF92FF920F931F932F9345
:102050003F934F935F936F937F938F939F93AF9330
:10206000BF93CF93DF93EF93FF93C0903C02D09048
:102070003D02E0903E02F0903F0220E030E04AE76F
:1020800055E4C701B6010E94FC1B18160CF0D7C01E
:1020900080E090E0AAE7B5E480933C0290933D0293
:1020A000A0933E02B0933F0200913C0210913D028A
:1020B000D0913E02C0913F022091B0033091B10314
:1020C0004091B2035091B303B8018D2F9C2F0E9411
:1020D000761A882309F43EC08090B4039090B5032B
:1020E000A090B603B090B70375016401F7FAF094BD
:1020F000F7F8F094A7019601B8018D2F9C2F0E944C
:10210000761A87FD0EC0A5019401B8018D2F9C2F72
:102110000E94FC1B6801ED2EFC2E181614F47501AC
:10212000640120E030E0A901C701B6010E94761ADF
:10213000811194C01092C0031092C1031092C20387
:102140001092C303C092B003D092B103E092B203E5
:10215000F092B3038091C0039091C103A091C20398
:10216000B091C303892B8A2B8B2B09F44BC00E949F
:10217000D6026B017C018091C4039091C503A091AC
:10218000C603B091C703B701A601481B590B6A0BE0
:102190007B0B8091C0039091C103A091C203B091C9
:1021A000C303481759076A077B0760F18091A803AA
:1021B0009091A903A091AA03B091AB0320919E0333
:1021C000222309F46CC00196A11DB11D8093A803C0
:1021D0009093A903A093AA03B093AB034091A803E3
:1021E0005091A9036091AA037091AB038CE993E02D
:1021F0000E940606C092C403D092C503E092C603B3
:10220000F092C703FF91EF91DF91CF91BF91AF9112
:102210009F918F917F916F915F914F913F912F91FE
:102220001F910F91FF90EF90DF90CF90BF90AF90F4
:102230009F908F900F900FBE0F901F90189520E0E9
:1022400030E04AE755ECC701B6010E94761A87FFD5
:102250002BCF80E090E0AAE7B5EC1ECFA701960156
:1022600060E074E284E799E40E947B1A9F770E9401
:10227000F41A6093C0037093C1038093C2039093D8
:10228000C303C1E020E030E0A901C701B6010E940C
:10229000FC1B18160CF0C0E0C0939E0353CF0197AF
:1022A000A109B10993CF8F929F92AF92BF92CF9223
:1022B000DF92EF92FF921092F6021092F50288EEF2
:1022C00093E0A0E0B0E08093F7029093F802A0932F
:1022D000F902B093FA0226E131E03093F402209340
:1022E000F30225EC30E0309300032093FF0224EC4E
:1022F00030E0309302032093010320EC30E0309370
:1023000004032093030321EC30E030930603209371
:10231000050322EC30E0309308032093070326ECFA
:1023200030E030930A032093090310920C031092BB
:102330000D0310920E0310920F031092930310924C
:1023400092038093940390939503A0939603B09384
:10235000970388E291E0909391038093900380E04B
:1023600090E0A8E9B1E480938A0590938B05A0934F
:102370008C05B0938D0580E090E0A0EAB0E48093F6
:102380008E0590938F05A0939005B093910580E002
:1023900090E0A0EFB1E48093920590939305A09311
:1023A0009405B093950580E690EF90939F058093F8
:1023B0009E0580EA9FE09093A1058093A00510926E
:1023C0009605109297051092980510929905109213
:1023D0009A0510929B0510929C0510929D0582E033
:1023E0009BE2A7E8BCE38093720590937305A093EA
:1023F0007405B093750510927605109277051092CA
:1024000078051092790586E993E4ABE8BBE3809305
:102410007A0590937B05A0937C05B0937D0582EEB1
:102420009FEF90938705809386058EE190E09093CF
:1024300089058093880510927E0510927F05109281
:1024400080051092810510928205109283051092EA
:1024500084051092850583E090E09093E8038093D3
:10246000E7031092EB031092EA031092EC0386E06C
:10247000E6E0F1E0AFEFB3E001900D928A95E1F76D
:1024800086E0ECE0F1E0A9EFB3E001900D928A95CF
:10249000E1F784E090E090930704809306041092A3
:1024A00019041092180410921A0484E591E0909394
:1024B0001C0480931B048FEF9FEFDC0180932004AA
:1024C00090932104A0932204B093230486E090E02B
:1024D0000E94DA1CFC0188E2808380E993E0928309
:1024E0008183138280E290E095838483F0931F04BC
:1024F000E0931E041092FE041092FF041092000557
:102500001092010510920205109203051092040525
:102510001092050510920605109207051092080505
:102520001092090510920A0510920B0510920C05E5
:1025300010920D0510920E0510920F0510921005C5
:1025400010921105109212051092130510921405A5
:102550001092150510921605109217051092180585
:102560001092190510921A0510921B0510921C0565
:1025700010921D0510921E0510921F051092200545
:102580001092210510922205109223051092240525
:102590001092250510922605109227051092280505
:1025A0001092290510922A0510922B0510922C05E5
:1025B00010922D0510922E0510922F0510923005C5
:1025C00010923105109232051092330510923405A5
:1025D0001092350510923605109237051092380585
:1025E0001092390510923A0510923B0510923C0565
:1025F00010923D0510923E0510923F051092400545
:102600001092410510924205109243051092440524
:1026100010924505109252051092530510925405E0
:1026200010925505109256051092570510925805B4
:102630001092590510925A0510925B0510925C0594
:1026400010925D0510925E0510925F051092600574
:102650001092610510926205109263051092640554
:102660001092650510926605109267051092680534
:102670001092690510926A0510926B0510926C0514
:1026800010926D0510926E0510926F0510927005F4
:10269000109271058AE391E090939D0380939C03CF
:1026A00081E080939F031092A8031092A9031092D7
:1026B000AA031092AB031092AC031092AD031092D8
:1026C000AE031092AF031092B0031092B1031092B8
:1026D000B2031092B303C12CD12C80E8E82E8FE313
:1026E000F82EC092B403D092B503E092B603F092F4
:1026F000B7031092B8031092B9031092BA03109264
:10270000BB03C092BC03D092BD03E092BE03F09223
:10271000BF031092C0031092C1031092C203109223
:10272000C30381E090E09093C9038093C8038FEFC7
:102730008093CB031092C4031092C5031092C6037A
:102740001092C70384E08093A00397E09093A103C5
:102750008093A20385E08093A3031092CA03109292
:10276000D0031092D1031092D2031092D30310928F
:10277000D4031092D5031092D6031092D70310926F
:10278000D8031092D9031092DA031092DB03C0929F
:10279000DC03D092DD03E092DE03F092DF031092BF
:1027A0009E031092A4031092A5031092A603109208
:1027B000A7038CE993E00E943A048090B8039090BC
:1027C000B903A090BA03B090BB03A7019601C5015D
:1027D000B4010E94761A8823B1F16091D003709100
:1027E000D1038091D2039091D3030E94251BA501B0
:1027F00094010E94091C0E94ED1A6093D00370930B
:10280000D1038093D2039093D30386E896E6A9E69A
:10281000B9E48093D4039093D503A093D603B093E7
:10282000D703C092B803D092B903E092BA03F092F2
:10283000BB03FF90EF90DF90CF90BF90AF909F9041
:102840008F900C949E00FF90EF90DF90CF90BF9000
:10285000AF909F908F900895CF93DF93CDB7DEB761
:10286000AB970FB6F894DEBF0FBECDBF789484B59A
:10287000826084BD84B5816084BD85B5826085BD7C
:1028800085B5816085BD80916E00816080936E000A
:1028900010928100809181008260809381008091FC
:1028A00081008160809381008091800081608093AD
:1028B00080008091B10084608093B1008091B0006D
:1028C00081608093B00080917A00846080937A0068
:1028D00080917A00826080937A0080917A00816092
:1028E00080937A0080917A00806880937A001092B9
:1028F000C10010928000109281008AE090E09093D5
:1029000089008093880080916F00826080936F00BF
:10291000809181008860809381008AB1846B8AB93C
:1029200080918100836080938100E0910303F091A6
:10293000040382E08083E091FF02F09100031082A3
:10294000E0910103F091020380E1808310920B0378
:10295000E0910703F091080386E08083E09105038E
:10296000F0910603808180618083E0910503F091FE
:102970000603808188608083E0910503F09106035F
:10298000808180688083E0910503F0910603808157
:102990008F7D80830E948B068CE08093B80086E058
:1029A00090E00E94DA1C8C0188E2D8018C9380E9C7
:1029B00093E012969C938E93119713961C92139703
:1029C00080E290E015969C938E9314978B81809370
:1029D0001D0410931F0400931E0487E390E0A0E001
:1029E000B0E08093200490932104A0932204B0933C
:1029F00023048A859B8590932504809324040E9458
:102A00008B0681E0F8018383C8010E94D1078823E7
:102A100091F10E941C0B803A21F51092250410922E
:102A2000240460E08DE390E00E94B1096EE170E063
:102A300080E090E00E94FB0260E28FE390E00E9461
:102A4000B1096EE170E080E090E00E94FB020E941C
:102A50001C0B803A09F42EC46AE070E080E090E03C
:102A6000F4CF68EE73E080E090E00E94FB020E94E9
:102A70001C0B803A91F220E030E04AE755E4609187
:102A8000B4037091B5038091B6039091B7030E948F
:102A9000761A882309F451C080E090E0AAE7B5E4F3
:102AA0008093B4039093B503A093B603B093B70398
:102AB00080E090E0AAE7B3E48093DC039093DD0329
:102AC000A093DE03B093DF038091D0039091D103F4
:102AD000A091D203B091D303181619061A061B064B
:102AE00064F56091B0037091B1038091B20390914D
:102AF000B3039B01AC010E94091C6B017C01609136
:102B0000B8037091B9038091BA039091BB039B0104
:102B1000AC010E94DB199B01AC01C701B6010E9408
:102B20007B1A0E94ED1A6093D0037093D1038093B7
:102B3000D2039093D3030E949E0080E0282E80E071
:102B4000382E6AE170E086E294E00E94600C64E155
:102B500070E08AE494E00E94600C68E270E08EE627
:102B600094E00E94600C6EE070E082E994E00E94C4
:102B7000600C68E070E086EB94E00E94600C6EE20E
:102B800070E08AED94E00E94600CC090CA04D0907E
:102B9000CB04E090CC04F090CD04C0922205D092FA
:102BA0002305E0922405F09225054090CE04509034
:102BB000CF046090D0047090D1044C865D866E8600
:102BC0007F864092260550922705609228057092D4
:102BD00029056091D2047091D3048091D40490911E
:102BE000D50460932A0570932B0580932C05909350
:102BF0002D0500913A0410913B0420913C04309142
:102C00003D040093460510934705209348053093F3
:102C1000490560903E0470903F048090400490907D
:102C20004104688A798A8A8A9B8A60924A057092EE
:102C30004B0580924C0590924D05809042049090F7
:102C40004304A0904404B09045048C8A9D8AAE8AC7
:102C5000BF8A80924E0590924F05A0925005B09287
:102C6000510500936E0510936F0520937005309306
:102C700071054090A6045090A7046090A80470903D
:102C8000A904488E598E6A8E7B8E40923A055092E6
:102C90003B0560923C0570923D056090AA047090DF
:102CA000AB048090AC049090AD046C8E7D8E8E8EC3
:102CB0009F8E60923E0570923F05809240059092F3
:102CC00041058090AE049090AF04A090B004B09005
:102CD000B10488A299A2AAA2BBA2809242059092B6
:102CE0004305A0924405B092450540905E04509083
:102CF0005F0460906004709061044CA25DA26EA2BB
:102D00007FA240922E0550922F056092300570925E
:102D10003105609062047090630480906404909028
:102D2000650468A679A68AA69BA660923205709271
:102D3000330580923405909235058090660490901A
:102D40006704A0906804B090690480923605909260
:102D50003705A0923805B0923905C0927002D09222
:102D60007102E0927202F09273024C845D846E8470
:102D70007F8440926C0250926D0260926E0270925B
:102D80006F02609368027093690280936A02909365
:102D90006B024CA05DA06EA07FA040926402509296
:102DA0006502609266027092670248A459A46AA400
:102DB0007BA4409260025092610260926202709223
:102DC000630280925C0290925D02A0925E02B092D9
:102DD0005F02688C798C8A8C9B8C6092580270920E
:102DE000590280925A0290925B028C8C9D8CAE8C20
:102DF000BF8C8092540290925502A0925602B092DB
:102E0000570248A059A06AA07BA04092500250925D
:102E10005102609252027092530200934C0210933E
:102E20004D0220934E0230934F02688879888A8839
:102E30009B88609248027092490280924A02909266
:102E40004B028C889D88AE88BF8880924402909205
:102E50004502A0924602B09247029B01AC010E943B
:102E6000091C2B013C012C853D854E855F85CA01DF
:102E7000B9010E94091CA30192010E94DB190E9462
:102E80007C1C9B01AC01C701B6010E947B1A0E9409
:102E9000471A4B015C018092620590926305A092F3
:102EA0006405B0926505A7019601C701B6010E94AD
:102EB000091CA30192010E94DB190E947C1C9B014A
:102EC000AC016C857D858E859F850E947B1A0E9452
:102ED000471A6B017C01C0925E05D0925F05E092BB
:102EE0006005F092610520E030E044E353E4C50161
:102EF000B4010E94091C2BED3FE049E450E40E941C
:102F00007B1A60936A0570936B0580936C059093B0
:102F10006D0520E030E044E353E4C701B6010E94B0
:102F2000091C2BED3FE049E450E40E947B1A6093BA
:102F3000660570936705809368059093690581E73E
:102F400091E00E94D00889E791E00E94D00860914A
:102F500070027091710280917202909173020E94CE
:102F6000AE098EE791E00E94D00860916C027091EA
:102F70006D0280916E0290916F020E94AE0985E809
:102F800091E00E94D008609168027091690280917E
:102F90006A0290916B020E94AE098CE891E00E9457
:102FA000D00889E791E00E94D00860916402709196
:102FB000650280916602909167020E94AE098EE7D9
:102FC00091E00E94D008609160027091610280914E
:102FD0006202909163020E94AE0985E891E00E942E
:102FE000D00860915C0270915D0280915E029091C8
:102FF0005F020E94AE0984E991E00E94D00889E74F
:1030000091E00E94D008609158027091590280911D
:103010005A0290915B020E94AE098EE791E00E94F5
:10302000D00860915402709155028091560290919F
:1030300057020E94AE0985E891E00E94D008609195
:1030400050027091510280915202909153020E945D
:10305000AE098BE991E00E94D00889E791E00E94D7
:10306000D00860914C0270914D0280914E02909177
:103070004F020E94AE098EE791E00E94D008609155
:1030800048027091490280914A0290914B020E943D
:10309000AE0985E891E00E94D008609144027091E9
:1030A000450280914602909147020E94AE0985EA4E
:1030B00091E00E94D008609166057091670580914B
:1030C0006805909169050E94AE098EEA91E00E9420
:1030D000D00860916A0570916B0580916C059091A4
:1030E0006D050E94AE092091640230916502409105
:1030F0006602509167026091660570916705809144
:103100006805909169050E94DA194B015C01809273
:10311000400290924102A0924202B092430220915A
:1031200096053091970540919805509199050E9418
:10313000DB196B017C01C0929605D0929705E09255
:103140009805F092990520918A0530918B05409160
:103150008C0550918D05C501B4010E94091C2B01FD
:103160003C0120918E0530918F0540919005509142
:103170009105C701B6010E94091C9B01AC01C30166
:10318000B2010E94DB196B017C0120919A053091FC
:103190009B0540919C0550919D05C501B4010E947D
:1031A000DA19209192053091930540919405509140
:1031B00095050E94091C9B01AC01C701B6010E9444
:1031C000DB193B016C0160919E0570919F05072EF4
:1031D000000C880B990B0E94251B7B018C019B0125
:1031E000AC01B301C6010E94761A87FD16C060913A
:1031F000A0057091A105072E000C880B990B0E9469
:10320000251B7B018C019B01AC01B301C6010E940F
:10321000FC1B181614F07301860180929A05909297
:103220009B05A0929C05B0929D0586EB91E00E94C3
:10323000D0086091400270914102809142029091C9
:1032400043020E94AE0982EC91E00E94D008B701CF
:10325000C8010E94AE09C701D80180933C02909337
:103260003D02A0933E02B0933F028EEC91E00E949B
:10327000D00860913C0270913D0280913E02909195
:103280003F0242E00E94D20889ED91E00E947F084F
:1032900064E670E080E090E00E94FB0221143104BB
:1032A00009F44FCC0E949703882309F44ACC0E946A
:1032B000000047CC62E370E080E090E00E94FB02F7
:1032C00060E08EE390E00E94B1096AE070E080E087
:1032D00090E00E94FB0260E087E090E00E94B1096C
:1032E00060E08FE390E00E94B1096AE070E080E066
:1032F00090E00E94FB028CE090E090932504809384
:1033000024046CE08DE390E00E94B1096EE170E06E
:1033100080E090E00E94FB0264E170E080E090E0D9
:103320000E94FB02A8CBA1E21A2EAA1BBB1BFD0127
:103330000DC0AA1FBB1FEE1FFF1FA217B307E40794
:10334000F50720F0A21BB30BE40BF50B661F771FEC
:10335000881F991F1A9469F76095709580959095CC
:103360009B01AC01BD01CF010895052E97FB1EF412
:1033700000940E94CC1957FD07D00E94931907FCB6
:1033800003D04EF40C94CC1950954095309521956E
:103390003F4F4F4F5F4F0895909580957095619581
:1033A0007F4F8F4F9F4F0895EE0FFF1F0590F491B1
:1033B000E02D09945058BB27AA270E94F2190C94BB
:1033C000C21B0E94B41B38F00E94BB1B20F039F4D2
:1033D0009F3F19F426F40C948A1B0EF4E095E7FB4A
:1033E0000C94841BE92F0E94D31B58F3BA17620771
:1033F00073078407950720F079F4A6F50C94F51B64
:103400000EF4E0950B2EBA2FA02D0B01B9019001FF
:103410000C01CA01A0011124FF27591B99F0593F43
:1034200050F4503E68F11A16F040A22F232F342F8B
:103430004427585FF3CF469537952795A795F040D9
:103440005395C9F77EF41F16BA0B620B730B840BEE
:10345000BAF09150A1F0FF0FBB1F661F771F881FA6
:10346000C2F70EC0BA0F621F731F841F48F48795FE
:1034700077956795B795F7959E3F08F0B0CF9395F0
:10348000880F08F09927EE0F979587950895DF9399
:10349000DD27B92FBF7740E85FE316161706480708
:1034A0005B0718F4D92F0E94011C9F938F937F9381
:1034B0006F930E94BC1CE8E6F0E00E948D1B0E9406
:1034C000C21B2F913F914F915F910E941C1CDD23E5
:1034D00051F09058A2EA2AED3FE049EC5FE3D07842
:1034E0005D270E94F219DF910C94C21B0E94601BA1
:1034F00008F481E008950E948F1A0C94C21B0E9468
:10350000BB1B58F00E94B41B40F029F45F3F29F028
:103510000C94841B51110C94F61B0C948A1B0E9472
:10352000D31B68F39923B1F3552391F3951B550BE6
:10353000BB27AA2762177307840738F09F5F5F4F86
:10354000220F331F441FAA1FA9F335D00E2E3AF0C5
:10355000E0E832D091505040E695001CCAF72BD0DD
:10356000FE2F29D0660F771F881FBB1F261737072E
:103570004807AB07B0E809F0BB0B802DBF01FF2760
:1035800093585F4F3AF09E3F510578F00C94841B9E
:103590000C94F61B5F3FE4F3983ED4F38695779541
:1035A0006795B795F7959F5FC9F7880F911D969519
:1035B000879597F90895E1E0660F771F881FBB1F75
:1035C000621773078407BA0720F0621B730B840B22
:1035D000BA0BEE1F88F7E09508950E94F41A6894DC
:1035E000B1110C94F61B08950E94DB1B88F09F57C5
:1035F00098F0B92F9927B751B0F0E1F0660F771F17
:10360000881F991F1AF0BA95C9F714C0B13091F00C
:103610000E94F51BB1E008950C94F51B672F782FDD
:103620008827B85F39F0B93FCCF3869577956795D1
:10363000B395D9F73EF490958095709561957F4F3D
:103640008F4F9F4F0895E89409C097FB3EF49095E3
:103650008095709561957F4F8F4F9F4F9923A9F06B
:10366000F92F96E9BB279395F695879577956795FA
:10367000B795F111F8CFFAF4BB0F11F460FF1BC03E
:103680006F5F7F4F8F4F9F4F16C0882311F096E9D1
:1036900011C0772321F09EE8872F762F05C066237F
:1036A00071F096E8862F70E060E02AF09A95660F38
:1036B000771F881FDAF7880F9695879597F90895F1
:1036C000990F0008550FAA0BE0E8FEEF1616170633
:1036D000E807F907C0F012161306E407F50798F09B
:1036E000621B730B840B950B39F40A2661F0232BB4
:1036F000242B252B21F408950A2609F4A140A69530
:103700008FEF811D811D089597F99F6780E870E014
:1037100060E008959FEF80EC0895DF93CF931F93AF
:103720000F93FF92EF92DF927B018C01689406C0A9
:10373000DA2EEF010E941C1CFE01E894A591259150
:10374000359145915591A6F3EF010E94F219FE01C2
:103750009701A801DA9469F7DF90EF90FF900F913D
:103760001F91CF91DF91089500240A941616170631
:1037700018060906089500240A9412161306140662
:1037800005060895092E0394000C11F4882352F0C5
:10379000BB0F40F4BF2B11F460FF04C06F5F7F4F7D
:1037A0008F4F9F4F089557FD9058440F551F59F064
:1037B0005F3F71F04795880F97FB991F61F09F3F1E
:1037C00079F087950895121613061406551FF2CF47
:1037D0004695F1DF08C0161617061806991FF1CF97
:1037E00086957105610508940895E894BB276627BE
:1037F0007727CB0197F908950E94601B08F48FEF9B
:1038000008959B01AC0160E070E080E89FE30C94B8
:103810007B1A0E941C1C0C94C21B0E94B41B38F023
:103820000E94BB1B20F0952311F00C94841B0C9478
:103830008A1B11240C94F61B0E94D31B70F3959FD6
:10384000C1F3950F50E0551F629FF001729FBB2797
:10385000F00DB11D639FAA27F00DB11DAA1F649F33
:103860006627B00DA11D661F829F2227B00DA11DE6
:10387000621F739FB00DA11D621F839FA00D611D6C
:10388000221F749F3327A00D611D231F849F600D8D
:10389000211D822F762F6A2F11249F5750409AF0B6
:1038A000F1F088234AF0EE0FFF1FBB1F661F771F42
:1038B000881F91505040A9F79E3F510580F00C940D
:1038C000841B0C94F61B5F3FE4F3983ED4F386957B
:1038D00077956795B795F795E7959F5FC1F7FE2BAD
:1038E000880F911D9695879597F9089519F416F408
:1038F0000C948A1B0C94C51C0E94DB1BB8F3992303
:10390000C9F3B6F39F57550B87FF0E94D31C0024C1
:10391000A0E640EA900180585695979528F4805C7F
:10392000660F771F881F20F026173707480730F4E7
:10393000621B730B840B202931294A2BA6951794FF
:103940000794202531254A2758F7660F771F881FCF
:1039500020F026173707480730F4620B730B840BEF
:10396000200D311D411DA09581F7B901842F91587B
:10397000880F9695879508959B01AC010C94091CBE
:103980000E94601B880B990B08959F3F31F0915066
:1039900020F4879577956795B795880F911D969533
:1039A000879597F9089591505040660F771F881FAB
:1039B000D2F708950F931F93CF93DF938230910531
:1039C00010F482E090E0E091A405F091A50530E0CC
:1039D00020E0B0E0A0E0309799F42115310509F41A
:1039E0004AC0281B390B24303105D8F58A819B81C8
:1039F0006115710589F1FB0193838283FE0111C07A
:103A0000408151810281138148175907E0F048171E
:103A1000590799F4109761F012960C931297139628
:103A20001C933296CF01DF91CF911F910F91089592
:103A30000093A4051093A505F4CF2115310551F08D
:103A40004217530738F0A901DB019A01BD01DF01DC
:103A5000F801C1CFEF01F9CF9093A5058093A4059C
:103A6000CDCFFE01E20FF31F8193919322503109D4
:103A700039832883D7CF2091A2053091A305232B2A
:103A800041F420910201309103013093A30520936A
:103A9000A20520910001309101012115310541F469
:103AA0002DB73EB74091040150910501241B350B01
:103AB000E091A205F091A305E217F307A0F42E1BF5
:103AC0003F0B2817390778F0AC014E5F5F4F241782
:103AD000350748F04E0F5F1F5093A3054093A20592
:103AE000819391939FCFF0E0E0E09CCFCF93DF9361
:103AF0000097E9F0FC01329713821282A091A4058D
:103B0000B091A505ED0130E020E01097A1F42081EF
:103B10003181820F931F2091A2053091A3052817B0
:103B2000390709F061C0F093A305E093A205DF9186
:103B3000CF910895EA01CE17DF07E8F54A815B814E
:103B40009E0141155105B1F7E901FB83EA834991D3
:103B50005991C40FD51FEC17FD0761F48081918145
:103B60000296840F951FE90199838883828193814E
:103B70009B838A83F0E0E0E012968D919C911397ED
:103B80000097B9F52D913C911197CD010296820FC6
:103B9000931F2091A2053091A3052817390739F604
:103BA000309751F51092A5051092A405B093A30586
:103BB000A093A205BCCFD383C28340815181840FDF
:103BC000951FC817D90761F44E5F5F4F88819981AF
:103BD000480F591F518340838A819B81938382833D
:103BE0002115310509F0B0CFF093A505E093A405A8
:103BF0009ECFFD01DC01C0CF13821282D7CFFB0123
:103C0000DC014150504048F001900D920020C9F76E
:103C100001C01D9241505040E0F70895F894FFCF45
:103C20000000A6058000018001800180FF7FFF7FEA
:103C3000FF7F00000000CD032D035A031A048B03FD
:103C400069037D03000000004D0820087C08F6078A
:103C500019080608F7070000000068043A04C805C0
:103C60000606B20580055F052B050A05B404850428
:103C7000000000006902D80D89026D0DDA0D6E6139
:103C80006E00696E66006F766600424E4F303535C5
:103C900000416363656C3A200009783D2000207C78
:103CA00009793D2000207C097A3D20002047797267
:103CB0006F3A2000204D61673A2000204F726965FD
:103CC0006E743A20002050697463683A20002052D4
:103CD0006F6C6C3A200020202020416E676C653AA2
:103CE00020002020202053706565643A20002020A9
:0C3CF000202054696C743A20000D0A007A
:00000001FF
