:100000000C9474000C949C000C949C000C949C0028
:100010000C949C000C949C000C949C000C949C00F0
:100020000C949C000C949C000C949C000C947E0CF2
:100030000C949C000C949C000C949C000C949C00D0
:100040000C94BD0A0C949C000C942D0B0C94070B83
:100050000C949C000C949C000C949C000C949C00B0
:100060000C945F0B0C949C00084AD73B3BCE016E6E
:1000700084BCBFFDC12F3D6C74319ABD56833DDAFF
:100080003D00C77F11BED9E4BB4C3E916BAAAABE0E
:10009000000000803F000000000800020100000393
:1000A0000407000000000000000000000000250020
:1000B00028002B0000000000240027002A00040470
:1000C0000404040404040202020202020303030300
:1000D00003030102040810204080010204081020DC
:1000E0000102040810208B0D11241FBECFEFD8E0B1
:1000F000DEBFCDBF11E0A0E0B1E0E8ECF3E302C069
:1001000005900D92A039B107D9F724E0A0E9B1E03C
:1001100001C01D92AF30B207E1F710E0C4E7D0E0B4
:1001200004C02197FE010E949916C337D107C9F771
:100130000E94C30F0C94E2190C9400004F925F923E
:100140006F927F928F929F92AF92BF92CF92DF92E7
:10015000EF92FF920F931F93CF93DF93C0903803DA
:10016000D0903903E0903A03F0903B038091340340
:1001700090913503A0913603B0913703C81AD90A7C
:10018000EA0AFB0A60913C0370913D0380913E03B3
:1001900090913F039B01AC010E9411194B015C013E
:1001A0006091440370914503809146039091470309
:1001B0009B01AC010E94A0169B01AC01C501B401DA
:1001C0000E9483170E94F517C114D104E104F104C1
:1001D00009F0D3C062307105810591050CF0F2C0C1
:1001E00010924C0310924D0310924E0310924F0345
:1001F00010923C0310923D0310923E0310923F0375
:1002000010925C0310925D0310925E0310925F03E4
:10021000DF91CF911F910F91FF90EF90DF90CF90E2
:10022000BF90AF909F908F907F906F905F904F9016
:1002300008951016110612061306DCF46C157D05E0
:100240008E059F0524F420912A032111BBC09B0138
:10025000AC0188279927DC01821B930BA40BB50BFB
:1002600080935C0390935D03A0935E03B0935F0360
:10027000A9C0011511052105310509F4A3C06C15AC
:100280007D058E059F050CF09DC080912A03882373
:1002900009F498C030952095109501951F4F2F4F68
:1002A0003F4F00935C0310935D0320935E033093F4
:1002B0005F0388C0011511052105310509F482C0CD
:1002C0008824992454018C189D08AE08BF0868152D
:1002D00079058A059B050CF075C080912A03811170
:1002E00071C0D8CFC0906403D0906503E0906603DE
:1002F000F0906703A7019601C701B6010E94A016FE
:100300002B013C01C501B4010E942D1820E030E012
:1003100040E850E40E94111920E030E040E85FE33B
:100320000E94A0169B01AC01C301B2010E94831779
:100330009B01AC01C701B6010E949F16D62FC72FA3
:100340006C01E0906803F090690300916A031091DA
:100350006B039701A8010E94041918161CF4ED2ED6
:10036000FC2E8601C701D801809364039093650336
:10037000A0936603B09367034CC000915C03109197
:100380005D0320915E0330915F031C141D041E0465
:100390001F040CF44ECF10161106120613060CF0B3
:1003A00089CF0027112798010C191D092E093F0933
:1003B00060177107820793070CF049CF20912A0339
:1003C000211145CF80905C0390905D03A0905E0367
:1003D000B0905F0381149104A104B10409F082CFAD
:1003E0008091600390916103A0916203B0916303D7
:1003F0008093640390936503A0936603B0936703AF
:1004000081E01C141D041E041F040CF080E0809386
:100410002A033FEF831A930AA30AB30A80925C036C
:1004200090925D03A0925E03B0925F03C09064035C
:10043000D0906503E0906603F0906703C701B601B2
:100440000E94FC1760934C0370934D0380934E03FE
:1004500090934F03A701960160E074E284E799E46A
:100460000E94831760933C0370933D0380933E0387
:1004700090933F0320912A032111CACE9058609394
:100480003C0370933D0380933E0390933F03C0CEA3
:1004900090E0FC01EE52FF4F249182549F4FFC01EB
:1004A0008491882399F090E0880F991FFC01EC5407
:1004B000FF4FA591B491FC01E655FF4F85919491B2
:1004C0008FB7F894EC91E22BEC938FBF0895909145
:1004D0007E0280917D022FEF3FEF981748F4E92FBD
:1004E000F0E0E35AFD4F208130E09F5F90937E0261
:1004F000C901089590917E0280917D022FEF3FEF18
:10050000981748F4E92FF0E0E35AFD4F208130E0DE
:100510009F5F90937E02C901089591E090935C02E1
:1005200080935B0210925A021092590208958091B2
:100530007D0290917E02891B990B089590E0FC0149
:10054000EA56FF4F2491FC01EE52FF4F3491FC011B
:10055000E254FF4FE491EE23C9F0222339F0233017
:1005600001F1A8F4213019F1223029F1F0E0EE0F69
:10057000FF1FE655FF4FA591B4918FB7F894EC910A
:10058000611126C030953E233C938FBF08952730DC
:10059000A9F02830C9F0243049F7809180008F7D80
:1005A00003C0809180008F7780938000DFCF84B577
:1005B0008F7784BDDBCF84B58F7DFBCF8091B0007A
:1005C0008F778093B000D2CF8091B0008F7DF9CF2C
:1005D0003E2BDACF3FB7F8948091090290910A023E
:1005E000A0910B02B0910C0226B5A89B05C02F3F2D
:1005F00019F00196A11DB11D3FBFBA2FA92F982F49
:100600008827BC01CD01620F711D811D911D42E043
:10061000660F771F881F991F4A95D1F708952FB746
:10062000F894609105027091060280910702909102
:1006300008022FBF089508950895AF92BF92CF92F8
:10064000DF92EF92FF920F931F93CF93DF936C0192
:100650007B018B01040F151FEB015E01AE18BF0873
:10066000C017D10759F06991D601ED91FC91019025
:10067000F081E02DC6010995892B79F7C501DF913D
:10068000CF911F910F91FF90EF90DF90CF90BF908F
:10069000AF900895FC01538D448D252F30E0842FB9
:1006A00090E0821B930B541710F0CF96089501979A
:1006B0000895FC01918D828D981761F0A28DAE0F87
:1006C000BF2FB11D5D968C91928D9F5F9F73928F0E
:1006D00090E008958FEF9FEF0895FC01918D828D3A
:1006E000981731F0828DE80FF11D858D90E0089507
:1006F0008FEF9FEF0895FC01918D228D892F90E05F
:10070000805C9F4F821B91098F73992708958FE713
:1007100092E00E947B0321E0892B09F420E0822FE4
:10072000089580E090E0892B29F00E9487038111D1
:100730000C9400000895FC01A48DA80FB92FB11DE1
:10074000A35ABF4F2C91848D90E001968F73992707
:10075000848FA689B7892C93A089B1898C918370E5
:1007600080648C93938D848D981306C00288F389DE
:10077000E02D80818F7D80830895EF92FF920F930B
:100780001F93CF93DF93EC0181E0888F9B8D8C8D3D
:1007900098131AC0E889F989808185FF15C09FB731
:1007A000F894EE89FF896083E889F98980818370F4
:1007B000806480839FBF81E090E0DF91CF911F91A3
:1007C0000F91FF90EF900895F62E0B8D10E00F5FC4
:1007D0001F4F0F731127E02E8C8D8E110CC00FB69A
:1007E00007FCFACFE889F989808185FFF5CFCE0132
:1007F0000E949B03F1CFEB8DEC0FFD2FF11DE35A0F
:10080000FF4FF0829FB7F8940B8FEA89FB898081B4
:100810008062CFCFCF93DF93EC01888D8823B9F02E
:10082000AA89BB89E889F9898C9185FD03C08081FB
:1008300086FD0DC00FB607FCF7CF8C9185FFF2CF78
:10084000808185FFEDCFCE010E949B03E9CFDF9130
:10085000CF910895CF93DF93FC012381222329F1C7
:10086000EC0184810E9448028D810E9448028B81A4
:10087000843011F0883099F48E810E9448028F8173
:100880000E9448028FA58F3F81F00E9448026EA50A
:1008900081E068278FA5DF91CF910C949E02833071
:1008A00011F0863079F78E81EBCFDF91CF910895EB
:1008B000CF93DF93FC0123812223A1F0EC0101906F
:1008C000F081E02D0480F581E02D60E009958FA591
:1008D0008F3F41F00E9448026EA58FA5DF91CF9116
:1008E0000C949E02DF91CF910895DC01ED91FC9173
:1008F0002481358147705527662777274150510954
:1009000061097109473051056105710560F4FA010B
:10091000E457FB4F0C949916960498049A049C048F
:100920009E04A004A20461E0F901099465E0FCCFF3
:1009300064E0FACF66E0F8CF62E0F6CF6AE0F4CF89
:1009400068E0F2CF69E0F0CFCF93DF93EC01CB0109
:10095000BA0126E030E040E050E00E943E166230EE
:1009600071058105910589F16CF4611571058105A9
:100970009105D1F06130710581059105F9F0DF91A4
:10098000CF910895643071058105910561F124F1DD
:10099000653071058105910591F7E881F981048041
:1009A000F581E02D66E006C0E881F9810480F581DB
:1009B000E02D64E0CE01DF91CF910994E881F981C7
:1009C0000480F581E02D65E0F5CFE881F9810480B0
:1009D000F581E02D61E0EECFE881F9810480F581B9
:1009E000E02D63E0E7CFE881F9810480F581E02D17
:1009F00062E0E0CFDC01ED91FC910480F581E02D17
:100A000043705527662777274230510561057105E8
:100A100071F0433051056105710559F041305105C0
:100A20006105710511F065E0099466E0FDCF6AE0AB
:100A3000FBCF69E0F9CFCF93DF93EC01CB01BA0193
:100A400023E030E040E050E00E943E166130710546
:100A50008105910599F06230710581059105A9F034
:100A6000672B682B692BC1F4E881F9810480F5813B
:100A7000E02D64E0CE01DF91CF910994E881F98106
:100A80000480F581E02D61E0F5CFE881F9810480F3
:100A9000F581E02D62E0EECFDF91CF910895DC018A
:100AA000ED91FC910480F581E02D43705527662778
:100AB0007727423051056105710571F043305105CA
:100AC0006105710559F0413051056105710511F05D
:100AD00062E0099463E0FDCF61E0FBCF60E0F9CF15
:100AE000CF93DF93EC01E881F9810480F581E02D5B
:100AF0008A8160E0811162E0CE010995E881F98187
:100B00000480F581E02D8A8161E0811163E0CE01EE
:100B100009958CA59DA58230910538F0880F991F05
:100B2000880F991F05970197F1F7E881F9810480F3
:100B3000F581E02D8A8160E0811162E0CE01DF91D4
:100B4000CF910994CF93DF93EC0120E030E0A9012D
:100B50006C897D898E899F890E94041918162CF44E
:100B6000E8A9F9A9DF91CF910994EAA9FBA9FACFE5
:100B7000CF92DF92EF92FF920F931F93CF93DF9369
:100B8000DC011396CC91C43039F0C83059F1C33030
:100B900019F0C63049F1C2E08C010C5F1F4FF12CF7
:100BA000E12CC62ED12CD1E0F8016481C6010E2CB7
:100BB00002C0959587950A94E2F780FD6D270F5F37
:100BC0001F4F80810E949E02BFEFEB1AFB0AEC16BA
:100BD00058F3DF91CF911F910F91FF90EF90DF902D
:100BE000CF900895C4E0D8CFC3E0D6CFDC011396F0
:100BF000EC911397E93008F038C0F0E0EE5FF94F60
:100C00000C9499160B06110617061D0623063506C9
:100C1000290635062F06ED91FC910084F185E02D23
:100C20000994ED91FC910284F385E02DF9CFED91CB
:100C3000FC910484F585E02DF3CFED91FC910684C1
:100C4000F785E02DEDCFED91FC910088F189E02D45
:100C5000E7CFED91FC910288F389E02DE1CFED9192
:100C6000FC910488F589E02DDBCF08952091CD011A
:100C7000260F3327331F21323105ECF42091530224
:100C8000FC0190E080E0243069F082E00895A091BA
:100C9000CD012191AC0143555E4FA40FB52FB11D7D
:100CA0002C930196861798F38091CD01680F60937D
:100CB000CD0180E0089581E008951092530281E013
:100CC0008093520210924D0261E082E10E949E02E6
:100CD00061E083E10E949E02E9EBF0E080818E7F7B
:100CE000808380818D7F808388E48093B80085E451
:100CF0008093BC000895CF93DF9391E09093AC0173
:100D00008823B9F0C091B800D091BA008091BC009E
:100D10008A7B8093BC0060E082E10E949E0260E0DA
:100D200083E10E949E020E945D06D093BA00C093A8
:100D3000B800DF91CF910895CF92DF92EF92FF92AA
:100D40000F931F93CF93DF93D091590281E0D1325B
:100D500008F09CC0C0915B020E94EA026B017C011A
:100D60008091530281116CC082E08093530281E034
:100D7000809352028FEF8093510210925002D093D1
:100D80004F02ADE0B2E0EDE2F2E080E0D8138DC0BA
:100D900010924E0280914E02CC0FC82BC0934E028F
:100DA00080914D02813009F084C010924D020E9462
:100DB000EA026B017C0180914E028093BB0080911E
:100DC000550290915602A0915702B0915802892B7A
:100DD0008A2B8B2BA1F00E94EA0200915502109100
:100DE000560220915702309158026C197D098E09E4
:100DF0009F09061717072807390708F442C0809192
:100E0000BC0083FDD8CF85EC8093BC000E94EA0231
:100E10006B017C0180915302823009F44CC08091B7
:100E200051028F3F09F469C080915102803209F468
:100E300066C080915102803309F463C084E026C00B
:100E40008091550290915602A0915702B09158029C
:100E5000892B8A2B8B2B09F483CF0E94EA02009105
:100E600055021091560220915702309158026C1988
:100E70007D098E099F09061717072807390708F00B
:100E80006FCF809154020E947B0685E010925A0237
:100E90001092590210925C02DF91CF911F910F9135
:100EA000FF90EF90DF90CF9008959D9191938F5F89
:100EB0006DCF85EEA9CF8091550290915602A091F9
:100EC0005702B0915802892B8A2B8B2B09F4A2CFA1
:100ED0000E94EA0200915502109156022091570299
:100EE000309158026C197D098E099F090617170762
:100EF0002807390708F08ECFC4CF80E0C7CF82E043
:100F0000C5CF83E0C3CF0895E0917E0280917D023A
:100F1000E81730F4F0E0E35AFD4F808190E0089547
:100F20008FEF9FEF0895CF92DF92EF92FF920F9392
:100F30001F93CF93DF937C01CB018A0120915C0248
:100F4000222389F0EB016B01C40ED51ECC15DD0503
:100F500069F06991D701ED91FC910190F081E02D4C
:100F6000C7010995F3CF642F0E943606C801DF91AF
:100F7000CF911F910F91FF90EF90DF90CF90089548
:100F8000CF93DF931F92CDB7DEB7698320915C02C8
:100F90002223F9F020915902203258F021E030E06C
:100FA000FC013383228390E080E00F90DF91CF91AA
:100FB000089580915A02E82FF0E0E35FFD4F998198
:100FC00090838F5F80935A028093590281E090E072
:100FD000ECCF61E0CE0101960E943606F7CF0F9369
:100FE0001F93CF93DF93082F162FCCE6D3E089A56C
:100FF0000E948D02602F8CE193E00E94C007612F58
:101000008CE193E00E94C0070E949C068DA3DF91B3
:10101000CF911F910F9108950F931F93CF93DF935B
:10102000082F162FCCE6D3E088A50E948D02602FF2
:101030008CE193E00E94C007612F8CE193E00E9455
:10104000C0070E949C068DA3DF91CF911F910F9145
:1010500008950F931F93CF93DF93082F162FCCE69D
:10106000D3E089850E948D02602F8CE193E00E947D
:10107000C007612F8CE193E00E94C0070E949C068C
:101080008E83DF91CF911F910F91089590E080E0C2
:101090000895FC0101900020E9F73197AF01481B4A
:1010A000590BBC018FE792E00C941D038F929F9225
:1010B000AF92BF920F931F93CF93DF93CDB7DEB75D
:1010C000A1970FB6F894DEBF0FBECDBF19A2423074
:1010D00008F44AE08E010F5D1F4F842E912CB12C35
:1010E000A12CA50194010E946816E62FB901CA013E
:1010F000EA30F4F4E05DD801EE938D01232B242B2C
:10110000252B79F790E080E0109719F0CD010E942F
:101110004908A1960FB6F894DEBF0FBECDBFDF9190
:10112000CF911F910F91BF90AF909F908F90089596
:10113000E95CE1CF4F925F926F927F928F929F9284
:10114000AF92BF92CF92DF92EF92FF920F931F93D5
:10115000CF936B017C01742EAC019B010E94C819D6
:10116000882399F08AE491E0CF911F910F91FF902D
:10117000EF90DF90CF90BF90AF909F908F907F9037
:101180006F905F904F900C94490846015701E89486
:10119000B7F82FEF3FEF4FE75FE7C501B4010E94BB
:1011A000C81981110DC02FEF3FEF4FE75FE7C50171
:1011B000B4010E947E1718161CF48EE491E0D4CF7F
:1011C0002FEF3FEF4FE75FE4C701B6010E9404191C
:1011D00018161CF482E591E0C7CF2FEF3FEF4FE7E1
:1011E0005FECC701B6010E947E1787FDF3CF20E0B8
:1011F00030E0A901C701B6010E947E1710E000E0AF
:1012000087FF0AC06DE28FE792E00E94BD038C0168
:10121000F7FAF094F7F8F094C0E060E070E080E056
:101220009FE37C1641F020E030E040E251E40E9470
:101230008317CF5FF6CFA70196010E94A0162B015E
:101240003C010E94FC174B015C014AE00E945608D9
:101250007C01E00EF11ECC23C1F1C501B4010E9456
:101260002B189B01AC01C301B2010E949F164B01D8
:101270005C016EE28FE792E00E94BD03E80EF91E6A
:10128000C15018F120E030E040E251E4C501B40162
:101290000E9411192B013C010E94FC174B01B12C3B
:1012A000A12C4AE0C501B4010E945608E80EF91EBF
:1012B000C501B4010E942B189B01AC01C301B2010E
:1012C0000E949F164B015C01DBCFC701CF911F919C
:1012D0000F91FF90EF90DF90CF90BF90AF909F90D5
:1012E0008F907F906F905F904F900895CF92DF9294
:1012F000EF92FF920F931F93CF93DF93D82FC62FB8
:101300000E94EA026B017C0180915302811165C049
:1013100081E080935302809352029FEF9093510299
:10132000109250029C0F90934F0280934E02809136
:101330004E02DD0FD82BD0934E0280914D028130AA
:1013400009F07FC010924D020E94EA026B017C01FD
:1013500080914E028093BB0080915502909156027D
:10136000A0915702B0915802892B8A2B8B2BA1F0A8
:101370000E94EA02009155021091560220915702F4
:10138000309158026C197D098E099F0906171707BD
:101390002807390708F442C08091BC0083FDD8CFEC
:1013A00085EC8093BC000E94EA026B017C01809175
:1013B0005302813009F447C0809150028C1710F419
:1013C000C0915002ADE2B2E0EDE5F2E080E08C17B2
:1013D00051F19D9191938F5FFACF80915502909139
:1013E0005602A0915702B0915802892B8A2B8B2B61
:1013F00009F48ACF0E94EA02009155021091560228
:1014000020915702309158026C197D098E099F096D
:10141000061717072807390708F076CF809154027E
:101420000E947B06C0E010927E02C0937D028C2F4A
:10143000DF91CF911F910F91FF90EF90DF90CF90B0
:10144000089585EEAECF8091550290915602A091FD
:101450005702B0915802892B8A2B8B2B09F4A7CF06
:101460000E94EA0200915502109156022091570203
:10147000309158026C197D098E099F0906171707CC
:101480002807390708F093CFC9CFCF93DF93C82F30
:10149000D62F0E948D026D2F8CE193E00E94C00731
:1014A0000E949C0681110EC061E08C2F0E9476097B
:1014B00090917D0280917E02981721F0DF91CF916B
:1014C0000C947A028FEF9FEFDF91CF910895CF9325
:1014D000C82F0E948D026FE08CE193E00E94C0074C
:1014E0000E949C0681110DC061E08C2F0E9476093C
:1014F00090917D0280917E02981719F0CF910C9403
:101500007A028FEF9FEFCF91089585ED8093BC0015
:101510008091550290915602A0915702B0915802C5
:101520000796A11DB11D23E0B695A79597958795C0
:101530002A95D1F72091BC0024FD03C010925302DC
:101540000895409155025091560260915702709152
:101550005802452B462B472B69F30097A105B1058F
:1015600041F025E32A95F1F700000197A109B1099F
:10157000E1CF809154020C947B061F920F920FB61C
:101580000F9211242F933F938F939F93AF93BF9309
:101590008091050290910602A0910702B091080285
:1015A0003091040223E0230F2D3758F50196A11D39
:1015B000B11D209304028093050290930602A0932C
:1015C0000702B09308028091090290910A02A0914B
:1015D0000B02B0910C020196A11DB11D809309026E
:1015E00090930A02A0930B02B0930C02BF91AF91AB
:1015F0009F918F913F912F910F900FBE0F901F9051
:10160000189526E8230F0296A11DB11DD2CF1F9277
:101610000F920FB60F9211242F933F934F935F9326
:101620006F937F938F939F93AF93BF93EF93FF93AA
:101630008FE792E00E949B03FF91EF91BF91AF91E2
:101640009F918F917F916F915F914F913F912F91DA
:101650000F900FBE0F901F9018951F920F920FB60C
:101660000F9211242F938F939F93EF93FF93E09109
:101670008F02F09190028081E0919502F0919602A4
:1016800082FD1BC09081809198028F5F8F732091A3
:101690009902821741F0E0919802F0E0E158FD4F85
:1016A000958F80939802FF91EF919F918F912F9149
:1016B0000F900FBE0F901F9018958081F4CF1F924E
:1016C0000F920FB60F9211242F933F934F935F9376
:1016D0006F937F938F939F93AF93BF93EF93FF93FA
:1016E0008091B900887F803609F44AC0F0F58832CD
:1016F00009F4A7C018F5803109F49BC0B8F4882319
:1017000009F4F9C0883009F494C0FF91EF91BF91BA
:10171000AF919F918F917F916F915F914F913F9189
:101720002F910F900FBE0F901F901895883109F4DC
:1017300088C0803251F78093510214C0803409F47C
:101740009DC040F48033B9F38833F9F68093510299
:1017500085ECB0C0803509F485C0883509F496C0A1
:10176000883499F60E94850AD0CF883909F48CC054
:1017700038F5883729F050F4883611F0803729F68B
:1017800083E0809353021092EF0157C0883809F428
:101790007BC0803919F0803809F0B7CF8091EF0114
:1017A000803208F071C0E091EF0181E08E0F8093EC
:1017B000EF018091BB00F0E0E153FE4F80833DC01C
:1017C000803B39F0E0F4803A09F479C0883A09F0B6
:1017D0009CCF84E0809353021092CE011092CD01F1
:1017E000E091F201F091F30109958091CD01811111
:1017F0000FC081E08093CD011092AD0109C0803C03
:1018000009F4A6CF883C09F4A3CF883B09F07DCF2B
:10181000E091CE0181E08E0F8093CE01F0E0E355A0
:10182000FE4F80818093BB009091CE018091CD01CD
:1018300029C080914E028093BB0085EC8093BC0050
:1018400064CF9091500280914F02981758F5E09123
:10185000500281E08E0F80935002F0E0E35DFD4F77
:101860008081E9CFE091500281E08E0F8093500299
:101870008091BB00F0E0E35DFD4F808390915002CA
:1018800080914F029817C8F285E8D8CFE0915002B6
:1018900081E08E0F809350028091BB00F0E0E35D09
:1018A000FD4F80838091520281115CCF81E0809353
:1018B0004D0284EA8093BC001092530226CF85EC3F
:1018C0008093BC00109253028091EF01803230F47B
:1018D000E091EF01F0E0E153FE4F10826091EF01E3
:1018E00070E0E091F001F091F1018FEC91E0099549
:1018F0001092EF010ACF1092510234CF1F920F9233
:101900000FB60F9211248F929F92AF92BF92CF92F7
:10191000DF92EF92FF920F931F932F933F934F937A
:101920005F936F937F938F939F93AF93BF93CF9367
:10193000DF93EF93FF930091F4011091F501D091A3
:10194000F601C091F70120913C0330913D03409195
:101950003E0350913F03B8018D2F9C2F0E947E17AC
:10196000882309F43EC08090400390904103A090EA
:101970004203B090430375016401F7FAF094F7F85D
:10198000F094A7019601B8018D2F9C2F0E947E171D
:1019900087FD0EC0A5019401B8018D2F9C2F0E94D8
:1019A00004196801ED2EFC2E181614F4750164015B
:1019B00020E030E0A901C701B6010E947E17811125
:1019C00085C010924C0310924D0310924E0310925A
:1019D0004F03C0923C03D0923D03E0923E03F0924D
:1019E0003F0380914C0390914D03A0914E03B09121
:1019F0004F03892B8A2B8B2B09F44BC00E94EA02E0
:101A00006B017C018091500390915103A09152038E
:101A1000B0915303B701A601481B590B6A0B7B0B0E
:101A200080914C0390914D03A0914E03B0914F03D0
:101A3000481759076A077B0760F18091340390913A
:101A40003503A0913603B091370320912A03222356
:101A500009F45DC00196A11DB11D809334039093DC
:101A60003503A0933603B09337034091340350916C
:101A70003503609136037091370388E293E00E944A
:101A8000F605C0925003D0925103E0925203F092B7
:101A90005303FF91EF91DF91CF91BF91AF919F9150
:101AA0008F917F916F915F914F913F912F911F91F6
:101AB0000F91FF90EF90DF90CF90BF90AF909F90ED
:101AC0008F900F900FBE0F901F901895A701960151
:101AD00060E074E284E799E40E9483179F770E9494
:101AE000FC1760934C0370934D0380934E039093C7
:101AF0004F03C1E020E030E0A901C701B6010E9418
:101B0000041918160CF0C0E0C0932A0362CF0197A5
:101B1000A109B109A2CF8F929F92AF92BF92CF92AB
:101B2000DF92EF92FF92109282021092810288EE71
:101B300093E0A0E0B0E08093830290938402A093AE
:101B40008502B093860220E131E030938002209339
:101B50007F0225EC30E030938C0220938B0224EC42
:101B600030E030938E0220938D0220EC30E03093F1
:101B7000900220938F0221EC30E030939202209368
:101B8000910222EC30E0309394022093930226ECF1
:101B900030E03093960220939502109298021092B2
:101BA000990210929A0210929B0210921F031092B7
:101BB0001E038093200390932103A0932203B093EC
:101BC000230382E291E090931D0380931C0383E042
:101BD00090E09093740380937303109277031092B4
:101BE00076031092780386E0E0E0F1E0ABE8B3E042
:101BF00001900D928A95E1F786E0E6E0F1E0A5E834
:101C0000B3E001900D928A95E1F784E090E0909323
:101C10009303809392031092A5031092A403109251
:101C2000A6031092A7031092A8031092A903109282
:101C3000AA031092AB031092AC031092AD03109262
:101C4000AE031092AF031092B0031092B103109242
:101C5000B2031092B3031092B4031092B503109222
:101C6000B6031092B7031092B8031092B903109202
:101C7000BA031092BB031092BC031092BD031092E2
:101C8000BE031092BF031092C0031092C1031092C2
:101C9000C2031092C3031092C4031092C5031092A2
:101CA000C6031092C7031092C8031092C903109282
:101CB000CA031092CB031092CC031092CD03109262
:101CC000CE031092CF031092D0031092D103109242
:101CD000D2031092D3031092D4031092D503109222
:101CE000D6031092D7031092D8031092D903109202
:101CF000DA031092DB031092DC031092DD031092E2
:101D0000DE031092DF031092E0031092E1031092C1
:101D1000E2031092E3031092E4031092E5031092A1
:101D2000E6031092E7031092E8031092E903109281
:101D3000EA031092EB031092EC031092ED03109261
:101D4000EE031092EF031092F0031092F103109241
:101D5000F2031092F3031092F4031092F503109221
:101D6000F6031092F7031092F8031092F903109201
:101D7000FA031092FB031092FC031092FD031092E1
:101D8000FE031092FF0310920004109201041092BF
:101D9000020410920304109204041092050410929D
:101DA000060410920704109208041092090410927D
:101DB0000A0410920B0410920C0410920D0410925D
:101DC0000E0484E391E0909329038093280381E03B
:101DD00080932B0310923403109235031092360334
:101DE00010923703109238031092390310923A037D
:101DF00010923B0310923C0310923D0310923E035D
:101E000010923F03C12CD12C80E8E82E8FE3F82EEE
:101E1000C0924003D0924103E0924203F092430308
:101E20001092440310924503109246031092470308
:101E3000C0924803D0924903E0924A03F0924B03C8
:101E400010924C0310924D0310924E0310924F03C8
:101E500081E090E090935503809354038FEF80933B
:101E60005703109250031092510310925203109294
:101E7000530384E080932C0397E090932D03809389
:101E80002E0385E080932F031092560310925C037B
:101E900010925D0310925E0310925F031092600334
:101EA0001092610310926203109263031092640314
:101EB000109265031092660310926703C092680344
:101EC000D0926903E0926A03F0926B0310922A03A6
:101ED00010923003109231031092320310923303A8
:101EE00088E293E00E942A04809044039090450386
:101EF000A0904603B0904703A7019601C501B40125
:101F00000E947E178823B1F160915C0370915D039C
:101F100080915E0390915F030E942D18A5019401AA
:101F20000E9411190E94F51760935C0370935D0382
:101F300080935E0390935F0386E896E6A9E6B9E492
:101F40008093600390936103A0936203B093630353
:101F5000C0924403D0924503E0924603F0924703B7
:101F6000FF90EF90DF90CF90BF90AF909F908F90B9
:101F70000C949E00FF90EF90DF90CF90BF90AF90B9
:101F80009F908F900895CF93DF93CDB7DEB76E9774
:101F90000FB6F894DEBF0FBECDBF789484B58260D3
:101FA00084BD84B5816084BD85B5826085BD85B5FD
:101FB000816085BD80916E00816080936E0010927B
:101FC00081008091810082608093810080918100F6
:101FD0008160809381008091800081608093800087
:101FE0008091B10084608093B1008091B0008160E5
:101FF0008093B00080917A00846080937A00809111
:102000007A00826080937A0080917A008160809368
:102010007A0080917A00806880937A001092C100E3
:1020200010928000109281008AE090E090938900E5
:102030008093880080916F00826080936F00809110
:1020400081008860809381008AB1846B8AB9809115
:102050008100836080938100E0918F02F091900273
:1020600082E08083E0918B02F0918C021082E091FB
:102070008D02F0918E0280E1808310929702E091B0
:102080009302F091940286E08083E0919102F091B6
:102090009202808180618083E0919102F0919202AE
:1020A000808188608083E0919102F091920280812A
:1020B00080688083E0919102F091920280818F7D0F
:1020C000808310927E0210927D0210925A0210922A
:1020D00059020E945D068BE193E09093F301809397
:1020E000F2018CE193E09093F1018093F0018CE098
:1020F0008093B8008BE60E94670A8F3F980751F1E2
:10210000873D9105B1F181E090E021E030E09093CE
:1021100074038093730301970297A0F58BE6213037
:10212000310509F08AE6809375036FE070E08DE178
:102130000E94450A8934910509F472C06FE070E08D
:102140008EE10E94450A8934910509F078C530E096
:1021500020E068C08AE60E94670A8F3F980709F46A
:102160005DC5873D910541F482E090E030E020E0DC
:10217000CECF82E090E0C9CF81E090E0F7CF90E051
:1021800080E0C3CF89E62130310569F288E6CBCF04
:102190006FE070E08EE10E94450A21E030E0CC97CC
:1021A00009F443C090E080E09093930380939203FE
:1021B0008230910551F083309105D1F1019709F0FA
:1021C00064C388E12130310509F489E180939403E7
:1021D0008EE18093950383E090E090939903809340
:1021E000980384E090E090939B0380939A0387E0A8
:1021F00090E090939D0380939C0388E090E09093FF
:102200009F0380939E0385E090E09093A1038093C9
:10221000A00386E090E09093A3038093A20335C0CF
:1022200021E030E083E090E0BFCF82E090E0BCCFDF
:102230008DE12130310509F08EE180939503809383
:10224000940388E090E090939B0380939A0389E045
:1022500090E090939903809398038AE090E09093A4
:102260009F0380939E038BE090E090939D03809367
:102270009C038CE090E09093A3038093A2038DE0F5
:1022800090E09093A1038093A0036FE080E20E940E
:10229000290860E183E20E94290860E183E20E944C
:1022A0000C0867E580E20E940C0868E980E00E9463
:1022B000EF0760EA81E00E94EF0760E082E00E94A1
:1022C000EF0720E030E44CE156E460914003709168
:1022D000410380914203909143030E947E1788231B
:1022E00009F451C080E090E4ACE1B6E4809340038F
:1022F00090934103A0934203B093430380E090E0A6
:10230000A8ECB2E48093680390936903A0936A03F6
:10231000B0936B0380915C0390915D03A0915E0389
:10232000B0915F03181619061A061B0664F5609132
:102330003C0370913D0380913E0390913F039B01CC
:10234000AC010E9411196B017C01609144037091F2
:10235000450380914603909147039B01AC010E9485
:10236000A0169B01AC01C701B6010E9483170E9411
:10237000F51760935C0370935D0380935E03909305
:102380005F030E949E0011E0809175030E948D0200
:1023900068EA8CE193E00E94C0070E949C0666E018
:1023A000809175030E9476090E940F037B01809142
:1023B0007D0290917E02891B990B209176033091CA
:1023C0007703863091050CF08BC221153105C9F3D6
:1023D0000E940F036E197F09809176039091770315
:1023E0008617970720F710937803809195030E9432
:1023F0008D02809192039091930360919803709164
:102400009903039729F460919A0370919B03606884
:102410008CE193E00E94C0070E949C068093910388
:1024200066E0809195030E9476090E940F037B016C
:1024300080917D0290917E02891B990B2091A403CB
:102440003091A503863091050CF077C22115310536
:10245000C9F30E940F036E197F098091A403909124
:10246000A5038617970720F71093A603809194037E
:102470000E948D0268EA8CE193E00E94C0070E94EE
:102480009C068093910366E0809194030E947609F4
:102490000E940F037B0180917D0290917E02891B37
:1024A000990B2091A4033091A503863091050CF07F
:1024B00094C221153105C9F30E940F036E197F09DB
:1024C0008091A4039091A5038617970720F7109396
:1024D000A60360916C0370916D03072E000C880BAE
:1024E000990B0E942D186D877E878F87988B60933C
:1024F000B3037093B4038093B5039093B6036091D4
:102500006E0370916F03072E000C880B990B0E94CD
:102510002D18698B7A8B8B8B9C8B6093B703709390
:10252000B8038093B9039093BA03609170037091DC
:102530007103072E000C880B990B0E942D182B019C
:102540003C014092BB035092BC036092BD03709269
:10255000BE036091790370917A03072E000C880BFB
:10256000990B0E942D186B017C01C092A703D09299
:10257000A803E092A903F092AA0360917B037091F3
:102580007C03072E000C880B990B0E942D18698381
:102590007A838B839C836093AB037093AC038093AB
:1025A000AD039093AE0360917D0370917E03072E7F
:1025B000000C880B990B0E942D184B015C01809236
:1025C000AF039092B003A092B103B092B2036091B6
:1025D0007F0370918003072E000C880B990B0E94DB
:1025E0002D186D837E838F8398876093BF037093CC
:1025F000C0038093C1039093C203609181037091E3
:102600008203072E000C880B990B0E942D186987F6
:102610007A878B879C876093C3037093C4038093EE
:10262000C5039093C6036091830370918403072EC2
:10263000000C880B990B0E942D186093C7037093B0
:10264000C8038093C9039093CA03C092CB03D0926E
:10265000CC03E092CD03F092CE0329813A814B81E5
:102660005C812093CF033093D0034093D1035093E8
:10267000D2038092D3039092D403A092D503B09258
:10268000D6032D853E854F8558892093D7033093F7
:10269000D8034093D9035093DA0329893A894B89A7
:1026A0005C892093DB033093DC034093DD0350937C
:1026B000DE034092DF035092E0036092E1037092E8
:1026C000E2032D813E814F8158852093E3033093AF
:1026D000E4034093E5035093E60329853A854B854F
:1026E0005C852093E7033093E8034093E90350931C
:1026F000EA036093EB037093EC038093ED039093F4
:10270000EE03A5019401C501B4010E9411192B012A
:102710003C0129813A814B815C81CA01B9010E9447
:102720001119A30192010E94A0160E9484199B0115
:10273000AC01C701B6010E9483170E944F174B01DD
:102740005C018092FF0390920004A0920104B09279
:102750000204A7019601C701B6010E941119A30145
:1027600092010E94A0160E9484199B01AC0169810C
:102770007A818B819C810E9483170E944F176B0185
:102780007C01C092FB03D092FC03E092FD03F09227
:10279000FE0320E030E044E353E4C501B4010E94AD
:1027A00011192BED3FE049E450E40E9483174B01DF
:1027B0005C018092070490920804A0920904B092F0
:1027C0000A0420E030E044E353E4C701B6010E946C
:1027D00011192BED3FE049E450E40E9483176B018F
:1027E0007C01C0920304D0920404E0920504F092AC
:1027F000060420E030E0A90169857A858B859C85F7
:102800000E947E17811119C120E030E0A9016D817D
:102810007E818F8198850E947E1787FF0AC180E0A4
:1028200090E0A4E3B3E480930B0490930C04A09392
:102830000D04B0930E0425E63FEF4BE75EE3609195
:102840000B0470910C0480910D0490910E040E9471
:102850009F162B013C012BED3FE049E450E40E9420
:10286000041918160CF0FCC02BED3FE049EC50E4C5
:10287000C301B2010E949F1660930B0470930C0475
:1028800080930D0490930E040FC189E1213031052E
:1028900009F088E1809394038EE18093950383E0AF
:1028A00090E0909399038093980384E090E0909354
:1028B0009B0380939A0385E090E090939D0380931F
:1028C0009C0386E090E090939F0380939E0387E0B3
:1028D00090E09093A1038093A00388E090E09BCCCC
:1028E0000E947A02C82E0E947A02B82E0E947A02B2
:1028F000E82E0E947A02D82E0E947A02F82E0E94B8
:102900007A02BE8A1D8A2D893E892C2930936D0357
:1029100020936C03D88E1F8A2F89388D2E293093EF
:102920006F0320936E038A8F198E898D9A8D8F295C
:10293000909371038093700358CD8091920390918E
:102940009303039721F50E947A02D82E0E947A02FF
:10295000A82E0E947A02B82E0E947A02E82E0E94C7
:102960007A02C82E0E947A02F82E9A2D8D2D90930D
:10297000800380937F039E2D8B2D90938203809301
:102980008103DF2CD0928403C09283036FCD0E9419
:102990007A02A82E0E947A02D82E809192039091FA
:1029A0009303892B69F40E947A02E82E0E947A022E
:1029B000B82E0E947A02F82E0E947A02C82ED5CF35
:1029C0000E947A02F82E0E947A02C82E0E947A0291
:1029D000E82E0E947A02B82EC8CF0E947A02C82E32
:1029E0000E947A02B82E0E947A02E82E0E947A0291
:1029F000D82E0E947A02F82E0E947A02BC8E1B8E7C
:102A00002B8D3C8D2C2930937A0320937903DE8E15
:102A10001D8E2D8D3E8D2E2930937C0320937B03BC
:102A2000382E212CC1018F2990937E0380937D0342
:102A300050CD80E090E0DC01F6CE29853A854B85CB
:102A40005C856D817E818F8198850E941F176093C0
:102A50000B0470930C0480930D0490930E04EBCE42
:102A60002BED3FE049E450ECC301B2010E947E1718
:102A700087FF09C02BED3FE049EC50E4C301B201F0
:102A80000E94A016F9CE20E030E0A901C301B201F6
:102A90000E947E1787FDEECF40920B0450920C04EB
:102AA00060920D0470920E0420EE3EE245E652E480
:102AB00060910B0470910C0480910D0490910E04B0
:102AC0000E9411192B013C0140920B0450920C04FE
:102AD00060920D0470920E0486E591E00E94490810
:102AE00020E030E0A9016091000270910102809124
:102AF0000202909103020E941119A30192010E9407
:102B0000A01642E00E949A088AE691E00E944908D5
:102B100020E030E0A9016091FC017091FD018091FD
:102B2000FE019091FF010E941119A70196010E94D8
:102B3000A01642E00E949A088CE791E00E944908A2
:102B400020E030E0A9016091F8017091F9018091D5
:102B5000FA019091FB010E941119A50194010E94B4
:102B6000A01642E00E949A088DE891E00E94490870
:102B7000609103047091040480910504909106040F
:102B8000409200025092010260920202709203028F
:102B9000C092FC01D092FD01E092FE01F092FF0193
:102BA0008092F8019092F901A092FA01B092FB0193
:102BB0000E94F5179B01AC01265A3F4F4F4F5F4FC4
:102BC000A0E1B7E20E945D1624EB30E040E050E067
:102BD0000E943E16CA01B9016858734181099109E2
:102BE0000E942D186093F4017093F5018093F60113
:102BF0009093F70142E00E949A088DE891E00E94CC
:102C0000490840E050E0452B09F4BECB0E94870301
:102C1000882309F4B9CB0E940000B6CB89E60E9454
:102C2000670A833D910509F4AACA88E60E94670AEB
:102C3000833D910509F079CA90E080E097CA60E28F
:102C400070E089E10E94450A019609F0A1CA60E29C
:102C500070E088E10E94450A019609F416CB6FE006
:102C600070E08EE10E94450A31E020E0CC9709F047
:102C700030E0832F922F30E020E096CA052E97FB9C
:102C80001EF400940E94551657FD07D00E94681646
:102C900007FC03D04EF40C94551650954095309592
:102CA00021953F4F4F4F5F4F0895909580957095B8
:102CB00061957F4F8F4F9F4F08950E948A16A59F61
:102CC000900DB49F900DA49F800D911D1124089527
:102CD000A1E21A2EAA1BBB1BFD010DC0AA1FBB1F20
:102CE000EE1FFF1FA217B307E407F50720F0A21B92
:102CF000B30BE40BF50B661F771F881F991F1A94FF
:102D000069F760957095809590959B01AC01BD0128
:102D1000CF010895A29FB001B39FC001A39F700D82
:102D2000811D1124911DB29F700D811D1124911DD3
:102D30000895EE0FFF1F0590F491E02D099450586F
:102D4000BB27AA270E94B7160C94CA180E94BC1869
:102D500038F00E94C31820F039F49F3F19F426F48C
:102D60000C9492180EF4E095E7FB0C948C18E92F64
:102D70000E94DB1858F3BA17620773078407950798
:102D800020F079F4A6F50C94FD180EF4E0950B2EC6
:102D9000BA2FA02D0B01B90190010C01CA01A001AD
:102DA0001124FF27591B99F0593F50F4503E68F108
:102DB0001A16F040A22F232F342F4427585FF3CF49
:102DC000469537952795A795F0405395C9F77EF41A
:102DD0001F16BA0B620B730B840BBAF09150A1F063
:102DE000FF0FBB1F661F771F881FC2F70EC0BA0FE9
:102DF000621F731F841F48F4879577956795B79571
:102E0000F7959E3F08F0B0CF9395880F08F099276B
:102E1000EE0F9795879508950E94BC1860F080E8A2
:102E200091E009F49EEF0E94C31828F040E851E0B9
:102E300071F45EEF0CC00C9492180C94FD18E92FFD
:102E4000E0780E94DB1840F3092E052AB1F326171B
:102E500037074807590738F00E2E07F8E02569F0C4
:102E6000E025E0640AC0EF6307F8009407FADB018D
:102E7000B9019D01DC01CA01AD01EF930E949A17CF
:102E80000E94CA180E944F175F91552339F02BED0D
:102E90003FE049E450FD49EC0C94A0160895DF93FF
:102EA000DD27B92FBF7740E85FE3161617064807FE
:102EB0005B0718F4D92F0E9409199F938F937F9372
:102EC0006F930E94C419E8E6F0E00E9495180E94F2
:102ED000CA182F913F914F915F910E942419DD23D1
:102EE00051F09058A2EA2AED3FE049EC5FE3D07838
:102EF0005D270E94B716DF910C94CA180E946818CB
:102F000008F481E008950E9497170C94CA180E9453
:102F1000C31858F00E94BC1840F029F45F3F29F014
:102F20000C948C1851110C94FE180C9492180E9459
:102F3000DB1868F39923B1F3552391F3951B550BD7
:102F4000BB27AA2762177307840738F09F5F5F4F7C
:102F5000220F331F441FAA1FA9F335D00E2E3AF0BB
:102F6000E0E832D091505040E695001CCAF72BD0D3
:102F7000FE2F29D0660F771F881FBB1F2617370724
:102F80004807AB07B0E809F0BB0B802DBF01FF2756
:102F900093585F4F3AF09E3F510578F00C948C188F
:102FA0000C94FE185F3FE4F3983ED4F38695779532
:102FB0006795B795F7959F5FC9F7880F911D96950F
:102FC000879597F90895E1E0660F771F881FBB1F6B
:102FD000621773078407BA0720F0621B730B840B18
:102FE000BA0BEE1F88F7E09508950E94FC176894CD
:102FF000B1110C94FE1808950E94E31888F09F57B1
:1030000098F0B92F9927B751B0F0E1F0660F771F0C
:10301000881F991F1AF0BA95C9F714C0B13091F002
:103020000E94FD18B1E008950C94FD18672F782FC9
:103030008827B85F39F0B93FCCF3869577956795C7
:10304000B395D9F73EF490958095709561957F4F33
:103050008F4F9F4F0895E89409C097FB3EF49095D9
:103060008095709561957F4F8F4F9F4F9923A9F061
:10307000F92F96E9BB279395F695879577956795F0
:10308000B795F111F8CFFAF4BB0F11F460FF1BC034
:103090006F5F7F4F8F4F9F4F16C0882311F096E9C7
:1030A00011C0772321F09EE8872F762F05C0662375
:1030B00071F096E8862F70E060E02AF09A95660F2E
:1030C000771F881FDAF7880F9695879597F90895E7
:1030D000990F0008550FAA0BE0E8FEEF1616170629
:1030E000E807F907C0F012161306E407F50798F091
:1030F000621B730B840B950B39F40A2661F0232BAA
:10310000242B252B21F408950A2609F4A140A69525
:103110008FEF811D811D089597F99F6780E870E00A
:1031200060E008959FEF80EC0895DF93CF931F93A5
:103130000F93FF92EF92DF927B018C01689406C09F
:10314000DA2EEF010E942419FE01E894A591259141
:10315000359145915591A6F3EF010E94B716FE01F6
:103160009701A801DA9469F7DF90EF90FF900F9133
:103170001F91CF91DF91089500240A941616170627
:1031800018060906089500240A9412161306140658
:1031900005060895092E0394000C11F4882352F0BB
:1031A000BB0F40F4BF2B11F460FF04C06F5F7F4F73
:1031B0008F4F9F4F089557FD9058440F551F59F05A
:1031C0005F3F71F04795880F97FB991F61F09F3F14
:1031D00079F087950895121613061406551FF2CF3D
:1031E0004695F1DF08C0161617061806991FF1CF8D
:1031F00086957105610508940895E894BB276627B4
:103200007727CB0197F908950E94681808F48FEF8B
:1032100008959B01AC0160E070E080E89FE30C94AE
:1032200083170E9424190C94CA180E94BC1838F005
:103230000E94C31820F0952311F00C948C180C9464
:10324000921811240C94FE180E94DB1870F3959FBD
:10325000C1F3950F50E0551F629FF001729FBB278D
:10326000F00DB11D639FAA27F00DB11DAA1F649F29
:103270006627B00DA11D661F829F2227B00DA11DDC
:10328000621F739FB00DA11D621F839FA00D611D62
:10329000221F749F3327A00D611D231F849F600D83
:1032A000211D822F762F6A2F11249F5750409AF0AC
:1032B000F1F088234AF0EE0FFF1FBB1F661F771F38
:1032C000881F91505040A9F79E3F510580F00C9403
:1032D0008C180C94FE185F3FE4F3983ED4F3869567
:1032E00077956795B795F795E7959F5FC1F7FE2BA3
:1032F000880F911D9695879597F9089519F416F4FE
:103300000C9492180C94CD190E94E318B8F39923E9
:10331000C9F3B6F39F57550B87FF0E94DB190024B2
:10332000A0E640EA900180585695979528F4805C75
:10333000660F771F881F20F026173707480730F4DD
:10334000621B730B840B202931294A2BA6951794F5
:103350000794202531254A2758F7660F771F881FC5
:1033600020F026173707480730F4620B730B840BE5
:10337000200D311D411DA09581F7B901842F915871
:10338000880F9695879508959B01AC010C941119AF
:103390000E946818880B990B08959F3F31F0915057
:1033A00020F4879577956795B795880F911D969529
:1033B000879597F9089591505040660F771F881FA1
:0833C000D2F70895F894FFCF45
:1033C800018001800180FF7FFF7FFF7F00000000F8
:1033D800BD031D034A030A047B0359036D03000060
:1033E8000000C0079307460883079702670284070F
:1033F8000000000058042A04B805F605A205700567
:103408004F051B05FA04A40475046E616E00696E0D
:1034180066006F7666002D2D2D2D2046696C74652B
:10342800726564205961773A20002046696C74659A
:103438007265642050697463683A20002046696C9C
:10344800746572656420526F6C6C3A20000D0A0036
:00000001FF
