:100000000C945D000C9485000C9485000C94850084
:100010000C9485000C9485000C9485000C9485004C
:100020000C9485000C9485000C9485000C9485003C
:100030000C9485000C9485000C9485000C9485002C
:100040000C941E020C9485000C948E020C94680291
:100050000C9485000C9485000C9485000C9485000C
:100060000C9485000C94850000000008000201003B
:100070000003040700000000000000000000000072
:10008000250028002B0000000000240027002A0083
:10009000040404040404040402020202020203032E
:1000A0000303030301020408102040800102040836
:1000B0001020010204081020940311241FBECFEF6A
:1000C000D8E0DEBFCDBF11E0A0E0B1E0E2E9F7E0AB
:1000D00002C005900D92A231B107D9F721E0A2E14B
:1000E000B1E001C01D92AA3BB207E1F710E0CDE5F7
:1000F000D0E004C02197FE010E94C103CC35D10796
:10010000C9F70E94C0020C94C7030C94000090E051
:10011000FC01EC55FF4F249180579F4FFC018491C7
:10012000882399F090E0880F991FFC01EA57FF4F50
:10013000A591B491FC01E458FF4F859194918FB73C
:10014000F894EC91E22BEC938FBF089590E0FC01C2
:10015000E859FF4F2491FC01EC55FF4F3491FC010D
:10016000E057FF4FE491EE23C9F0222339F023300A
:1001700001F1A8F4213019F1223029F1F0E0EE0F5D
:10018000FF1FE458FF4FA591B4918FB7F894EC91FD
:10019000611126C030953E233C938FBF08952730D0
:1001A000A9F02830C9F0243049F7809180008F7D74
:1001B00003C0809180008F7780938000DFCF84B56B
:1001C0008F7784BDDBCF84B58F7DFBCF8091B0006E
:1001D0008F778093B000D2CF8091B0008F7DF9CF20
:1001E0003E2BDACF1F93CF93DF93892BB9F485E0B1
:1001F00012E00E94A60061E0812F0E94A600CBECD5
:10020000D7E0CE010197F1F760E0812F0E94A600B0
:100210002197F1F7DF91CF911F91089587E014E0C6
:10022000E8CFAF92BF92CF92DF92EF92FF920F93FF
:100230001F93CF93DF936C017B018B01040F151F7C
:10024000EB015E01AE18BF08C017D10759F06991E4
:10025000D601ED91FC910190F081E02DC601099548
:10026000892B79F7C501DF91CF911F910F91FF90F5
:10027000EF90DF90CF90BF90AF900895FC01538D29
:10028000448D252F30E0842F90E0821B930B541770
:1002900010F0CF96089501970895FC01918D828DFD
:1002A000981761F0A28DAE0FBF2FB11D5D968C9196
:1002B000928D9F5F9F73928F90E008958FEF9FEFD5
:1002C0000895FC01918D828D981731F0828DE80F91
:1002D000F11D858D90E008958FEF9FEF0895FC014B
:1002E000918D228D892F90E0805C9F4F821B910918
:1002F0008F739927089584E191E00E946F0121E0B6
:10030000892B09F420E0822F089580E090E0892B6A
:1003100029F00E947B0181110C9400000895FC01DA
:10032000A48DA80FB92FB11DA35ABF4F2C91848D56
:1003300090E001968F739927848FA689B7892C93B3
:10034000A089B1898C91837080648C93938D848D06
:10035000981306C00288F389E02D80818F7D808309
:100360000895EF92FF920F931F93CF93DF93EC01C9
:1003700081E0888F9B8D8C8D98131AC0E889F9894C
:10038000808185FF15C09FB7F894EE89FF8960834F
:10039000E889F98980818370806480839FBF81E0D0
:1003A00090E0DF91CF911F910F91FF90EF90089512
:1003B000F62E0B8D10E00F5F1F4F0F731127E02EED
:1003C0008C8D8E110CC00FB607FCFACFE889F98925
:1003D000808185FFF5CFCE010E948F01F1CFEB8D9B
:1003E000EC0FFD2FF11DE35AFF4FF0829FB7F894F9
:1003F0000B8FEA89FB8980818062CFCFCF93DF9317
:10040000EC01888D8823B9F0AA89BB89E889F9892C
:100410008C9185FD03C0808186FD0DC00FB607FC61
:10042000F7CF8C9185FFF2CF808185FFEDCFCE0194
:100430000E948F01E9CFDF91CF9108951F920F9213
:100440000FB60F9211242F933F938F939F93AF93E7
:10045000BF938091B6019091B701A091B801B0917E
:10046000B9013091B50123E0230F2D3758F50196DE
:10047000A11DB11D2093B5018093B6019093B701E2
:10048000A093B801B093B9018091B1019091B201EC
:10049000A091B301B091B4010196A11DB11D80934B
:1004A000B1019093B201A093B301B093B401BF9195
:1004B000AF919F918F913F912F910F900FBE0F9011
:1004C0001F90189526E8230F0296A11DB11DD2CFCB
:1004D0001F920F920FB60F9211242F933F934F93B9
:1004E0005F936F937F938F939F93AF93BF93EF939C
:1004F000FF9384E191E00E948F01FF91EF91BF9102
:10050000AF919F918F917F916F915F914F913F91AB
:100510002F910F900FBE0F901F9018951F920F9262
:100520000FB60F9211242F938F939F93EF93FF9306
:10053000E0912401F09125018081E0912A01F09160
:100540002B0182FD1BC0908180912D018F5F8F73E5
:1005500020912E01821741F0E0912D01F0E0EC5E38
:10056000FE4F958F80932D01FF91EF919F918F9179
:100570002F910F900FBE0F901F9018958081F4CF90
:10058000789484B5826084BD84B5816084BD85B56E
:10059000826085BD85B5816085BD80916E0081607A
:1005A00080936E0010928100809181008260809320
:1005B0008100809181008160809381008091800022
:1005C0008160809380008091B10084608093B1004D
:1005D0008091B00081608093B00080917A00846047
:1005E00080937A0080917A00826080937A00809173
:1005F0007A00816080937A0080917A00806880938D
:100600007A001092C10082E00E94870085E00E947B
:10061000870084E00E94870087E00E948700E091C5
:100620002401F091250182E08083E0912001F09186
:1006300021011082E0912201F09123018FEC80834F
:1006400010922C01E0912801F091290186E080832D
:10065000E0912601F0912701808180618083E09103
:100660002601F0912701808188608083E091260136
:10067000F0912701808180688083E0912601F091CC
:10068000270180818F7D808384E191E00E944D016C
:100690008230D1F762E084E191E00E94B10180E014
:1006A000C82E80E0D82E84E191E00E946F011816D8
:1006B000190684F5E0901201F090130101E010E0BA
:1006C000E114F10411F010E000E010931301009325
:1006D000120184E191E00E944D01C82F880FDD0BCB
:1006E0001C161D0694F461E070E0E114F10411F4AD
:1006F00070E060E090E080E00E94F200B80181E0EC
:1007000090E00E94F2002197EBCF62E084E191E05B
:100710000E94B101C114D10431F20E947B018823EF
:1007200011F20E940000BFCFE4E1F1E013821282D7
:1007300088EE93E0A0E0B0E084839583A683B7833E
:1007400084E091E09183808385EC90E095878487B5
:1007500084EC90E09787868780EC90E0918B808B8B
:1007600081EC90E0938B828B82EC90E0958B848B74
:1007700086EC90E0978B868B118E128E138E148EE2
:100780000895EE0FFF1F0590F491E02D0994F89461
:02079000FFCF99
:1007920000000000B10111013E01FE016F014D0197
:0207A2006101F3
:00000001FF
