:100000000C9435000C945D000C945D000C945D0024
:100010000C945D000C945D000C945D000C945D00EC
:100020000C945D000C945D000C945D000C945F02D8
:100030000C945D000C945D000C945D000C945D00CC
:100040000C94BD010C945D000C942D020C940702DD
:100050000C945D000C945D000C945D000C945D00AC
:100060000C945D000C945D00390511241FBECFEF88
:10007000D8E0DEBFCDBF11E0A0E0B1E0E6EFFFE0E9
:1000800002C005900D92A632B107D9F721E0A6E291
:10009000B1E001C01D92A83DB207E1F710E0C5E351
:1000A000D0E004C02197FE010E94B005C433D107FF
:1000B000C9F70E94B9020C94F9070C940000AF92A2
:1000C000BF92CF92DF92EF92FF920F931F93CF9345
:1000D000DF936C017B018B01040F151FEB015E01A7
:1000E000AE18BF08C017D10759F06991D601ED913C
:1000F000FC910190F081E02DC6010995892B79F7DB
:10010000C501DF91CF911F910F91FF90EF90DF908C
:10011000CF90BF90AF900895FC01538D448D252F53
:1001200030E0842F90E0821B930B541710F0CF9691
:10013000089501970895FC01918D828D981761F0C3
:10014000A28DAE0FBF2FB11D5D968C91928D9F5FDA
:100150009F73928F90E008958FEF9FEF0895FC01B9
:10016000918D828D981731F0828DE80FF11D858D6C
:1001700090E008958FEF9FEF0895FC01918D228DFF
:10018000892F90E0805C9F4F821B91098F73992784
:1001900008958BE391E00E94BD0021E0892B09F4D2
:1001A00020E0822F089580E090E0892B29F00E94C2
:1001B000C90081110C9400000895FC01A48DA80FC2
:1001C000B92FB11DA35ABF4F2C91848D90E0019699
:1001D0008F739927848FA689B7892C93A089B189B9
:1001E0008C91837080648C93938D848D981306C05A
:1001F0000288F389E02D80818F7D80830895EF92BE
:10020000FF920F931F93CF93DF93EC0181E0888FD0
:100210009B8D8C8D98131AC0E889F989808185FFA0
:1002200015C09FB7F894EE89FF896083E889F98942
:1002300080818370806480839FBF81E090E0DF9144
:10024000CF911F910F91FF90EF900895F62E0B8D97
:1002500010E00F5F1F4F0F731127E02E8C8D8E1152
:100260000CC00FB607FCFACFE889F989808185FFB9
:10027000F5CFCE010E94DD00F1CFEB8DEC0FFD2F0D
:10028000F11DE35AFF4FF0829FB7F8940B8FEA8974
:10029000FB8980818062CFCFCF93DF93EC01888D83
:1002A0008823B9F0AA89BB89E889F9898C9185FDF1
:1002B00003C0808186FD0DC00FB607FCF7CF8C917F
:1002C00085FFF2CF808185FFEDCFCE010E94DD005A
:1002D000E9CFDF91CF910895FC0101900020E9F76B
:1002E0003197AF01481B590BBC018BE391E00C9493
:1002F0005F008F929F92AF92BF920F931F93CF9305
:10030000DF93CDB7DEB7A1970FB6F894DEBF0FBE6F
:10031000CDBF19A2423008F44AE08E010F5D1F4F95
:10032000842E912CB12CA12CA50194010E947A0558
:10033000E62FB901CA01EA30F4F4E05DD801EE938A
:100340008D01232B242B252B79F790E080E010974B
:1003500019F0CD010E946C01A1960FB6F894DEBF92
:100360000FBECDBFDF91CF911F910F91BF90AF9086
:100370009F908F900895E95CE1CF1F920F920FB686
:100380000F9211242F933F938F939F93AF93BF931B
:100390008091370190913801A0913901B0913A01D3
:1003A0003091360123E0230F2D3758F50196A11D1A
:1003B000B11D209336018093370190933801A093AB
:1003C0003901B0933A018091320190913301A091AB
:1003D0003401B09135010196A11DB11D8093320108
:1003E00090933301A0933401B0933501BF91AF9145
:1003F0009F918F913F912F910F900FBE0F901F9063
:10040000189526E8230F0296A11DB11DD2CF1F9289
:100410000F920FB60F9211242F933F934F935F9338
:100420006F937F938F939F93AF93BF93EF93FF93BC
:100430008BE391E00E94DD00FF91EF91BF91AF91BE
:100440009F918F917F916F915F914F913F912F91EC
:100450000F900FBE0F901F9018951F920F920FB61E
:100460000F9211242F938F939F93EF93FF93E0911B
:100470004B01F0914C018081E0915101F0915201CA
:1004800082FD1BC09081809154018F5F8F732091FA
:100490005501821741F0E0915401F0E0E55CFE4F18
:1004A000958F80935401FF91EF919F918F912F91A0
:1004B0000F900FBE0F901F9018958081F4CF1F9260
:1004C0000F920FB60F9211244F935F936F937F9308
:1004D0008F939F93AF93BF9380912E0190912F01A3
:1004E000892B19F44C9B3EC05C9880912C01909113
:1004F0002D01892B19F44A9B37C05A9880912A0103
:1005000090912B01019690932B0180932A0180FDFD
:100510001CC04F992BC081E090E0092E000CAA0B63
:10052000BB0B4091260150912701609128017091E9
:100530002901840F951FA61FB71F80932601909352
:100540002701A0932801B0932901BF91AF919F91FA
:100550008F917F916F915F914F910F900FBE0F9090
:100560001F9018955C9AC1CF5A9AC8CF8FEF9FEF12
:10057000D4CF789484B5826084BD84B5816084BD15
:1005800085B5826085BD85B5816085BD80916E0031
:10059000816080936E001092810080918100826062
:1005A000809381008091810081608093810080919F
:1005B00080008160809380008091B100846080938E
:1005C000B1008091B00081608093B00080917A008A
:1005D000846080937A0080917A00826080937A00B0
:1005E00080917A00816080937A0080917A0080689F
:1005F00080937A001092C1001092800010928100C6
:100600008FEF90E0909389008093880080916F0035
:10061000826080936F008091810088608093810068
:100620008AB1846B8AB9E0914B01F0914C0182E070
:100630008083E0914701F09148011082E0914901E7
:10064000F0914A018FEC808310925301E0914F01A9
:10065000F091500186E08083E0914D01F0914E01D0
:10066000808180618083E0914D01F0914E01808115
:1006700088608083E0914D01F0914E018081806817
:100680008083E0914D01F0914E0180818F7D8083C8
:100690002FB7F8948091370190913801A0913901DA
:1006A000B0913A012FBF909331018093300194E6CD
:1006B000A92EB12C00E010E0C1E0D0E09924939481
:1006C0002FB7F8948091370190913801A0913901AA
:1006D000B0913A012FBF4091300150913101052E68
:1006E000000C660B770B841B950BA60BB70B0B97B7
:1006F000A105B10508F404C1C0900101D090020128
:10070000E0900301F090040120E030E04AEF53E470
:10071000C701B6010E9423061816ECF08091000173
:100720008823C9F020E030E040E85FE3C701B6016C
:100730000E94B70560930101709302018093030149
:100740009093040120E030E04AEF53E40E948207D6
:1007500087FF10920001C0900101D0900201E0904B
:100760000301F090040120E030E0A901C701B601C7
:100770000E94820787FD1DC080910001811119C070
:1007800020E030E040E85FE3C701B6010E94B60513
:10079000609301017093020180930301909304011F
:1007A00020E030E0A9010E942306181614F0909270
:1007B0000001C0900101D0900201E0900301F0908F
:1007C0000401C701B6010E949A069B016170772758
:1007D000672B49F4D0932F01C0932E0110922D0165
:1007E00010922C010FC0C901B5010E946605892B2A
:1007F00009F099C0D0932D01C0932C0110922F01C4
:1008000010922E012FE632E143E85CE3C701B60106
:100810000E94230687FF0BC02FE632E143E85CEB22
:10082000C701B6010E94820718160CF481C0A70107
:10083000960160E070E08AE794E40E9428066B016C
:100840007C01E894F7F820E030E040E85FE3C7017E
:10085000B6010E94230687FD2CC080918100887F0D
:100860008093810020E030E040E851E4C701B60108
:100870000E9487070E94A1067093890060938800F8
:1008800020918400309185008091880090918900AA
:100890002817390708F055C0809184009091850091
:1008A0009093850080938400809181008360809381
:1008B0008100C0900101D0900201E0900301F0900E
:1008C0000401A7019601C701B6010E94F40788231D
:1008D000D9F187E191E00E946C0183E291E00E94EE
:1008E0006C012FB7F8948091370190913801A09155
:1008F0003901B0913A012FBF9093310180933001BB
:1009000080910001882309F4B1C05D985F9A0115B8
:10091000110509F4D5CE0E94C900882309F4D0CE70
:100920000E940000CDCE10922F0110922E0156CFC2
:10093000CC24CA9483E2D82E84E7E82E87E4F82EEC
:100940008CCF90E080E0ACCF26013701E89477F8B7
:100950002FEF3FEF4FE75FE7C301B2010E94F407BB
:1009600081110DC02FEF3FEF4FE75FE7C301B201E9
:100970000E94230618161CF48BE191E0ACCF2FEFF8
:100980003FEF4FE75FE4C701B6010E9482071816E8
:100990001CF48FE191E09FCF2FEF3FEF4FE75FEC2B
:1009A000C701B6010E94230687FDF3CF20E030E0A7
:1009B000A901C701B6010E94230687FF09C06DE2A5
:1009C0008BE391E00E94FF00F7FAF094F7F8F094BF
:1009D0002AE037ED43EA5BE3C701B6010E94B705A1
:1009E0002B013C010E94A1066B017C010E94D006F4
:1009F0009B01AC01C301B2010E94B6052B013C0171
:100A00004AE0C701B6010E9479016EE28BE391E0F2
:100A10000E94FF0020E030E040E251E4C301B20157
:100A20000E9487072B013C010E94A1066B01F12C5B
:100A3000E12C4AE0C701B6010E947901C701B60165
:100A40000E94D0069B01AC01C301B2010E94B60511
:100A500020E030E040E251E40E9487070E94A106B6
:100A600090E080E04AE00E94790137CF5D9A5F987C
:100A70004ECFEBE3F1E01382128288EE93E0A0E028
:100A8000B0E084839583A683B78389E091E0918366
:100A9000808385EC90E09587848784EC90E097874D
:100AA000868780EC90E0918B808B81EC90E0938B3B
:100AB000828B82EC90E0958B848B86EC90E0978B18
:100AC000868B118E128E138E148E089597FB072E2F
:100AD00016F4009407D077FD09D00E949C0507FC0E
:100AE00005D03EF4909581959F4F0895709561953E
:100AF0007F4F0895A1E21A2EAA1BBB1BFD010DC05A
:100B0000AA1FBB1FEE1FFF1FA217B307E407F507BD
:100B100020F0A21BB30BE40BF50B661F771F881F99
:100B2000991F1A9469F760957095809590959B012F
:100B3000AC01BD01CF010895AA1BBB1B51E107C049
:100B4000AA1FBB1FA617B70710F0A61BB70B881F5D
:100B5000991F5A95A9F780959095BC01CD010895EC
:100B6000EE0FFF1F0590F491E02D09945058BB271C
:100B7000AA270E94CE050C9448070E943A0738F035
:100B80000E94410720F039F49F3F19F426F40C9499
:100B900037070EF4E095E7FB0C943107E92F0E942C
:100BA000590758F3BA17620773078407950720F0AF
:100BB00079F4A6F50C947B070EF4E0950B2EBA2F72
:100BC000A02D0B01B90190010C01CA01A001112453
:100BD000FF27591B99F0593F50F4503E68F11A16FF
:100BE000F040A22F232F342F4427585FF3CF469590
:100BF00037952795A795F0405395C9F77EF41F16B2
:100C0000BA0B620B730B840BBAF09150A1F0FF0F7B
:100C1000BB1F661F771F881FC2F70EC0BA0F621F67
:100C2000731F841F48F4879577956795B795F79557
:100C30009E3F08F0B0CF9395880F08F09927EE0FEC
:100C40009795879508950E940D0708F481E008950F
:100C50000E943C060C9448070E94410758F00E94ED
:100C60003A0740F029F45F3F29F00C943107511105
:100C70000C947C070C9437070E94590768F399235A
:100C8000B1F3552391F3951B550BBB27AA27621788
:100C90007307840738F09F5F5F4F220F331F441F95
:100CA000AA1FA9F335D00E2E3AF0E0E832D09150C9
:100CB0005040E695001CCAF72BD0FE2F29D0660FB6
:100CC000771F881FBB1F261737074807AB07B0E8F9
:100CD00009F0BB0B802DBF01FF2793585F4F3AF0FF
:100CE0009E3F510578F00C9431070C947C075F3FD0
:100CF000E4F3983ED4F3869577956795B795F79585
:100D00009F5FC9F7880F911D9695879597F908956C
:100D1000E1E0660F771F881FBB1F62177307840708
:100D2000BA0720F0621B730B840BBA0BEE1F88F717
:100D3000E09508950E94A1066894B1110C947C0777
:100D400008950E94610788F09F5798F0B92F99275E
:100D5000B751B0F0E1F0660F771F881F991F1AF0A6
:100D6000BA95C9F714C0B13091F00E947B07B1E089
:100D700008950C947B07672F782F8827B85F39F088
:100D8000B93FCCF3869577956795B395D9F73EF43F
:100D900090958095709561957F4F8F4F9F4F0895E7
:100DA000E89409C097FB3EF4909580957095619505
:100DB0007F4F8F4F9F4F9923A9F0F92F96E9BB27BB
:100DC0009395F695879577956795B795F111F8CF37
:100DD000FAF4BB0F11F460FF1BC06F5F7F4F8F4FA2
:100DE0009F4F16C0882311F096E911C0772321F098
:100DF0009EE8872F762F05C0662371F096E8862F30
:100E000070E060E02AF09A95660F771F881FDAF786
:100E1000880F9695879597F90895990F0008550FB3
:100E2000AA0BE0E8FEEF16161706E807F907C0F070
:100E300012161306E407F50798F0621B730B840B78
:100E4000950B39F40A2661F0232B242B252B21F452
:100E500008950A2609F4A140A6958FEF811D811DF2
:100E6000089597F99F6780E870E060E008959FEF2C
:100E700080EC089500240A94161617061806090631
:100E8000089500240A941216130614060506089500
:100E9000092E0394000C11F4882352F0BB0F40F488
:100EA000BF2B11F460FF04C06F5F7F4F8F4F9F4FC8
:100EB000089557FD9058440F551F59F05F3F71F04A
:100EC0004795880F97FB991F61F09F3F79F08795B1
:100ED0000895121613061406551FF2CF4695F1DF3A
:100EE00008C0161617061806991FF1CF86957105CA
:100EF000610508940895E894BB2766277727CB01FE
:100F000097F908950E940D0708F48FEF08950E9445
:100F10009A070C9448070E943A0738F00E9441074C
:100F200020F0952311F00C9431070C94370711240D
:100F30000C947C070E94590770F3959FC1F3950F9D
:100F400050E0551F629FF001729FBB27F00DB11D4D
:100F5000639FAA27F00DB11DAA1F649F6627B00DDD
:100F6000A11D661F829F2227B00DA11D621F739FC6
:100F7000B00DA11D621F839FA00D611D221F749FD4
:100F80003327A00D611D231F849F600D211D822F1B
:100F9000762F6A2F11249F5750409AF0F1F0882342
:100FA0004AF0EE0FFF1FBB1F661F771F881F91506F
:100FB0005040A9F79E3F510580F00C9431070C94E6
:100FC0007C075F3FE4F3983ED4F386957795679569
:100FD000B795F795E7959F5FC1F7FE2B880F911D99
:100FE0009695879597F908950E940D07880B990BA0
:060FF0000895F894FFCF04
:100FF600010000404000000000FF005F008C004C34
:1010060001BD009B00AF006E616E00696E66006FE9
:061016007666000D0A00E1
:00000001FF
